:1000000000400020F54200002D4300003D44000068
:1000100000000000000000000000000000000000E0
:100020000000000000000000000000002D43000060
:1000300000000000000000002D4300002D430000E0
:100040002D4300002D4300002D4300002D430000F0
:100050002D430000000000002D4300002D43000050
:100060002D4300002D4300002D4300002D430000D0
:100070002D4300002D4300002D4300002D430000C0
:100080002D4300002D4300002D4300002D430000B0
:100090002D4300002D4300002D4300002D430000A0
:0800A0002D4300002D43000078
:1000A80080B588B001460290019100F077FE049077
:1000B800FFE704A80590059800F098FA0090FFE77C
:1000C8000298049906900791069803F02DFD079968
:1000D80003F0A7FCFFE708B080BD80B588B00146F3
:1000E8000290019100F05AFE0490FFE704A80590E1
:1000F800059800F093F90090FFE70298049906909C
:100108000791069803F010FD079903F08AFCFFE7B2
:1001180008B080BD80B588B001460290019100F01A
:100128003DFE0490FFE704A80590059800F02CFC1C
:100138000090FFE70298049906900791069803F04B
:10014800F3FC079903F06DFCFFE708B080BD80B5AC
:1001580088B001460290019100F020FE0490FFE76C
:1001680004A80590059800F075FB0090FFE7029839
:10017800049906900791069803F0D6FC079903F0B6
:1001880050FCFFE708B080BD80B588B001460290FA
:10019800019100F003FE0490FFE704A8059005987C
:1001A80000F08CFC0090FFE70298049906900791F4
:1001B800069803F0B9FC079903F033FCFFE708B091
:1001C80080BD80B588B001460290019100F0E6FD3F
:1001D8000490FFE704A80590059800F0A1FA0090A4
:1001E800FFE70298049906900791069803F09CFC93
:1001F800079903F016FCFFE708B080BD80B588B00A
:1002080001460290019100F0C9FD0490FFE704A89F
:100218000590059800F06AFB0090FFE702980499A2
:1002280006900791069803F07FFC079903F0F9FB05
:10023800FFE708B080BD80B588B001460290019103
:1002480000F0ACFD0490FFE704A80590059800F0C5
:100258007FF90090FFE702980499069007910698A5
:1002680003F062FC079903F0DCFBFFE708B080BDF0
:1002780080B588B001460290019100F08FFD04908E
:10028800FFE704A80590059800F0FCF90090FFE747
:100298000298049906900791069803F045FC07997F
:1002A80003F0BFFBFFE708B080BD80B588B001460A
:1002B8000290019100F072FD0490FFE704A80590F8
:1002C800059800F079FA0090FFE7029804990690E3
:1002D8000791069803F028FC079903F0A2FBFFE7B3
:1002E80008B080BD80B588B001460290019100F049
:1002F80055FD0490FFE704A80590059800F0DCF888
:100308000090FFE70298049906900791069803F079
:100318000BFC079903F085FBFFE708B080BD80B5AB
:1003280088B001460290019100F038FD0490FFE783
:1003380004A80590059800F073FB0090FFE7029869
:10034800049906900791069803F0EEFB079903F0CD
:1003580068FBFFE708B080BD80B586B000F02EF8D6
:1003680002A90870FFE700F014FDFFE703F0EAFBBD
:10037800FFE705A80490049800F0DAFB03A90870C9
:10038800FFE702A803F07AFB0090FFE70098C10797
:10039800002903D0FFE700F0F7FCFFE703A8007887
:1003A80006B080BD80B582B0FFF7D6FF0090FFE7AA
:1003B800012000990140084602B080BD80B584B094
:1003C80003F0BDFB0390FFE703980190FFE70120CE
:1003D800019901400091FFE70098012804D1FFE747
:1003E80002A80121017003E002A800210170FFE7C3
:1003F80002A8007804B080BD80B586B003F0ECFA9E
:100408000090FFE7FFE771200001009908180390AA
:100418000398FFF762FEFFE706B080BD80B58EB097
:1004280001460D900D980B9100F0BEFC0A90FFE775
:100438000A9800F03EFD0990FFE7099800F0C6FC15
:100448000890FFE7089800F039FE0790FFE7079843
:1004580000F0B3FC0690FFE7069800F000FE059058
:10046800FFE7059800F0C4FC0490FFE7049800F04B
:10047800CBFE0390FFE7039800F0B1FC0290FFE782
:10048800029800F045FE0190FFE701980EB080BD8C
:1004980080B586B003F0A0FA0090FFE7FFE70548B3
:1004A8000099081803900398FFF71CFFFFE706B0B0
:1004B80080BDC0461407000080B58EB001460D907F
:1004C8000D980B9100F070FC0A90FFE70A9800F075
:1004D800F0FC0990FFE7099800F078FC0890FFE726
:1004E800089800F0EBFD0790FFE7079800F065FC1F
:1004F8000690FFE7069800F0B2FD0590FFE7059823
:1005080000F076FC0490FFE7049800F07DFE03906D
:10051800FFE7039800F063FC0290FFE7029800F001
:10052800F7FD0190FFE701980EB080BD80B586B059
:1005380003F052FA0090FFE7FFE7E320C0000099BC
:10054800081803900398FFF776FEFFE706B080BD12
:1005580080B58EB001460D900D980B9100F024FCEB
:100568000A90FFE70A9800F0A4FC0990FFE70998B1
:1005780000F02CFC0890FFE7089800F09FFD07901A
:10058800FFE7079800F019FC0690FFE7069800F0CF
:1005980066FD0590FFE7059800F02AFC0490FFE748
:1005A800049800F031FE0390FFE7039800F017FC71
:1005B8000290FFE7029800F0ABFD0190FFE7019879
:1005C8000EB080BD80B586B003F006FA0090FFE754
:1005D800FFE705480099081803900398FFF760FDA6
:1005E800FFE706B080BDC0461C07000080B58EB08E
:1005F80001460D900D980B9100F0D6FB0A90FFE78D
:100608000A9800F056FC0990FFE7099800F0DEFB15
:100618000890FFE7089800F051FD0790FFE707985A
:1006280000F0CBFB0690FFE7069800F018FD059058
:10063800FFE7059800F0DCFB0490FFE7049800F062
:10064800E3FD0390FFE7039800F0C9FB0290FFE782
:10065800029800F05DFD0190FFE701980EB080BDA3
:1006680080B586B003F0B8F90090FFE7FFE73920BE
:1006780040010099081803900398FFF7F9FDFFE778
:1006880006B080BD80B58EB001460D900D980B91D7
:1006980000F08AFB0A90FFE70A9800F00AFC09902C
:1006A800FFE7099800F092FB0890FFE7089800F030
:1006B80005FD0790FFE7079800F07FFB0690FFE72E
:1006C800069800F0CCFC0590FFE7059800F090FB39
:1006D8000490FFE7049800F097FD0390FFE7039864
:1006E80000F07DFB0290FFE7029800F011FD0190F9
:1006F800FFE701980EB080BD80B586B003F06CF9B5
:100708000090FFE7FFE70548009908180390039851
:10071800FFF757FDFFE706B080BDC046240700007D
:1007280080B58EB001460D900D980B9100F03CFB02
:100738000A90FFE70A9800F0BCFB0990FFE70998C8
:1007480000F044FB0890FFE7089800F0B7FC07901A
:10075800FFE7079800F031FB0690FFE7069800F0E6
:100768007EFC0590FFE7059800F042FB0490FFE748
:10077800049800F049FD0390FFE7039800F02FFB71
:100788000290FFE7029800F0C3FC0190FFE7019890
:100798000EB080BD80B586B003F01EF90090FFE76B
:1007A800FFE7E520C0000099081803900398FFF7B9
:1007B8007CFDFFE706B080BD80B58EB001460D9088
:1007C8000D980B9100F0F0FA0A90FFE70A9800F0F4
:1007D80070FB0990FFE7099800F0F8FA0890FFE726
:1007E800089800F06BFC0790FFE7079800F0E5FA1F
:1007F8000690FFE7069800F032FC0590FFE70598A1
:1008080000F0F6FA0490FFE7049800F0FDFC03906E
:10081800FFE7039800F0E3FA0290FFE7029800F080
:1008280077FC0190FFE701980EB080BD80B586B0D7
:1008380003F0D2F80090FFE7FFE705480099081891
:1008480003900398FFF783FCFFE706B080BDC0461E
:100858002C07000080B58EB001460D900D980B91C5
:1008680000F0A2FA0A90FFE70A9800F022FB09902C
:10087800FFE7099800F0AAFA0890FFE7089800F047
:100888001DFC0790FFE7079800F097FA0690FFE72E
:10089800069800F0E4FB0590FFE7059800F0A8FA39
:1008A8000490FFE7049800F0AFFC0390FFE703987B
:1008B80000F095FA0290FFE7029800F029FC0190F9
:1008C800FFE701980EB080BD80B586B003F084F8CC
:1008D8000090FFE7FFE773200001009908180390D4
:1008E8000398FFF78BFCFFE706B080BD80B58EB09C
:1008F80001460D900D980B9100F056FA0A90FFE70B
:100908000A9800F0D6FA0990FFE7099800F05EFA15
:100918000890FFE7089800F0D1FB0790FFE70798D9
:1009280000F04BFA0690FFE7069800F098FB059058
:10093800FFE7059800F05CFA0490FFE7049800F0E0
:1009480063FC0390FFE7039800F049FA0290FFE781
:10095800029800F0DDFB0190FFE701980EB080BD22
:1009680080B586B003F038F80090FFE7FFE7054848
:100978000099081803900398FFF7CCFBFFE706B02F
:1009880080BDC0463407000080B58EB001460D908A
:100998000D980B9100F008FA0A90FFE70A9800F00A
:1009A80088FA0990FFE7099800F010FA0890FFE725
:1009B800089800F083FB0790FFE7079800F0FDF91F
:1009C8000690FFE7069800F04AFB0590FFE70598B8
:1009D80000F00EFA0490FFE7049800F015FC03906D
:1009E800FFE7039800F0FBF90290FFE7029800F098
:1009F8008FFB0190FFE701980EB080BD80B586B0EF
:100A080002F0EAFF0090FFE7FFE7E720C000009947
:100A1800081803900398FFF782FCFFE706B080BD33
:100A280080B58EB001460D900D980B9100F0BCF981
:100A38000A90FFE70A9800F03CFA0990FFE7099846
:100A480000F0C4F90890FFE7089800F037FB07901A
:100A5800FFE7079800F0B1F90690FFE7069800F065
:100A6800FEFA0590FFE7059800F0C2F90490FFE749
:100A7800049800F0C9FB0390FFE7039800F0AFF972
:100A88000290FFE7029800F043FB0190FFE701980E
:100A98000EB080BD80B586B002F09EFF0090FFE7E3
:100AA800FFE705480099081803900398FFF76CFBC7
:100AB800FFE706B080BDC0463C07000080B58EB099
:100AC80001460D900D980B9100F06EF90A90FFE722
:100AD8000A9800F0EEF90990FFE7099800F076F916
:100AE8000890FFE7089800F0E9FA0790FFE70798F1
:100AF80000F063F90690FFE7069800F0B0FA059059
:100B0800FFE7059800F074F90490FFE7049800F0F7
:100B18007BFB0390FFE7039800F061F90290FFE781
:100B2800029800F0F5FA0190FFE701980EB080BD39
:100B380080B584B0014602900A480078C0070028B2
:100B4800009104D0FFE703A80021017006E002F03D
:100B580047FFFFE703A801210170FFE703A800781A
:100B680004B080BD00000020DEB0FFF71BFC1AA90E
:100B78000870FFE71AA80078C007002804D1FFE72B
:100B8800804803F06BF8FEDE02F002FCFFE702F09B
:100B980078FEFFE7FFF730FCFFE7FFF779FCFFE798
:100BA800FFF7C4FCFFE7FFF70DFDFFE7FFF758FD70
:100BB800FFE7FFF7A1FDFFE7FFF7ECFDFFE7FFF712
:100BC80035FEFFE7FFF780FEFFE7FFF7C9FEFFE707
:100BD800FFF714FFFFE7FFF75DFFFFE72AA800F024
:100BE80025FBFFE735A801210170002242708170C2
:100BF800C270017137AB1A7059709A70D9701A7136
:100C080039AC21706270A170E27021713BAD2A701D
:100C18006970AA70E9702A713DAE31707270B17056
:100C2800F2703171369F19902EA80771199F3F787D
:100C38001890199840780002C019199FBF7817902A
:100C48001998C0780002C0190004179FC0192E9087
:100C58001898401D05271691194615923A4614947E
:100C680013951296119703F09DFA18990A3110906E
:100C780008461499119A03F095FA18990F310F90B4
:100C880008461399119A03F08DFA189914310E90A9
:100C980008461299119A03F085FA46A9159A0A701E
:100CA800169B4B708A70CB700A7148AC23706270C7
:100CB800A370E27023714AAD2A706B70AA70EB7052
:100CC8002A714CAE33707270B370F27033714EAFDC
:100CD8003A707B70BA70FB703A71479A3FAB1A71E1
:100CE8000A780D904878000280188A78C978090235
:100CF8008918090408183F90581D2146119A0C9527
:100D08000B960A97099303F04DFA09990A3108904E
:100D180008460C99119A03F045FA09990F31079082
:100D280008460B99119A03F03DFA09991431069077
:100D380008460A99119A03F035FA0590FFE750A87A
:100D48002EA91922049003F02DFA7D21CB002AA99F
:100D58001CAA039008461146049A00F013FCFFE70A
:100D680057A83FA91922029003F01CFA7D21CB0055
:100D78002AA91CAA019008461146029A00F002FC12
:100D8800FFE7DCE78044000080B502F0D6FEFFE70D
:100D980080BD80B502F0CFFEFFE780BD81B00220A4
:100DA8000090009801B0704783B001460190019807
:100DB80002900298009103B0704783B001460190F9
:100DC800019802900298009103B0704783B00146E1
:100DD8000190019802900298009103B0704783B087
:100DE80001460190019802900298009103B0704763
:100DF80083B001460190019802900298009103B0D7
:100E0800704784B00146029002980078C207002A11
:100E18000191009004D0FFE70098012804D007E072
:100E280003A80021017004E003A80121017000E07B
:100E3800FEDE03A8007804B0704784B00146029033
:100E48000298007800280191009008D0FFE70098E8
:100E5800012808D0FFE70098022808D00BE003A873
:100E68000021017008E003A80121017004E003A833
:100E78000321017000E0FEDE039804B0704785B0DE
:100E88000A460346039004A8017002920193FFE703
:100E98000398016801229143016004A8007800903A
:100EA800FFE703980168009A11430160039805B0B1
:100EB800704780B584B001460290029803AA0123C6
:100EC800137012780191114600F005F80090FFE7C1
:100ED800009804B080BD80B588B00A4603460690E5
:100EE80007A801700699059204930391FFF789FFFB
:100EF8000290FFE70120029901400398FFF7BFFF26
:100F08000190FFE7019808B080BDD4D484B00146B1
:100F180002900298007807280191009028D800983C
:100F2800784400794000874403070B0F13171B1FF1
:100F380003A8002101701CE003A80121017018E03A
:100F480003A80221017014E003A80321017010E036
:100F580003A8042101700CE003A80521017008E032
:100F680003A80621017004E003A80721017000E02E
:100F7800FEDE039804B0704784B0014602900298E0
:100F88000078C207002A0191009004D0FFE700987A
:100F9800012804D007E003A80021017004E003A899
:100FA8000121017000E0FEDE03A8007804B070475C
:100FB80084B00146029002980078002801910090C0
:100FC80008D0FFE70098012808D0FFE7009802281A
:100FD80008D00BE003A80021017008E003A8022153
:100FE800017004E003A80321017000E0FEDE03980D
:100FF80004B0704785B00A460346039004A8017000
:1010080002920193FFE7039801680C229143016063
:1010180004A800780321084080000090FFE70398A7
:101028000168009A11430160039805B0704780B5C4
:1010380088B00A460346069007A8017006990592EB
:1010480004930391FFF7F9FE0290FFE703980299D2
:10105800FFF7D0FF0190FFE7019808B080BD80B589
:1010680084B001460290029803AA00231370039AE1
:1010780001911146FFF7DBFF0090FFE7009804B0ED
:1010880080BD85B00A460346039004A80170029209
:101098000193FFE70398016807221302994301604F
:1010A80004A80078104000020090FFE70398016848
:1010B800009A11430160039805B0704780B584B069
:1010C80001460290029803AA00231370039A019123
:1010D800114600F005F80090FFE7009804B080BDC5
:1010E80080B588B00A460346069007A8017006999D
:1010F800059204930391FFF709FF0290FFE7039815
:101108000299FFF7BEFF0190FFE7019808B080BD84
:1011180080B584B001460290029803AA0123137097
:1011280012780191114600F020F80090FFE700982E
:1011380004B080BD85B00A460346039004A8017038
:1011480002920193FFE7039801680222914301602C
:1011580004A8007840000090FFE703980168009A0F
:1011680011430160039805B0704780B588B00A46FE
:101178000346069007A80170069905920493039107
:10118800FFF7FAFE0290FFE7012002990140039859
:10119800FFF7D0FF0190FFE7019808B080BD85B048
:1011A8000A460346039004A8017002920193FFE7E0
:1011B80003980168032213049943016004A8007886
:1011C800104000040090FFE703980168009A11435B
:1011D8000160039805B0704780B588B00A46034699
:1011E800069007A801700699059204930391FFF7EA
:1011F800DFFE0290FFE703980299FFF7D0FF019006
:10120800FFE7019808B080BD80B584B00146029020
:10121800029803AA00231370039A01911146FFF75D
:10122800DBFF0090FFE7009804B080BDF0B5A5B0E3
:10123800109001F015FD0F90FFE701F018FD0E90DA
:10124800FFE701F01BFD0D90FFE721A80F99017042
:101258000E9A42700D9B837001F0C3FC0C90FFE75F
:1012680001F0C6FC0B90FFE701F0C9FC0A90FFE70C
:1012780001F0CCFC0990FFE701F0CFFC0890FFE7F4
:1012880001F0D2FC0790FFE701F0D5FC0690FFE7DC
:1012980001F0D8FC0590FFE701F0DBFC0490FFE7C4
:1012A80022A80C9901700B9A42700A9B8370099CC2
:1012B800C470089D0571079E4671069F8771059940
:1012C800C1710499017202211D9121A98A781DAB6F
:1012D8009A714978597121991971D91D0922039078
:1012E80008460399029302F05DFF029901900846AF
:1012F80000F00CF8FFE720981099C8601F988860E4
:101308001E9848601D98086025B0F0BD80B59AB059
:1013180001460B900B98001D0A9101F0E0FB099023
:101328000891FFE709980D9008990E91FFE70DA81D
:1013380000F04DFD1090FFE710980121002807905C
:10134800069101D1079806900698079900290590FB
:1013580004D0FFE70598012808D006E00B98C01DC7
:1013680001F0CEFB049003910BE0FEDE1098119083
:1013780011980F900F981290129801F0FFFAFFE75A
:10138800D5E70498149003991591FFE714A800F085
:101398001EFD1790FFE71798012100280290019180
:1013A80001D102980190019802990029009004D077
:1013B800FFE70098012802D0D7E71AB080BD179838
:1013C80018901898169016981990199801F014FB0F
:1013D800FFE7DBE710B5D8B01FAA002313722093EC
:1013E8001F9318AA13461B3317911690159314923E
:1013F800A0E06248052100F011FC13901291FFE76C
:1014080068461299016029A81199109A139B00F057
:10141800EFFAFFE723A829A900F095FDFFE723A825
:101428002FA91CC81CC11CC81CC1FFE72FA800F0AD
:10143800BAFD38913790FFE73798012100280F90BF
:101448000E9101D10F980E900E980F9900290D90CA
:1014580004D0FFE70D98012809D007E018A91B223E
:10146800169802F09FFE0C9058B010BDFEDE37981B
:10147800389939903A9139983A9935903691359802
:101488003B9036983C903B98052102F00BFA0B9064
:101498000A91FFE73C9B44A80B990A9A00F085FA49
:1014A800FFE73EA844A900F05AFDFFE73EA84AA975
:1014B8001CC81CC11CC81CC1FFE74AA800F091FD4C
:1014C80053915290FFE75298012100280990089102
:1014D80001D109980890089809990029079004D023
:1014E800FFE70798012801D0C0E79FE75298539972
:1014F80054905591549855995090519150985690B0
:10150800519857905698007857990968022906907B
:10151800059126D8FFE7579840680828049026D8F0
:10152800FFE709200599484318AA1018069A049B52
:10153800C254C2E714981599884203900AD0FFE76D
:101548001FA90922039802F02DFE03990931029080
:101558001491EFE70521179800F0D0FA1190109137
:1015680047E707480322059902F096FBFEDE044888
:101578000922049902F090FBFEDEC0461C450000DB
:10158800E4450000F0B5A3B01C4615460E460746D4
:101598000B900C910D9315A819210A9009911146E9
:1015A800099A089407950696059702F0FBFD0EA97F
:1015B800049008460A99FFF70DFFFFE70B980C996E
:1015C8001CAA0EAB1B2403901046029119460192E7
:1015D800224602F0E7FD0D9B039900900846029908
:1015E800019A00F003F8FFE723B0F0BD70B5ECB046
:1015F8001C460D460646229023912493249822994E
:10160800091D032321900846194620941F921E9510
:101618001D9601F090FA1C90FFE7229802680020BE
:101628001C991B9008461B991B9B02F0C4FD0122C4
:1016380000291A901991189201D1199818901898A0
:101648001A990028179100D009E11798002800D1AD
:1016580009E12198179902F0C8FD259025980021E5
:10166800279128902798289901F0CFFD1690159179
:10167800FFE71698299015992A91FFE729A801F004
:1016880076FD2D912C90FFE72C980028149004D01B
:10169800FFE71498012803D001E06CB070BDFEDEAE
:1016A8002D982E902E982B902298001D032101F042
:1016B80050FA13901291FFE703211F9800F066FA81
:1016C80011901091FFE768461099016036A81399A8
:1016D800129A119B00F042F9FFE730A836A900F0F2
:1016E80056FCFFE730A83CA91CC81CC11CC81CC17B
:1016F800FFE73CA800F066FC45914490FFE744985A
:10170800012100280F900E9101D10F980E900E988C
:101718000F9900290D9004D0FFE70D98012801D0FA
:10172800BDE7ABE744984599469047914698479955
:10173800429043914298489043984990489801F0C4
:101748005BF9FFE72298C01D092101F002FA0C900D
:101758000B91FFE74998092102F0A4F80A90099132
:10176800FFE768460999016051A80C990B9A0A9BF2
:1017780000F065F9FFE74BA851A900F0FCFBFFE773
:101788004BA857A91CC81CC11CC81CC1FFE757A8F7
:1017980000F036FC60915F90FFE75F980121002818
:1017A8000890079101D1089807900798089900298F
:1017B800069004D0FFE70698012806D06FE7239823
:1017C8002299096801F038FE16E05F9860996190E7
:1017D8006291619862995D905E915D9863905E9860
:1017E800649064980078002805D0FFE7639801F0BA
:1017F800C5F8FFE7FFE7CAE72298C01D01F080F9A6
:1018080005900491FFE70598669004996791FFE7B2
:1018180066A800F0DCFA6990FFE7699801210028C2
:101828000390029101D1039802900298039900292C
:10183800019004D0FFE70198012804D02FE74898C9
:1018480001F09CF80AE069986A906A98689068982C
:101858006B906B9801F0D0F8FFE7D9E749E70548A6
:1018680002F0FCF9FEDE024802F0F8F9FEDEC0469E
:101878003C4600002446000080B586B00A46034670
:10188800049005910498006805990392029301F069
:10189800F1FA0190FFE7019806B080BD80B586B0E7
:1018A8000A46034604900591049800680599039236
:1018B800029301F023FD0190FFE7019806B080BD77
:1018C80080B586B00A4603460490059104980068DE
:1018D80005990392029301F0DEFA0190FFE701985F
:1018E80006B080BD80B586B00A46034604900591CF
:1018F8000498006805990392029301F0DDFA0190BB
:10190800FFE7019806B080BD80B586B00A46034659
:10191800049005910498006805990392029301F0D8
:10192800DCFA0190FFE7019806B080BD00207047FF
:101938000020704780B586B00A460346049005919A
:101948000498006805990392029301F093F80190B6
:10195800FFE7019806B080BD00207047F0B58DB054
:10196800129C1D4616460F4609910A920B930C9439
:1019780009990A9A0B9B0C9C0890184607912146D6
:10198800069505960497039200F00BFA02900191D0
:10199800FFE768460199016008980799039A029B36
:1019A80000F03EFBFFE70DB0F0BD70B58CB01C46F3
:1019B80015460E4609910A920B9309990A9A0B9BB0
:1019C800089018460794069505960491039200F02E
:1019D800A9FA02900191FFE7684601990160089809
:1019E8000499039A029B00F095FCFFE70CB070BDC8
:1019F800F0B58DB0129C1D4616460F4609910A9205
:101A08000B930C9409990A9A0B9B0C9C0890184606
:101A180007912146069505960497039200F0B6F9BA
:101A280002900191FFE768460199016008980799BB
:101A3800039A029B00F072FBFFE70DB0F0BDF0B512
:101A48008DB0129C1D4616460F4609910A920B93BB
:101A58000C9409990A9A0B9B0C9C089018460791BC
:101A68002146069505960497039200F0A5F9029081
:101A78000191FFE768460199016008980799039A60
:101A8800029B00F0C9FBFFE70DB0F0BD86B00A4627
:101A980003460290039102980399049005910598D2
:101AA8000192009306B0704786B00A46034602903A
:101AB8000391029803990490059105980192009367
:101AC80006B0704786B00A46034602900391029812
:101AD80003990490059105980192009306B0704708
:101AE80086B00A460346029003910298039904902F
:101AF800059105980192009306B0704780B590B0A3
:101B08000A46034609900A9109980A990892079388
:101B180000F014F90D90FFE70D9801F03DFA0690DA
:101B2800FFE7FFE700F0E8F90590FFE705980028D0
:101B38000AD1FFE70D9809990A9A049008461146B8
:101B4800FFF7A4FF039009E00D9809990A9A0290FB
:101B580008461146FFF79AFF019008E00498039998
:101B680002F04FF80090FFE700980E9006E0029808
:101B7800019901F0B2F90E90FFE7FFE70D980E9971
:101B88000B900C910B980C9910B080BD80B590B05B
:101B98000A46034609900A9109980A9908920793F8
:101BA80000F0E0F80D90FFE70D9801F01BFA0690A1
:101BB800FFE7FFE700F07CF90590FFE705980028AC
:101BC8000AD1FFE70D9809990A9A04900846114628
:101BD800FFF778FF039009E00D9809990A9A029097
:101BE80008461146FFF76EFF019008E00498039934
:101BF80002F007F80090FFE700980E9006E00298C0
:101C0800019901F037F90E90FFE7FFE70D980E995B
:101C18000B900C910B980C9910B080BD80B590B0CA
:101C28000A46034609900A9109980A990892079367
:101C380000F0A2F80D90FFE70D9801F0E6F9069084
:101C4800FFE7FFE700F03DF90590FFE7059800285A
:101C58000AD1FFE70D9809990A9A04900846114697
:101C6800FFF73EFF039009E00D9809990A9A029040
:101C780008461146FFF734FF019008E004980399DD
:101C880001F0BFFF0090FFE700980E9006E0029871
:101C9800019901F011F90E90FFE7FFE70D980E99F1
:101CA8000B900C910B980C9910B080BD80B590B03A
:101CB8000A46034609900A9109980A9908920793D7
:101CC80000F046F80D90FFE70D9801F078F90690BE
:101CD800FFE7FFE700F0DAF80590FFE7059800282E
:101CE8000AD1FFE70D9809990A9A04900846114607
:101CF800FFF7DAFE039009E00D9809990A9A029015
:101D080008461146FFF7D0FE019008E004980399B1
:101D180001F077FF0090FFE700980E9006E0029828
:101D2800019901F0B8F80E90FFE7FFE70D980E99BA
:101D38000B900C910B980C9910B080BD84B00A469A
:101D480003460290039102980192009304B07047F1
:101D580084B00A46034602900391029801920093C8
:101D680004B0704784B00A46034602900391029873
:101D78000192009304B0704784B00A46034602906B
:101D8800039102980192009304B0704784B00A4608
:101D9800034602900391029803990192009304B0BC
:101DA800704784B00A46034602900391029803994B
:101DB8000192009304B0704784B00A46034602902B
:101DC8000391029803990192009304B0704780B57B
:101DD8008CB00146069006980068059100F06CFEEC
:101DE8000490FFE7FFE700F075F80390FFE703981A
:101DF800002808D0FFE70698406800F05DFE0290D2
:101E0800FFE7FFE7FFE7069801684068814203D1D2
:101E1800FFE70020079027E0069808900120099026
:101E280000F058F800280CD1FFE708984068099995
:101E3800494201F030FA08994860089800680A9009
:101E48000CE0089800680B9008980068099900F061
:101E580022FE089908600B980A90FFE70A980190FB
:101E6800FFE701980790FFE707980CB080BD80B5A1
:101E780084B00A460346029003910298039901929E
:101E8800009300F047FFFFE704B080BD82B0082050
:101E9800019001980090FFE7009802B0704782B067
:101EA8000420019001980090FFE7009802B0704765
:101EB80082B00920019001980090FFE7009802B0D5
:101EC800704782B02820019001980090FFE70098A1
:101ED80002B0704782B00120019001980090FFE79E
:101EE800009802B0704782B02020019001980090BD
:101EF800FFE7009802B0704782B005200190019872
:101F08000090FFE7009802B0704784B00146019046
:101F180001980390002002900298039A00911146BC
:101F280004B0704780B584B0014603900398052239
:101F380002911146FFF7BAFE01900091FFE7019860
:101F4800009904B080BD70B582B00A46034670C9D6
:101F580070C070C970C00192009302B070BD70B5B6
:101F680082B00A46034670C970C070C970C0019239
:101F7800009302B070BD70B582B00A46034670C9BE
:101F880070C070C970C00192009302B070BD70B586
:101F980082B00A46034670C970C070C970C0019209
:101FA800009302B070BD80B584B0014603900398D9
:101FB800029100F02DFA01900091FFE70198009935
:101FC80004B080BD80B584B00146039003980291A7
:101FD80000F0ACFA01900091FFE70198009904B075
:101FE80080BD80B584B0014603900398029100F04B
:101FF800B9FB01900091FFE70198009904B080BDFA
:1020080080B584B0014603900398029100F01CFB50
:1020180001900091FFE70198009904B080BDD4D4E5
:10202800F0B59BB0209C1D4616460F460A910B92B0
:102038000C930D940AA90F910F99096811910F99A2
:102048004968119A09900846114608950796069717
:1020580001F07CF8129011981490FFF73BFF139051
:102068001398002803D1FFE71298109010E01298F7
:10207800139900290590049106D0FFE70598049963
:1020880002F0B3F8109003E0234801F0E7FDFEDE0C
:1020980010980390FFE70CA8159015980068179002
:1020A80015984068179901F051F8189017981A90E8
:1020B800FFF7FEFE19901998002803D1FFE718983A
:1020C800169010E01898199900290290019106D0ED
:1020D800FFE70298019902F088F8169003E00E488D
:1020E80001F0BCFDFEDE16990091FFE70398009908
:1020F80000F004FC0E90FFE70A980B990C9A0D9BD0
:102108000E9C099D28606960AA60EB600020286128
:102118006C611BB0F0BDC046CC460000F0B59BB06A
:10212800209C1D4616460F460A910B920C930D945F
:102138000AA90F910F99096811910F994968119A85
:1021480009900846114608950796069700F0FEFF85
:10215800129011981490FFF7CFFE1390139800284F
:1021680003D1FFE71298109010E0129813990029F4
:102178000590049106D0FFE70598049902F035F818
:10218800109003E0234801F069FDFEDE10980390EB
:10219800FFE70CA8159015980068179015984068E7
:1021A800179900F0D3FF189017981A90FFF789FE37
:1021B80019901998002803D1FFE71898169010E095
:1021C8001898199900290290019106D0FFE7029802
:1021D800019902F00AF8169003E00E4801F03EFD5E
:1021E800FEDE16990091FFE70398009900F086FB40
:1021F8000E90FFE70A980B990C9A0D9B0E9C099D6F
:1022080028606960AA60EB60002028616C611BB0DF
:10221800F0BDC046CC460000F0B59BB0209C1D46E2
:1022280016460F460A910B920C930D940AA90F912A
:102238000F99096811910F994968119A09900846F0
:10224800114608950796069700F080FF129011989E
:102258001490FFF73FFE13901398002803D1FFE76F
:102268001298109010E01298139900290590049183
:1022780006D0FFE70598049901F0B7FF109003E036
:10228800234801F0EBFCFEDE10980390FFE70CA852
:10229800159015980068179015984068179900F0E0
:1022A80055FF189017981A9001F04EFB199019983D
:1022B800002803D1FFE71898169010E0189819998C
:1022C80000290290019106D0FFE70298019901F0D8
:1022D8008CFF169003E00E4801F0C0FCFEDE169954
:1022E8000091FFE70398009900F008FB0E90FFE7C4
:1022F8000A980B990C9A0D9B0E9C099D28606960A1
:10230800AA60EB60002028616C611BB0F0BDC0467C
:10231800CC460000F0B59BB0209C1D4616460F46E3
:102328000A910B920C930D940AA90F910F990968C1
:1023380011910F994968119A099008461146089514
:102348000796069700F002FF12901198149001F07A
:10235800FBFA13901398002803D1FFE71298109006
:1023680010E01298139900290590049106D0FFE710
:102378000598049901F039FF109003E0234801F013
:102388006DFCFEDE10980390FFE70CA815901598D9
:102398000068179015984068179900F0D7FE1890B4
:1023A80017981A90FFF772FD19901998002803D111
:1023B800FFE71898169010E01898199900290290CC
:1023C800019106D0FFE70298019901F00EFF1690DF
:1023D80003E00E4801F042FCFEDE16990091FFE78B
:1023E8000398009900F08AFA0E90FFE70A980B9973
:1023F8000C9A0D9B0E9C099D28606960AA60EB6091
:10240800002028616C611BB0F0BDC046CC460000BE
:1024180080B596B0014609900998026940698242E0
:1024280008910DD2FFE7099800690C900998016995
:10243800491C016109980C99FFF766FA079003E0B7
:10244800FFF774FA06904BE0099808300C99FFF7EB
:1024580049FA0590FFE707980D9005990E910D9A96
:102468000E9B0A920B935BE00FA80121017031E0EB
:102478000FA8002101702DE00998016910901098AB
:102488000068129010984068129A0491114600F062
:102498005DFE139012981590FFF72EFD1490149876
:1024A800002803D1FFE71398119010E013981499AE
:1024B80000290390029106D0FFE70398029901F0E2
:1024C80094FE119003E0184801F0C8FBFEDE119855
:1024D80001900AE00FA80078C00700280AD10FE091
:1024E8000698C1070029C7D1C2E704980199884214
:1024F800BAD3BDE709980169FFF706FA009004E02E
:1025080000200B900A900A9009E0FFE709980169FA
:10251800491C016100200B900A900A90FFE7FFE731
:102528000A980B9916B080BDCC46000080B596B0CD
:1025380001460990099802694069824208910DD2C2
:10254800FFE7099800690C9009980169491C016125
:1025580009980C99FFF7EEF9079003E0FFF7FCF9EB
:1025680006904BE0099808300C99FFF785F905901B
:10257800FFE707980D9005990E910D9A0E9B0A9208
:102588000B935BE00FA80121017031E00FA8002137
:1025980001702DE009980169109010980068129058
:1025A80010984068129A0491114600F0CFFD1390DC
:1025B80012981590FFF78EFC14901498002803D1F8
:1025C800FFE71398119010E01398149900290390CD
:1025D800029106D0FFE70398029901F006FE1190D8
:1025E80003E0184801F03AFBFEDE119801900AE07A
:1025F8000FA80078C00700280AD10FE00698C10785
:102608000029C7D1C2E7049801998842BAD3BDE727
:1026180009980169FFF78EF9009004E000200B90FB
:102628000A900A9009E0FFE709980169491C0161CD
:1026380000200B900A900A90FFE7FFE70A980B9991
:1026480016B080BDCC46000080B596B00146099012
:10265800099802694069824208910DD2FFE70998FA
:1026680000690C9009980169491C016109980C9945
:10267800FFF760F9079003E0FFF76EF906904BE06B
:10268800099808300C99FFF709F90590FFE70798B2
:102698000D9005990E910D9A0E9B0A920B935BE093
:1026A8000FA80121017031E00FA8002101702DE071
:1026B8000998016910901098006812901098406865
:1026C800129A0491114600F041FD1390129815904A
:1026D800FFF700FC14901498002803D1FFE7139823
:1026E800119010E01398149900290390029106D0D4
:1026F800FFE70398029901F078FD119003E018486C
:1027080001F0ACFAFEDE119801900AE00FA80078FB
:10271800C00700280AD10FE00698C1070029C7D1D1
:10272800C2E7049801998842BAD3BDE709980169BC
:10273800FFF700F9009004E000200B900A900A903F
:1027480009E0FFE709980169491C016100200B9025
:102758000A900A90FFE7FFE70A980B9916B080BD28
:10276800CC46000080B596B00146099009980269E8
:102778004069824208910DD2FFE7099800690C90E0
:1027880009980169491C016109980C99FFF786F8B5
:10279800079003E0FFF7CCF806904BE00998083063
:1027A8000C99FFF78DF80590FFE707980D900599AC
:1027B8000E910D9A0E9B0A920B935BE00FA80121D4
:1027C800017031E00FA8002101702DE0099801691E
:1027D800109010980068129010984068129A04910E
:1027E800114600F0B3FC13901298159001F0ACF864
:1027F80014901498002803D1FFE71398119010E063
:102808001398149900290390029106D0FFE70398C2
:10281800029901F0EAFC119003E0184801F01EFA51
:10282800FEDE119801900AE00FA80078C007002882
:102838000AD10FE00698C1070029C7D1C2E704985A
:1028480001998842BAD3BDE709980169FFF726F8CC
:10285800009004E000200B900A900A9009E0FFE73E
:1028680009980169491C016100200B900A900A909F
:10287800FFE7FFE70A980B9916B080BDCC46000029
:1028880010B588B00A4603460390049107A80021B2
:10289800017006AC217001210170217003A804A900
:1028A8000292019300F052F80090FFE70098C107E8
:1028B800002906D0FFE707A80021017003980590BA
:1028C80005E006A80021017004980590FFE706A816
:1028D8000078C007002809D1FFE707A80078C007DB
:1028E800002807D1FFE7059808B010BD06A8002109
:1028F8000170F2E707A800210170F4E780B586B0FF
:102908000A46034604900591049805990392029398
:10291800FFF7B6FF0190FFE7019806B080BDB0B59C
:1029280086B00A4603460490059104980068059904
:1029380009680124002588420392029301950094B6
:1029480001D301980090009806B0B0BDB0B586B02C
:102958000A46034604900591049800680599096899
:10296800012400258842039202930195009401D91D
:1029780001980090009806B0B0BDD4D480B584B05A
:1029880001460290019101F027F80090FFE7054801
:102998000099081802AA0392039900F049FBFFE77F
:1029A80004B080BD0C050000B0B588B00A460346E7
:1029B8000690079107980699096809781F240D461B
:1029C80025400124AC400906490F002905920493CB
:1029D8000390029409D1FFE70398029900F05BF98C
:1029E8000190FFE7019808B0B0BD024801F036F940
:1029F800FEDEC0467447000080B584B001460290F0
:102A0800019100F0E9FF0090FFE7A120C0000099C4
:102A1800081802AA0392039900F02BFBFFE704B001
:102A280080BDD4D4B0B588B00A4603460690079155
:102A380007980699096809781F240D46254001243E
:102A4800AC400906490F00290592049303900294AB
:102A580009D1FFE70398029900F030F90190FFE7E8
:102A6800019808B0B0BD024801F0F8F8FEDEC04693
:102A78008C47000080B586B00A460346049005914D
:102A8800049805990392029300F005F80190FFE776
:102A9800019806B080BD86B00A46034603900491AB
:102AA80003980499401805900598029201930090A4
:102AB800FFE7009806B0704780B584B001460390E0
:102AC80003980291019000F04EFC0090FFE70198F6
:102AD8000099421A53425A41104604B080BD80B54D
:102AE80084B001460390039803220291114600F036
:102AF80030F801900091FFE70198009904B080BD7B
:102B080080B584B0014603900398092202911146CA
:102B180000F01FF801900091FFE70198009904B0B8
:102B280080BD84B00A460346029003910298019240
:102B3800009304B0704786B00A460346029003919A
:102B4800029803990490059105980192009306B0A4
:102B5800704780B590B00A46034609900A910998D3
:102B68000A9908920793FFF7DCFF0D90FFE70D988D
:102B7800FFF7A2FF0690FFE7FFE7FFF7ABF9059025
:102B8800FFE7059800280AD1FFE70D9809990A9AE6
:102B9800049008461146FFF7CEFF039009E00D9810
:102BA80009990A9A029008461146FFF7C4FF019056
:102BB80008E00498039900F05DFB0090FFE7009897
:102BC8000E9006E002980199FFF754FF0E90FFE778
:102BD800FFE70D980E990B900C910B980C9910B07B
:102BE80080BD82B001A804210170019802B070472D
:102BF80082B001A805210170019802B0704782B027
:102C080001A806210170019802B0704782B001A89E
:102C180007210170019802B0704782B001A808210D
:102C28000170019802B0704782B001A809210170B3
:102C3800019802B0704782B001A80A21017001987A
:102C480002B0704782B001A80B210170019802B050
:102C5800704782B001A80C210170019802B070473A
:102C680082B001A80D210170019802B0704782B0AE
:102C780001A80E210170019802B0704782B001A826
:102C88000F210170019802B0704781B000200090B8
:102C9800009801B0704784B00A4603460290039139
:102CA80003980299086002980192009304B0704753
:102CB80081B000200090009801B0704784B00A46A7
:102CC80003460290039103980299086002980192C2
:102CD800009304B07047B0B58AB013460C46054659
:102CE800049005910692049807900598089003931C
:102CF80002940195FFF7D3F80090FFE70698009932
:102D08004843099007980899099A00F02CF8FFE7BA
:102D18000AB0B0BD80B586B00A4603460390049158
:102D280002920193FFF7BBF80090FFE700981F2875
:102D380005D8FFE7039800F081FE059005E00398A9
:102D480004990122FFF7C7FF0AE004980399006875
:102D58000860FFE70498059900F047FFFFE700E0E7
:102D6800FFE706B080BDB0B502AFACB06C466409F1
:102D78006401A54613460C4605460B900C910D922E
:102D88000A9309940895FFF7AEF80E90FFE7002024
:102D98000F90FFE70F980E9940180D99884205D9B2
:102DA800FFE70F980D99884230D35FE0FFE710A83E
:102DB8002A902A982B902B980790FFE7079819904C
:102DC8000B980F9900F078FA1A90FFE70C980F9972
:102DD80000F072FA1B90FFE71A9919980E9A01F001
:102DE800E1F90690FFE71B991A980E9A01F0DAF9B3
:102DF8000590FFE719991B980E9A01F0D3F90490F2
:102E0800FFE70E980F9908180F90C3E7FFE70D9892
:102E18000F99401A24901CA828902898299029983E
:102E28000390FFE7039825900B980F9900F044FA58
:102E38002690FFE70C980F9900F03EFA2790FFE7DD
:102E480026992598249A01F0ADF90290FFE7279971
:102E58002698249A01F0A6F90190FFE7259927986A
:102E6800249A01F09FF90090FFE7FFE7FC1F013C5F
:102E7800A546B0BD80B586B00A46034604900591C4
:102E8800049805990392029300F060F80190FFE717
:102E9800019806B080BD80B586B00A460346049006
:102EA8000591049805990392029300F063F8019044
:102EB800FFE7019806B080BD80B586B00A46034694
:102EC80004900591049805990392029300F016F86E
:102ED8000190FFE7019806B080BD80B586B00A462C
:102EE800034604900591049805990392029300F013
:102EF80019F80190FFE7019806B080BD10B586B0BB
:102F08000A460346039004910398049928244C43E5
:102F1800001905900598029201930090FFE7009828
:102F280006B010BD10B586B00A460346039004915A
:102F38000398049905244C430019059005980292BA
:102F480001930090FFE7009806B010BD10B586B059
:102F58000A460346039004910398049909244C43B4
:102F6800001905900598029201930090FFE70098D8
:102F780006B010BD86B00A46034603900491039834
:102F88000499C90040180590059802920193009091
:102F9800FFE7009806B0704780B584B001460390FB
:102FA80003980291019000F04EFE0090FFE701980F
:102FB8000099421A53425A41104604B080BD80B568
:102FC80084B00146039003980291019000F03BFE03
:102FD8000090FFE701980099421A53425A4110465F
:102FE80004B080BD80B584B0014603900398029177
:102FF800019000F028FE0090FFE701980099421A1E
:1030080053425A41104604B080BD80B584B0014691
:10301800039003980291019000F015FE0090FFE7DD
:1030280001980099421A53425A41104604B080BD93
:1030380080B58AB00A46034604900591039202932C
:10304800FFF723FE0690FFE7059806A90791079961
:10305800FFF7AAFC0190FFE70498069908900991E8
:10306800089800F061FD099900F0DBFCFFE70AB061
:1030780080BD80B58AB00A46034604900591039244
:103088000293FFF715FE0690FFE7059806A907913A
:103098000799FFF7C7FC0190FFE704980699089085
:1030A8000991089800F040FD099900F0BAFCFFE783
:1030B8000AB080BD80B58AB00A46034604900591DF
:1030C800049805990392029300F01BF8019000916F
:1030D800FFE7019808900121009A0A4009A90A709F
:1030E8000978C907002903D0FFE70020069004E00B
:1030F8000898079001200690FFE7069807990AB0FC
:1031080080BD10B58CB00A4603460490059104981A
:1031180005990024401864410A900AA804710A9885
:103128000B990392029301900091FFE70198089090
:103138000121009A0A4009A90A700899099A06917A
:1031480006A90A71069809790CB010BD86B00A461E
:1031580003460390049103980499401A0590059832
:10316800029201930090FFE7009806B0704780B57F
:103178008AB00146039009A8002202700398021D34
:1031880002911146FFF7CBFB0190FFE70198C107B9
:1031980000290AD0FFE7039809A901220A701146FD
:1031A80000F03EF80791069002E00020049019E034
:1031B8000698012803D0FFE7002004900EE009A834
:1031C8000021017007980890039908A8FEF74FFEA0
:1031D800FFE70898059001200490FFE7069801286A
:1031E80008D011E0049805990AB080BD09A800210B
:1031F8000170F7E709A80078C0070028F6D0FFE7B4
:1032080009A800210170F1E7F0E784B00A460346F7
:1032180002900391029803990192009304B07047B9
:1032280080B58AB00A460346039004910498029236
:103238000193FEF76AFE08910790FFE707980028B8
:10324800009008D0FFE70098012803D1FFE700208D
:1032580005900AE0FEDE089809900398006809992D
:10326800FFF728FF0691059003E0059806990AB034
:1032780080BDFAE780B586B00A46034604900591FA
:10328800049805990392029300F005F80190FFE76E
:10329800019806B080BD86B00A46034603900491A3
:1032A800039804994018059005980292019300909C
:1032B800FFE7009806B0704780B586B00A46034617
:1032C80004900591049805990392029300F005F87B
:1032D8000190FFE7019806B080BD86B00A46034614
:1032E8000390049103980499401805900598029258
:1032F80001930090FFE7009806B0704780B586B04C
:103308000A4603460490059104980599039202938E
:1033180000F005F80190FFE7019806B080BD86B07F
:103328000A460346039004910398049940180590AF
:103338000598029201930090FFE7009806B0704745
:1033480080B584B00146039003980291019000F083
:103358007AFC0090FFE701980099421A53425A41BB
:10336800104604B080BD0020704781B00020009056
:10337800009801B0704784B00A4603460290039152
:1033880003980299086002980192009304B070476C
:1033980080B588B003A800F013FB0290FFE70298FD
:1033A800001D00F040F9FFE703A800F009FB0190B9
:1033B800FFE7A120C0000199081800F0DCF9FFE739
:1033C80003A800F0FDFA0090FFE7512000010099E2
:1033D800081800F0EDF9FFE708B080BD80B584B0AB
:1033E800014603900398012201911146FFF7C3FF9C
:1033F8000090FFE7009804B080BD80B584B0014616
:103408000390039802220191114600F02DFA0090D2
:10341800FFE7009804B080BD80B584B001460390F2
:10342800039804220191114600F0B8FA0090FFE7D2
:10343800009804B080BDD4D4B0B58AB00A4603461B
:1034480008900991089809997D24E40000250790BF
:10345800084629460692224605932B4600F0ABFE05
:103468000122002904900391029201D1039802904D
:10347800029804990028019107D1FFE7079801995C
:1034880000F00AF8FFE70AB0B0BD024800F0E6FB1A
:10349800FEDEC0463448000080B592B00A460346B6
:1034A8000A900B910A980992089300F089FA0790FC
:1034B800FFE7FFE7052080010799081800F01DF9CC
:1034C800FFE70A9800F07CFA0690FFE7FFE715206F
:1034D8008001069908180BAA0D920D9900F02AF997
:1034E800FFE70A9800F06CFA0590FFE705980C30A2
:1034F80000F0B6F8FFE70A9800F062FA0490FFE7D8
:10350800049800F0CAF8FFE7FFE70A9800F058FAB5
:10351800039004E00A9800F053FA029011E0FFE7E4
:10352800052080010399081800F0D4F81090FFE7EF
:1035380010A800F012FA0190FFE701980028E4D0E3
:10354800E8E70298001D00F051F8FFE712B080BDCF
:1035580080B584B00146039003980022019111467A
:1035680000F009FA0090FFE7009804B080BD80B52C
:1035780086B00A460346049005910598049909689F
:103588000392029300F05DF90190FFE7019806B0FD
:1035980080BD80B584B00146039003980122019153
:1035A800114600F028F90090FFE7009804B080BDAC
:1035B80080B584B001460390039801220191114619
:1035C80000F02CF90090FFE7009804B080BD80B5AA
:1035D80084B0014603900398012201911146FFF738
:1035E800CAFE0090FFE7009804B080BD80B588B09F
:1035F800014602900191FFF7B8FE0490FFE704A886
:1036080005900598FFF7E3FF0090FFE702980499FB
:1036180006900791069800F087FA079900F001FADA
:10362800FFE708B080BD80B588B0014602900191DF
:10363800FFF79BFE0490FFE704A805900598FFF7A5
:10364800CDFE0090FFE7029804990690079106982E
:1036580000F06AFA079900F0E4F9FFE708B080BDC6
:1036680080B588B001460290019100F0BEF8049040
:10367800FFE704A805900598FFF78BFF0090FFE788
:103688000298049906900791069800F04DFA079958
:1036980000F0C7F9FFE708B080BD80B588B00146E3
:1036A8000290019100F0B4F80490FFE704A8059097
:1036B8000598FFF77DFF0090FFE7029804990690B0
:1036C8000791069800F030FA079900F0AAF9FFE789
:1036D80008B080BD80B586B0014603900398059078
:1036E8000598029100F020FA00F08EF90190FFE7AA
:1036F80001980490049806B080BD80B588B0014652
:103708000290019100F031F90490FFE704A80590B8
:103718000598FFF71DFF0090FFE7029804990690AF
:103728000791069800F000FA079900F07AF9FFE788
:1037380008B080BD80B58AB00A460346049005915A
:103748000392029300F077F80690FFE7059806A920
:1037580007910799FFF70BFF0190FFE70498069977
:1037680008900991089800F0DFF9099900F059F9D3
:10377800FFE70AB080BD80B588B00146029001918C
:1037880000F06CF80490FFE704A805900598FFF78F
:1037980034FE0090FFE70298049906900791069876
:1037A80000F0C2F9079900F03CF9FFE708B080BDC6
:1037B80080B588B001460290019100F0E9F80490C4
:1037C800FFE704A805900598FFF726FE0090FFE79D
:1037D8000298049906900791069800F0A5F90799B0
:1037E80000F01FF9FFE708B080BD81B0002000900D
:1037F800009801B0704784B00A46034602900391CE
:1038080003980299086002980192009304B07047E7
:1038180081B000200090009801B0704784B00A463B
:103828000346029003910398029908600298019256
:10383800009304B0704781B000200090009801B058
:10384800704784B00A460346029003910398029990
:10385800086002980192009304B0704781B000207C
:103868000090009801B0704784B00A460346029061
:10387800039103980299086002980192009304B09A
:103888007047C2B042B0704786B00A4603460290FD
:103898000391029803990490059105980192009369
:1038A80006B0704780B590B00A46034609900A9161
:1038B80009980A990892079300F03CF80D90FFE7E1
:1038C8000D98FFF73DFD0690FFE7FFE700F03CF895
:1038D8000590FFE7059800280AD1FFE70D98099998
:1038E8000A9A049008461146FFF7CEFF039009E0B4
:1038F8000D9809990A9A029008461146FFF7C4FFE5
:10390800019008E00498039900F07BF90090FFE724
:1039180000980E9006E002980199FFF7EFFC0E90D0
:10392800FFE7FFE70D980E990B900C910B980C99F7
:1039380010B080BD84B00A460346029003910298F5
:103948000192009304B0704782B001200190019861
:103958000090FFE7009802B0704782B001460190DE
:1039680001980068009102B0704781B00020009073
:10397800009801B0704784B00A460346029003914C
:1039880003980299086002980192009304B0704766
:1039980081B004200090009801B0704784B00A46B6
:1039A80003460290039103980299086002980192D5
:1039B800009304B07047D4D400487047008000409A
:1039C80080B584B0014603900291FFF7F5FF01909E
:1039D800FFE7019804B080BD052000077047D4D4E4
:1039E800C2B007480078C007002804D0FFE70548A0
:1039F80000F034F9FEDE02480121017042B0704740
:103A080000000020C448000084B0014602900298DB
:103A180000680390039801910090FFE7009804B0B4
:103A2800704784B00A4603460290039102980399AE
:103A3800016001920093FFE704B070478BB0014624
:103A48000490069805900391FFE7049805A9099149
:103A580009990A910A9902900191FFE70298016871
:103A6800019A1160FFE70598079007980890089851
:103A78000090FFE700980BB07047D4D480B584B0AD
:103A8800014603900398064A0291114600F00AF88D
:103A98000190FFE7012001990140084604B080BD6C
:103AA800DC48000092B00A46034606900791069843
:103AB800007800210F910E900F980E9905920493AB
:103AC80003900291FFE7029809900799097800226C
:103AD800119210911199109A01910092FFE70098A4
:103AE8000A9009990A9A914204D1FFE70BA801218B
:103AF800017003E00BA800210170FFE70BA8007814
:103B0800C007002808D0FFE7069807990C900D9188
:103B180008A80121017003E008A800210170FFE74F
:103B280008A8007812B0704782B001460190019849
:103B3800009102B0704772B6704762B67047EFF3F3
:103B48001080704782B002B0704784B00A460346BE
:103B58000290039102980399016001920093FFE794
:103B680004B0704786B00A46034603900491039850
:103B780004998900401805900598029201930090D5
:103B8800FFE7009806B0704786B00A4603460390E0
:103B980004910398049989004018059005980292A9
:103BA80001930090FFE7009806B070478BB001467C
:103BB8000490069805900391FFE7049805A90991D8
:103BC80009990A910A9902900191FFE70298016800
:103BD800019A1160FFE705980790079808900898E0
:103BE8000090FFE700980BB0704784B00A46034680
:103BF800029003910298039901600192009304B026
:103C0800704780B586B00A4603460490059104982B
:103C180005990392029300F005F80190FFE70198D7
:103C280006B080BD86B00A46034603900491039807
:103C38000499401805900598029201930090FFE7B7
:103C4800009806B070470020704770470148024945
:103C58007047C0460E3A0F76DFBC902D8CB018C85E
:103C680008380546083526CD406907940693002391
:103C78000593084C0494039302930123019306AB24
:103C880000930B9008A826C0684608A900F024F8FD
:103C9800FEDEC046E04800008CB003460192009169
:103CA8000A480B9069460A91099001A808900220D9
:103CB800079008A9069105900549049103900548C5
:103CC800029002A8194600F007F8FEDE61400000E5
:103CD800004900006C49000088B01CC909680791B8
:103CE80003A91DC1034802900348019001A800F0F0
:103CF8002DFAFEDE48490000E0480000F0B58DB01E
:103D0800044606930592112000040790139D00298C
:103D1800039506D02068C10707D02B2107916D1C99
:103D280003E02D2007906D1C206808AE002131703B
:103D3800460711D508AE01273770002B0AD000219D
:103D48001E461778BF09022F00D1491C761E521C47
:103D5800002EF6D1EA18551A1299029105A90B916D
:103D680008A90A9107A90991A168012914D1E6684F
:103D7800AE4211D9000720D43020215C032900D19C
:103D88000121701B0490032631400020002935D002
:103D980002292DD0002233E009A8214600F001F9BC
:103DA800002802D001200DB0F0BDA069E169CB6800
:103DB8000299039A98470DB0F0BD30200127275487
:103DC800606009A8214600F0ECF80028EAD12046F6
:103DD80030300078032800D00746701B0490032673
:103DE80037400020002F37D0022F2FD0002235E097
:103DF800049A5108521C5208049101E0049A049054
:103E08000C9060687F28009203D80CA908700126DE
:103E18004BE0C10A0AD13F21014080310CAA517000
:103E28004005C00EC030107002263EE0010C2BD1B8
:103E38003F21014080310CAA91700105890E803123
:103E480051700004000FE03010702EE0049A510801
:103E5800521C5208049101E0049A04900C90606886
:103E68007F28009203D80CA9087001266FE0C10AC8
:103E780049D13F21014080310CAA51704005C00E44
:103E8800C0301070022662E03F21014080310CAA48
:103E9800D170810CF03111700105890E803191705B
:103EA8008003800E80305070042600200190C543A6
:103EB8002F467F1C0498874208D2A069E169CB6825
:103EC8000CA9324698470028F3D06BE709A8214689
:103ED80000F067F8002800D064E7A069E169CB68C2
:103EE8000299039A9847002800D05BE7009F6D1C51
:103EF800BD4218D2A069E169CB680CA9324698473F
:103F08000028F4D04EE7010C10D13F210140803148
:103F18000CAA91700105890E803151700004000FC0
:103F2800E030107013E001980DB0F0BD3F21014062
:103F380080310CAAD170810CF03111700105890E05
:103F4800803191708003800E8030507004260020EC
:103F58000190C5432F467F1C0498874208D2A06968
:103F6800E169CB680CA9324698470028F3D019E7D5
:103F7800A069E169CB680299039A9847002800D0A4
:103F880010E7009F6D1CBD4208D2A069E169CB68AB
:103F98000CA9324698470028F4D003E701980DB0E1
:103FA800F0BD70B582B00D46044600680268112065
:103FB8000004824240D0A869E969002301937F2A5E
:103FC80003D801AB1A7001222EE0D30A0AD13F238D
:103FD8001340803301AE73705205D20EC032327076
:103FE800022221E0130C0ED13F231340803301AE8F
:103FF800B37013059B0E803373701204120FE032F6
:104008003270032210E03F231340803301AEF37077
:10401800930CF033337013059B0E8033B370920307
:10402800920E803272700422CB6801A9984700284A
:1040380002D0012002B070BD60680078002807D067
:10404800A869E969CB68A26806CA984702B070BD3A
:10405800002002B070BDD4D4F0B591B003910768C8
:10406800354EB7422FD90120C04327244000049081
:104078003D462846314900F0B8F80690711C414386
:10408800681A05906426314600F0AFF807A90919A7
:1040980042002B4B9B5C049FCB55C919284B9A189F
:1040A80052784A7046430598801B234E069F40006D
:1040B8001A5C8A7018184078C870241F21488542F5
:1040C8003D46D6D800E027242646642F1FDBB8B229
:1040D8006424214600F089F84443391B89B2490019
:1040E800174A535C3546B51E07AC6355631951181A
:1040F8004978597009280EDD4200114B985CA91EB9
:1041080007AC605460189A185278427008E0384634
:1041180035460928F0DC691E303007AA505450187B
:104128002722511A6A4603C20121074A002303982D
:10413800FFF7E4FD11B0F0BD0F27000010270000C5
:104148007C490000FFE0F505E048000084B0014626
:1041580002900191FFE703A804210170039800F081
:1041680003F8FFE7F7E7D4D484B0014602AA107039
:1041780010780428019100900FD8009878440079AD
:104188004000874406030204050007E006E005E056
:1041980004E00348FFF762FDFEDEFEDE04B0704770
:1041A800904A0000002A05D00B780370491C401C77
:1041B800521EF9D1704770B55143050C140C2E46A8
:1041C800664371184343C91892B2554380B24243BB
:1041D800130C5B191D0C49199BB260431818030C8A
:1041E800C918000492B2801870BDF0B581B00029DA
:1041F8003AD004460020002C34D00D462027002950
:104208003E46009004D0284600F030F80646009854
:10421800002C04D0204600F029F807460098F11B2E
:104228001F291FD802D1204601B0F0BD701CC01B49
:104238004B1C1F2633402246DA40711A31408C400D
:104248000021E30F5200D218D3435B19DB171E4637
:104258002E40921B64000C4301211940401EF0D1EE
:104268006000081801B0F0BDFEDEFEDE030C23D0AE
:104278001023D840FF231B020022184223D0082312
:104288000021D840F0238918034223D0EC3B0022B8
:10429800D840031C88180C221A4223D0002202217D
:1042A800CB4081180122580882430220C01A031CFF
:1042B80052421340C81870470023D840FF231B02FE
:1042C80010221842DBD100230821D840F023891896
:1042D8000342DBD100230422D840031C88180C2297
:1042E8001A42DBD102220021DAE7C04600F024F8A6
:1042F800FFE70748074900F020F8FFE706480749A5
:10430800074A00F03EF8FFE7FCF72EFCFEDEC04649
:104318000000002004000020000000200000002011
:104328000C4B000082B0FFE701A80421017001983E
:1043380000F062F8FFE7F7E7704780B588B00A46F3
:1043480003460690079105920493FFE7069807999C
:10435800884202D3FFE708B080BD0698039000F0BA
:1043680041F80290FFE703980299FFF7EEFBFFE799
:1043780006980121FFF7F6FB0190FFE701980690E8
:10438800E4E7B0B58AB013460C4605460790089195
:104398000992069305940495FFE7079808998842BF
:1043A80002D3FFE70AB0B0BD079809990390084601
:1043B800FFF7FCFB0290FFE703980299FFF715FC53
:1043C800FFE707980121FFF7CDFB0190FFE7019870
:1043D800079009980121FFF7D7FB0090FFE70098A5
:1043E8000990DAE782B00020019001980090FFE779
:1043F800009802B07047D4D484B0014602AA107065
:1044080010780428019100900FD80098784400791A
:104418004000874406030204050007E006E005E0C3
:1044280004E00348FFF71AFCFEDEFEDE04B0704726
:10443800F44A0000EFF30880FFE784B001460290D9
:104448000191FFE703A8042101700398FFF7D4FF47
:04445800FFE7F7E79C
:104460006578706C696369742070616E69637372DA
:10447000632F62696E2F6C6564732E727300000087
:10448000604400000E0000006E4400000F000000B9
:1044900036000000050000000000000000000000E1
:1044A0002F686F6D652F6D696B65682F2E63617264
:1044B000676F2F72656769737472792F7372632FD8
:1044C0006769746875622E636F6D2D31656363363D
:1044D00032393964623965633832332F6D696372FA
:1044E0006F6269742D302E372E302F7372632F6CEC
:1044F00065642E72730000000000000000000000E0
:10450000617474656D707420746F20646976696479
:1045100065206279207A65726F000000000000005B
:104520000000000001000000030000000000000087
:104530000100000001000000040000000000000075
:104540000200000002000000030000000200000062
:10455000040000000200000005000000020000004E
:10456000060000000200000007000000010000003B
:104570000100000000000000080000000100000031
:10458000020000000200000008000000010000001E
:104590000000000000000000070000000000000014
:1045A0000600000000000000050000000000000000
:1045B00004000000000000000300000002000000F2
:1045C00002000000010000000600000002000000E0
:1045D00000000000010000000500000002000000D3
:1045E00001000000A0440000550000005A00000037
:1045F00011000000000000000000000000000000AA
:10460000617474656D707420746F206D756C74695D
:10461000706C792077697468206F766572666C6F4C
:10462000770000000046000021000000A0440000C8
:104630005500000069000000230000000045000054
:1046400019000000A04400005500000069000000AF
:104650001500000000000000000000000000000045
:104660002F72757374632F39666461376332323326
:1046700037646239313065343164366137313265DF
:104680003961323133396233353265353538622F2D
:104690007372632F6C6962636F72652F736C6963E9
:1046A000652F6D6F642E7273000000000000000023
:1046B000617474656D707420746F206469766964C8
:1046C00065206279207A65726F000000B0460000B4
:1046D000190000006046000048000000D90A0000F0
:1046E0000D000000000000000000000000000000BD
:1046F0002F686F6D652F6D696B65682F2E63617212
:10470000676F2F72656769737472792F7372632F85
:104710006769746875622E636F6D2D3165636336EA
:1047200032393964623965633832332F6E726635D7
:10473000312D68616C2D302E362E312F7372632F20
:104740006770696F2E7273000000000000000000A7
:10475000617474656D707420746F20736869667419
:10476000206C6566742077697468206F7665726660
:104770006C6F77005047000023000000F0460000F7
:104780005700000064000000450000005047000092
:1047900023000000F0460000570000005F0000000A
:1047A00045000000000000000000000000000000C4
:1047B0002F686F6D652F6D696B65682F2E63617251
:1047C000676F2F72656769737472792F7372632FC5
:1047D0006769746875622E636F6D2D31656363362A
:1047E00032393964623965633832332F6E72663517
:1047F000312D68616C2D302E362E312F7372632F60
:1048000064656C61792E7273000000000000000086
:10481000617474656D707420746F206D756C74694B
:10482000706C792077697468206F766572666C6F3A
:10483000770000001048000021000000B047000091
:10484000580000002200000017000000617373652B
:104850007274696F6E206661696C65643A202144E8
:1048600045564943455F5045524950484552414C91
:10487000532F686F6D652F6D696B65682F2E6361AF
:1048800072676F2F72656769737472792F737263C1
:104890002F6769746875622E636F6D2D3165636370
:1048A0003632393964623965633832332F6E726655
:1048B00035312D302E362E302F7372632F6C696296
:1048C0002E7273004C480000250000007148000063
:1048D000520000005D03000009000000000000001D
:1048E000696E646578206F7574206F6620626F75DD
:1048F0006E64733A20746865206C656E206973205D
:104900000100000000000000200000000000000086
:104910000300000000000000030000000000000091
:104920000300000001000000010000002000000062
:104930000000000003000000000000000300000071
:104940000000000003000000533C000000000000D5
:1049500001000000553C00002062757420746865F9
:1049600020696E646578206973200000E0480000CB
:1049700020000000584900001200000030303031A3
:1049800030323033303430353036303730383039FB
:1049900031303131313231333134313531363137F3
:1049A00031383139323032313232323332343235D9
:1049B00032363237323832393330333133323333BF
:1049C00033343335333633373338333934303431A5
:1049D000343234333434343534363437343834398B
:1049E0003530353135323533353435353536353783
:1049F0003538353936303631363236333634363569
:104A0000363636373638363937303731373237334E
:104A10003734373537363737373837393830383134
:104A2000383238333834383538363837383838391A
:104A30003930393139323933393439353936393712
:104A4000393839397468657265206973206E6F2052
:104A500073756368207468696E67206173206120D4
:104A600072656C6178656420636F6D70696C6572E6
:104A70002066656E63657372632F6C6962636F7223
:104A8000652F73796E632F61746F6D69632E727316
:104A9000444A000032000000764A00001A0000007C
:104AA0007009000018000000746865726520697361
:104AB000206E6F2073756368207468696E6720616B
:104AC0007320612072656C6178656420636F6D701E
:104AD000696C65722066656E63657372632F6C69BD
:104AE00062636F72652F73796E632F61746F6D6986
:104AF000632E7273A84A000032000000DA4A0000F8
:0C4B00001A0000007009000018000000FE
:04000003000042F5C2
:00000001FF
