:100000000040002075770000AD7700009178000077
:1000100000000000000000000000000000000000E0
:10002000000000000000000000000000AD770000AC
:100030000000000000000000AD770000AD77000078
:10004000AD770000AD770000AD770000AD77000020
:10005000AD77000000000000AD770000AD77000034
:10006000AD770000AD770000AD770000AD77000000
:10007000AD770000AD770000AD770000AD770000F0
:10008000AD770000AD770000AD770000AD770000E0
:10009000AD770000AD770000AD770000AD770000D0
:0800A000AD770000AD77000010
:1000A80080B584B00190029103920298039900F000
:1000B80034FB0090FFE7009804B080BD80B584B0A1
:1000C8000A46029003A801700078019200F0CFF967
:1000D8000090FFE7012000990140084604B080BD68
:1000E80081B0009001B0704781B0009001B07047B6
:1000F80083B00090019100980068019909688842CE
:1001080007DBFFE70098006801990968884208D072
:1001180003E002A8FF21017008E002A80121017094
:1001280003E002A800210170FFE7FFE7029803B08F
:10013800704786B0009005A80021017004AA1170CC
:100148000121017011700098411E02468A41002861
:1001580001D0FFE705E004A800210170029108E042
:10016800FEDE05A800210170009803900398029014
:10017800FFE704A80078C007002804D1FFE700982B
:10018800002807D110E004A800210170F7E70298C1
:1001980006B0704705A80078C0070028F7D0FFE729
:1001A80005A800210170F2E7F1E7D4D484B00290E9
:1001B8000298411E02468A41002801D0FFE704E068
:1001C800084806F0EBFCFEDEFEDE0298039003987A
:1001D80002990029019003D0FFE7019804B0704705
:1001E800FBE7C0460079000082B00020019001982A
:1001F80002B0704780B584B002900298FFF799FF6B
:100208000190FFE7019804B080BD10B586B0089C46
:1002180000910192029303940099019A0023059397
:1002280004930493029B039C016042600499059A1D
:100238008160C2600361446106B010BD80B582B0C0
:1002480001F009FE0090FFE70120009901400846EF
:1002580002B080BD83B0019001980290029800908E
:10026800FFE7009803B0704784B0014601AA1070F8
:100278001078C007002802D0FFE706E0FEDE01A8DC
:100288000078C007002807D008E00548054B2B2157
:1002980003AA06F0E9FCFEDE04B07047FCE7C0469E
:1002A800187900004479000080B584B002900A48AB
:1002B8000078C007002803D1FFE705F0E9FE03E056
:1002C80003A80021017003E003A801210170FFE7E2
:1002D80003A8007804B080BD0000002080B506F0B7
:1002E8008AF8FFE780BD80B506F083F8FFE780BD98
:1002F80080B58AB001900291039209A8002101708B
:1003080008AA1170012101701170039801A90691C2
:1003180002A907910699079A00F02EF805A9087016
:10032800FFE705A8007840B2401C022807D3FFE782
:1003380009A8002101700198049006E0FEDE08A8D3
:100348000021017002980490FFE708A80078C00710
:10035800002809D1FFE709A80078C007002807D1BD
:10036800FFE704980AB080BD08A800210170F2E7F1
:1003780009A800210170F4E780B584B001900291CA
:10038800039201980299039AFFF78AFE0090FFE70B
:10039800009804B080BD80B588B0039004910592A0
:1003A8000398002106910790049A059B06980799DF
:1003B80000F007F802900191FFE70298019908B050
:1003C80080BD80B588B00490059106920793069881
:1003D800079904F0C9FB0390FFE70499039805F017
:1003E80095FE0290FFE705980499411A029804F0D7
:1003F8007DFB01900091FFE70198009908B080BD4E
:1004080080B58AB00190029101A801F0EBFB009041
:10041800FFE70098FFF7EEFE0690FFE706984142D7
:1004280002464A4100280FD1FFE700E0FEDE05F052
:10043800DDFF02E004980AB080BDFFF7D5FE049006
:10044800FFE7FFE7FFE7F5E70698089008980590AB
:100458000698002803D109E009980490EAE7019872
:100468000299059A01F065FB0990F5E7F7E783B073
:1004780001466A46107002A801220270FFE702A82E
:10048800007803B0704782B002B0704780B584B07E
:1004980001900291039202980399019AFFF728FFAD
:1004A8000090FFE7009804B080BD80B586B000904A
:1004B80000F09EFC0290FFE702A80390039800F06A
:1004C800F3FFFFE70098029904900591049805F05E
:1004D800A9FF059906F005F8FFE706B080BD80B5CD
:1004E80086B0009000F084FC0290FFE702A8039019
:1004F800039801F04FF9FFE70098029904900591DD
:10050800049805F08FFF059905F0EBFFFFE706B0AB
:1005180080BD80B586B0009000F06AFC0290FFE7CD
:1005280002A80390039801F055F8FFE70098029994
:1005380004900591049805F075FF059905F0D1FF21
:10054800FFE706B080BD80B586B0009000F050FC93
:100558000290FFE702A80390039801F0FDF9FFE776
:100568000098029904900591049805F05BFF05999D
:1005780005F0B7FFFFE706B080BD80B586B00090F4
:1005880000F036FC0290FFE702A80390039801F000
:10059800B7F8FFE70098029904900591049805F0D0
:1005A80041FF059905F09DFFFFE706B080BD80B5C6
:1005B80086B0009000F01CFC0290FFE702A80390B0
:1005C800039800F0DBFEFFE700980299049005917C
:1005D800049805F027FF059905F083FFFFE706B0AB
:1005E80080BD80B586B0009000F002FC0290FFE765
:1005F80002A80390039801F037F8FFE700980299E2
:1006080004900591049805F00DFF059905F069FF20
:10061800FFE706B080BD80B586B0009000F0E8FB2B
:100628000290FFE702A80390039801F049F9FFE759
:100638000098029904900591049805F0F3FE059935
:1006480005F04FFFFFE706B080BD80B586B000908B
:1006580000F0CEFB0290FFE702A80390039800F099
:100668006DFFFFE70098029904900591049805F042
:10067800D9FE059905F035FFFFE706B080BD80B5C6
:1006880086B0009000F0B4FB0290FFE702A8039048
:10069800039800F0BDFEFFE70098029904900591C9
:1006A800049805F0BFFE059905F01BFFFFE706B0AB
:1006B80080BD80B586B0009000F09AFB0290FFE7FD
:1006C80002A80390039800F00DFEFFE70098029936
:1006D80004900591049805F0A5FE059905F001FF21
:1006E800FFE706B080BD80B586B0009000F080FBC3
:1006F8000290FFE702A80390039801F097F8FFE73C
:100708000098029904900591049805F08BFE0599CC
:1007180005F0E7FEFFE706B080BD80B584B0029023
:1007280003910298006803990968FFF7E1FC0190BA
:10073800FFE7019804B080BD82B000900191009855
:10074800019902B0704780B584B002900391029875
:10075800039900F005F80190FFE7019804B080BD07
:1007680084B0019002910198029989004018039081
:1007780003980090FFE7009804B0704770B5C2B0C6
:10078800259026912792259828902898802808D384
:1007980003E02AA80121017009E02AA800210170BC
:1007A80005E02698279904F038FA249005E02AA84D
:1007B8000078C00700280AD104E02498C10700295E
:1007C800E7D0EAE72898C00A00281AD015E0289848
:1007D8002699279A00232390084611461A4601F0C5
:1007E80032F92290FFE72398229908700122299272
:1007F80039E12BA80121017009E02BA80021017023
:1008080005E02698279904F0B5F9219005E02BA872
:100818000078C007002809D103E021980128E8D80A
:10082800EBE728A84088002830D02BE0289840051E
:10083800C00E2699279A00232090084611461A468A
:1008480001F001F91F90FFE7C020209901431F988C
:10085800017028993F2211402698279A01231E915A
:1008680011461A4601F0EFF81D90FFE780201E9907
:1008780001431D98017002212991F3E02CA8012160
:10088800017009E02CA80021017005E0269827993D
:1008980004F070F91C9005E02CA80078C007002827
:1008A8000AD103E01C980228E8D8EBE72698279994
:1008B80004F060F91B9039E028980004000F26998D
:1008C800279A00231A90084611461A4601F0BBF8E9
:1008D8001990FFE7E0201A990143199801702899A7
:1008E8000905890E2698279A0123189111461A4658
:1008F80001F0A9F81790FFE780201899014317988D
:10090800017028993F2211402698279A02231691B0
:1009180011461A4601F097F81590FFE780201699BE
:10092800014315980170032129919AE01B98032827
:1009380005D8FFE72898FFF78DFC14904BE028981E
:10094800C002400F2699279A0023139008461146A3
:100958001A4601F078F81290FFE7F0201399014346
:100968001298017028998903890E2698279A0123DD
:10097800119111461A4601F066F81090FFE78020A1
:10098800119901431098017028990905890E269834
:10099800279A02230F9111461A4601F054F80E9037
:1009A800FFE780200F9901430E98017028993F2294
:1009B80011402698279A03230D9111461A4601F0F3
:1009C80042F80C90FFE780200D9901430C980170C4
:1009D8000421299145E0149800F062F83C90FFE763
:1009E8002698279904F0C6F83D90FFE73CA839906F
:1009F80028A83A903DA83B9039983E903A983F9065
:100A08003B9840903E98224905F0C0FE0B900A9111
:100A1800FFE73F981F4906F065F809900891FFE73E
:100A280040981B4905F0B2FE07900691FFE70B9826
:100A380033900A993491099A3592089B3693079C0A
:100A48003794069D38950326009613492DA833AB95
:100A58003246FFF7DAFBFFE710492DA806F0D8F871
:100A6800FEDEFFE7FFE726982799299A4192419AE7
:100A780000F0D8FF05900491FFE705980499FFF767
:100A88005BFE03900291FFE70398029942B070BDA4
:100A9800DD7400008D73000090790000C4790000B7
:100AA80083B00090009802900298802805D3FFE751
:100AB8000298C00A002808D002E0012001900FE047
:100AC80002A84088002806D002E00220019006E033
:100AD8000420019002E003200190FFE7FFE7FFE711
:100AE800019803B07047D4D4F4B0012020900220BC
:100AF800219003202290042023900520249020A9EF
:100B08001F9008461F9900F0B7FF1E901D91FFE740
:100B18001E981D9900F065FF1C90FFE71C98FFF7D1
:100B280045FB2590FFE7FFF789FB26A90870FFE73B
:100B380026A80078C007002804D1FFE79B4806F0E4
:100B48002DF8FEDE03F0CEFFFFE702F0A7FCFFE77B
:100B580002F095FD29A90870FFE702F0E9FCFFE71C
:100B680002F032FD2AA90870FFE72A9929982CAAD1
:100B78000A2313702C9A04F069FF1B901A91FFE75F
:100B88001B981A9905F053F8FFE700200090884950
:100B98002DA801220423FFF738FBFFE72BA82DA976
:100BA80001F08CF81990FFE70120199901400846D7
:100BB800FFF75AFBFFE704F0DEFDFFE700F080FBDC
:100BC800FFE700F0C7FBFFE700F010FCFFE700F0CD
:100BD80057FCFFE700F0A0FCFFE700F0E7FCFFE7A9
:100BE80000F030FDFFE700F077FDFFE700F0C0FD03
:100BF800FFE700F007FEFFE700F050FEFFE700F018
:100C080097FEFFE740A801F04CF9FFE74BA8012148
:100C18000170002242708170C27001714DAB1A7070
:100C280059709A70D9701A714FAC21706270A170A6
:100C3800E270217151AD2A706970AA70E9702A7149
:100C480053AE31707270B170F27031714C9F189060
:100C580044A80771189F3F781790189840780002A9
:100C6800C019189FBF7816901898C0780002C0194C
:100C78000004169FC01944901798401D0527159128
:100C8800194614923A46139412951196109706F045
:100C980072FC17990A310F9008461399109A06F0BA
:100CA8006AFC17990F310E9008461299109A06F0AF
:100CB80062FC179914310D9008461199109A06F0A4
:100CC8005AFC5CA9149A0A70159B4B708A70CB70F9
:100CD8000A715EAC23706270A370E270237160AD1C
:100CE8002A706B70AA70EB702A7162AE33707270E2
:100CF800B370F270337164AF3A707B70BA70FB7086
:100D08003A715D9A55AB1A710A780C9048780002CE
:100D180080188A78C9780902891809040818559032
:100D2800581D2146109A0B950A960997089306F0C4
:100D380022FC08990A31079008460B99109A06F088
:100D48001AFC08990F31069008460A99109A06F07D
:100D580012FC08991431059008460999109A06F072
:100D68000AFCFFE766A844A91922049006F003FCD0
:100D78007D21CB0040A933AA039008461146049A66
:100D880001F010FAFFE76DA855A91922029006F0A4
:100D9800F2FB7D21CB0040A933AA019008461146F9
:100DA800029A01F0FFF9FFE7DCE7C046F47900009A
:100DB800247A000080B584B005F01FFB0390FFE79C
:100DC80003980190FFE70120019901400091FFE796
:100DD8000098012804D0FFE702A80021017003E071
:100DE80002A801210170FFE702A8007804B080BDC5
:100DF80081B002200090009801B0704782B0009046
:100E080000980190019802B0704782B00090009855
:100E18000190019802B0704782B00090009801904C
:100E2800019802B0704782B0009000980190019834
:100E380002B0704782B0009000980190019802B00B
:100E4800704782B0009000980078C007002805D04D
:100E5800FFE701A80121017004E0FEDE01A80021DE
:100E68000170FFE701A8007802B0704783B00190D5
:100E7800019800780028009009D0FFE70098012821
:100E880009D0FFE702A80321017008E0FEDE02A8EE
:100E98000021017003E002A801210170FFE7029818
:100EA80003B0704783B00A46019002A80170FFE7BB
:100EB8000198016801229143016002A8007800901E
:100EC800FFE701980168009A11430160019803B097
:100ED800704780B584B00290029803A901220A7075
:100EE800097800F005F80190FFE7019804B080BD8B
:100EF80080B586B00A46049005A80170049903924B
:100F08000291FFF79EFF0190FFE701200199014040
:100F18000298FFF7C7FF0090FFE7009806B080BD72
:100F280083B0019001980078009000987844007987
:100F380040008744080C1014181C200302A807213D
:100F480001701CE0FEDE02A80021017017E002A873
:100F58000121017013E002A8022101700FE002A82C
:100F6800032101700BE002A80421017007E002A828
:100F78000521017003E002A806210170FFE702982D
:100F880003B0704782B0009000980078C00700282E
:100F980005D0FFE701A80121017004E0FEDE01A8E9
:100FA80000210170FFE701A8007802B0704783B004
:100FB8000190019800780028009009D0FFE7009878
:100FC800012809D0FFE702A80321017008E0FEDE2E
:100FD80002A80021017003E002A802210170FFE7C6
:100FE800029803B0704783B00A46019002A80170C6
:100FF800FFE7019801680C229143016002A800787C
:101008008007000F0090FFE701980168009A1143DC
:101018000160019803B0704780B586B00A46049015
:1010280005A80170049903920291FFF71FFF019030
:10103800FFE702980199FFF7D6FF0090FFE70098B5
:1010480006B080BD80B584B00290029803A9002242
:101058000A700399FFF7E0FF0190FFE7019804B0D9
:1010680080BD83B00A46019002A80170FFE701988D
:101078000168072212029143016002A80078400724
:10108800400D0090FFE701980168009A1143016044
:10109800019803B0704780B584B00290029803A904
:1010A80000220A70039900F005F80190FFE7019803
:1010B80004B080BD80B586B00A46049005A80170CA
:1010C800049903920291FFF72BFF0190FFE7029822
:1010D8000199FFF7C6FF0090FFE7009806B080BDB2
:1010E80080B584B00290029803A901220A70097899
:1010F80000F01DF80190FFE7019804B080BD83B0AF
:101108000A46019002A80170FFE7019801680222CF
:101118009143016002A8007840000090FFE7019821
:101128000168009A11430160019803B0704780B5C7
:1011380086B00A46049005A80170049903920291AA
:10114800FFF720FF0190FFE7012001990140029875
:10115800FFF7D5FF0090FFE7009806B080BD83B089
:101168000A46019002A80170FFE70198016803226E
:1011780012049143016002A800788007800B009058
:10118800FFE701980168009A11430160019803B0D4
:10119800704780B586B00A46049005A80170049986
:1011A80003920291FFF703FF0190FFE7029801996C
:1011B800FFF7D5FF0090FFE7009806B080BD80B527
:1011C80084B00290029803A900220A700399FFF7DD
:1011D800E0FF0190FFE7019804B080BD80B586B0BC
:1011E80081680491416803910068029005A8002174
:1011F8000170017802A800F03FF80190FFE7012094
:1012080001990140084606B080BD83B00091019263
:1012180002930099019A029B01604260836003B0C7
:10122800704783B0009000980290029803B070470E
:1012380080B58AB00B46059006A8017007920598FC
:101248000699079A0992099A049003911146029304
:1012580000F0B5FDFFE701200399014008A80170DF
:1012680001780498FEF72AFF0190FFE70120019911
:10127800014008460AB080BD10B58AB00A4608ABDE
:10128800197001684368089C806807920691059365
:101298000494FFF7C6FF0390FFE70120049901407B
:1012A8000698059A02911146029A039B00F068FC81
:1012B8000190FFE701200199014008460AB010BDDE
:1012C80080B586B004F0E0FE0390FFE7FFE70398DF
:1012D80071210901401802900298FFF7EAF9FFE727
:1012E80006B080BD80B58CB00B900B98FFF786FDDB
:1012F8000990FFE70998FFF7ECFD0890FFE70898C9
:10130800FFF78AFD0790FFE70798FFF7C4FE0690EE
:10131800FFE70698FFF779FD0590FFE70598FFF7C7
:1013280091FE0490FFE70498FFF784FD0390FFE720
:101338000398FFF744FF0290FFE70298FFF773FD59
:101348000190FFE70198FFF7CBFE0090FFE70098B8
:101358000CB080BD80B586B004F096FE0390FFE720
:10136800FFE703980449401802900298FFF71FF915
:10137800FFE706B080BDC0461407000080B58CB0FA
:101388000B900B98FFF73AFD0990FFE70998FFF7D4
:10139800A0FD0890FFE70898FFF73EFD0790FFE7DC
:1013A8000798FFF778FE0690FFE70698FFF72DFDF0
:1013B8000590FFE70598FFF745FE0490FFE70498BE
:1013C800FFF738FD0390FFE70398FFF7F8FE029058
:1013D800FFE70298FFF727FD0190FFE70198FFF765
:1013E8007FFE0090FFE700980CB080BD80B586B006
:1013F80004F04AFE0390FFE7FFE70398E321C900E2
:10140800401802900298FFF73AF9FFE706B080BD4E
:1014180080B58CB00B900B98FFF7F0FC0990FFE7B4
:101428000998FFF756FD0890FFE70898FFF7F4FCC6
:101438000790FFE70798FFF72EFE0690FFE706984C
:10144800FFF7E3FC0590FFE70598FFF7FBFD049025
:10145800FFE70498FFF7EEFC0390FFE70398FFF718
:10146800AEFE0290FFE70298FFF7DDFC0190FFE770
:101478000198FFF735FE0090FFE700980CB080BD9B
:1014880080B586B004F000FE0390FFE7FFE70398FD
:101498000449401802900298FFF707F8FFE706B0E2
:1014A80080BDC0461C07000080B58CB00B900B981F
:1014B800FFF7A4FC0990FFE70998FFF70AFD0890D9
:1014C800FFE70898FFF7A8FC0790FFE70798FFF7E2
:1014D800E2FD0690FFE70698FFF797FC0590FFE707
:1014E8000598FFF7AFFD0490FFE70498FFF7A2FC0B
:1014F8000390FFE70398FFF762FE0290FFE7029868
:10150800FFF791FC0190FFE70198FFF7E9FD0090D4
:10151800FFE700980CB080BD80B586B004F0B4FD3C
:101528000390FFE7FFE7039839214901401802902B
:101538000298FFF78AF8FFE706B080BD80B58CB047
:101548000B900B98FFF75AFC0990FFE70998FFF7F3
:10155800C0FC0890FFE70898FFF75EFC0790FFE7DC
:101568000798FFF798FD0690FFE70698FFF74DFCF0
:101578000590FFE70598FFF765FD0490FFE70498DD
:10158800FFF758FC0390FFE70398FFF718FE029057
:10159800FFE70298FFF747FC0190FFE70198FFF784
:1015A8009FFD0090FFE700980CB080BD80B586B025
:1015B80004F06AFD0390FFE7FFE703980449401829
:1015C80002900298FEF7A5FFFFE706B080BDC0466F
:1015D8002407000080B58CB00B900B98FFF70EFC29
:1015E8000990FFE70998FFF774FC0890FFE708984F
:1015F800FFF712FC0790FFE70798FFF74CFD0690EE
:10160800FFE70698FFF701FC0590FFE70598FFF74D
:1016180019FD0490FFE70498FFF70CFC0390FFE71F
:101628000398FFF7CCFD0290FFE70298FFF7FBFB5A
:101638000190FFE70198FFF753FD0090FFE700983E
:101648000CB080BD80B586B004F01EFD0390FFE7A6
:10165800FFE70398E521C900401802900298FEF7B9
:10166800C0FFFFE706B080BD80B58CB00B900B982B
:10167800FFF7C4FB0990FFE70998FFF72AFC0890D9
:10168800FFE70898FFF7C8FB0790FFE70798FFF701
:1016980002FD0690FFE70698FFF7B7FB0590FFE706
:1016A8000598FFF7CFFC0490FFE70498FFF7C2FB0B
:1016B8000390FFE70398FFF782FD0290FFE7029887
:1016C800FFF7B1FB0190FFE70198FFF709FD0090D4
:1016D800FFE700980CB080BD80B586B004F0D4FC5C
:1016E8000390FFE7FFE70398044940180290029827
:1016F800FEF743FFFFE706B080BDC0462C07000099
:1017080080B58CB00B900B98FFF778FB0990FFE73A
:101718000998FFF7DEFB0890FFE70898FFF77CFBC6
:101728000790FFE70798FFF7B6FC0690FFE70698D3
:10173800FFF76BFB0590FFE70598FFF783FC049024
:10174800FFE70498FFF776FB0390FFE70398FFF79E
:1017580036FD0290FFE70298FFF765FB0190FFE76F
:101768000198FFF7BDFC0090FFE700980CB080BD22
:1017780080B586B004F088FC0390FFE7FFE7039884
:1017880073210901401802900298FEF7A8FEFFE7AE
:1017980006B080BD80B58CB00B900B98FFF72EFB80
:1017A8000990FFE70998FFF794FB0890FFE708986E
:1017B800FFF732FB0790FFE70798FFF76CFC0690EE
:1017C800FFE70698FFF721FB0590FFE70598FFF76D
:1017D80039FC0490FFE70498FFF72CFB0390FFE720
:1017E8000398FFF7ECFC0290FFE70298FFF71BFB5A
:1017F8000190FFE70198FFF773FC0090FFE700985E
:101808000CB080BD80B586B004F03EFC0390FFE7C5
:10181800FFE703980449401802900298FEF763FF17
:10182800FFE706B080BDC0463407000080B58CB025
:101838000B900B98FFF7E2FA0990FFE70998FFF77A
:1018480048FB0890FFE70898FFF7E6FA0790FFE7DC
:101858000798FFF720FC0690FFE70698FFF7D5FAF0
:101868000590FFE70598FFF7EDFB0490FFE7049864
:10187800FFF7E0FA0390FFE70398FFF7A0FC029058
:10188800FFE70298FFF7CFFA0190FFE70198FFF70B
:1018980027FC0090FFE700980CB080BD80B586B0AB
:1018A80004F0F2FB0390FFE7FFE70398E721C90084
:1018B800401802900298FEF7AEFEFFE706B080BD22
:1018C80080B58CB00B900B98FFF798FA0990FFE75A
:1018D8000998FFF7FEFA0890FFE70898FFF79CFAC7
:1018E8000790FFE70798FFF7D6FB0690FFE70698F3
:1018F800FFF78BFA0590FFE70598FFF7A3FB049025
:10190800FFE70498FFF796FA0390FFE70398FFF7BD
:1019180056FC0290FFE70298FFF785FA0190FFE76F
:101928000198FFF7DDFB0090FFE700980CB080BD41
:1019380080B586B004F0A8FB0390FFE7FFE70398A3
:101948000449401802900298FEF7FDFDFFE706B033
:1019580080BDC0463C07000080B58CB00B900B984A
:10196800FFF74CFA0990FFE70998FFF7B2FA0890D9
:10197800FFE70898FFF750FA0790FFE70798FFF787
:101988008AFB0690FFE70698FFF73FFA0590FFE706
:101998000598FFF757FB0490FFE70498FFF74AFA0A
:1019A8000390FFE70398FFF70AFC0290FFE702980D
:1019B800FFF739FA0190FFE70198FFF791FB0090D4
:1019C800FFE700980CB080BD80B584B00191029209
:1019D80003930199029A039BFFF717FCFFE704B0F2
:1019E80080BD80B584B0029003910298039900F0FD
:1019F80005F80190FFE7019804B080BD80B586B076
:101A0800039004910398049902900191FEF73BFD1D
:101A1800FFE702980199FEF7F3FC0090FFE70098B2
:101A280006B080BD80B586B00390049105920598F4
:101A38000399049AFEF7AFFC02900191FFE7029820
:101A4800019906B080BD80B584B0019002910392DF
:101A580003980199029A00F058F80090FFE700985F
:101A680004B080BD84B00090019100980199029063
:101A78000391039804B0704780B58EB00790089121
:101A88000798089900F03BF80B90FFE70B9804F0D3
:101A980082FBFFE7FFE704F01EFB0690FFE70698CE
:101AA80000280AD0FFE70B980799089A059008467E
:101AB8001146FFF7D7FF049012E00B980799089A90
:101AC800039008461146FFF7CDFF0290FFE7039801
:101AD800029904F035FB0190FFE701980C9006E0AD
:101AE80005980499FEF72FFE0C90FFE7FFE70B9887
:101AF8000C9909900A9109980A990EB080BD82B094
:101B080000900191009802B0704780B586B00390AC
:101B1800049105920498059903F026F80290FFE7CE
:101B28000399029804F0F2FA0190FFE7019806B0D1
:101B380080BD80B58CB003900491059205980790FC
:101B4800FFE703A800F04EF80890FFE70898002880
:101B580003D1FFE7079802900FE0089809900798CB
:101B680009990A900B910A990B9A06A8FEF78EFC20
:101B78000190FFE701980790E3E702980CB080BD59
:101B880010B58CB014460390049105A80270069312
:101B9800059807A90870FFE703A803F05CF8089008
:101BA800FFE70898002803D1FFE70798029013E0A1
:101BB80008980990079809990AAA10700B9111784A
:101BC8000B9A06A8FFF734FB0190FFE70120019963
:101BD800014007A80170DFE701200299014008468B
:101BE8000CB010BD80B588B002900298006804F06F
:101BF800D2FAFFE7FFE704F06EFA0190FFE70198D9
:101C0800002807D0FFE70298406804F0C4FAFFE70D
:101C1800FFE7FFE7029801684068814225D0FFE7A7
:101C2800029804900120059004F055FA00280DD080
:101C3800FFE7049800680790049800680599FEF784
:101C48008FFD04990860079806900BE00498406897
:101C58000599494204F081FA04994860049800689B
:101C68000690FFE70698009002E00020039002E04B
:101C780000980390FFE7039808B080BD80B588B04E
:101C880005900691059806990022079207AA042351
:101C98000490084611461A46FEF770FD039002911B
:101CA800FFE704980399029A00F05CF80190FFE7B7
:101CB800012001990140084608B080BDB0B58AB03E
:101CC800039004A8024638C938C238C938C207493F
:101CD80003AA02901046029A05F012F80190FFE755
:101CE80001200199014008460AB0B0BD2C7A0000D5
:101CF80080B584B002900391029800680399FFF7B9
:101D0800BDFF0190FFE7012001990140084604B09A
:101D180080BD70B588B001900198006802AA13468A
:101D280070C970C370C970C31146FFF7C7FF009030
:101D3800FFE7012000990140084608B070BD80B552
:101D480084B0019002910392019800680299039A65
:101D580000F008F80090FFE70120009901400846CC
:101D680004B080BD80B592B00590069107920698A0
:101D780007990E900F910E980F9910901191109845
:101D8800119904900391FFE70498039902F054FF16
:101D980002900191FFE705A80C900C9B09A80299F5
:101DA800019AFFF711FEFFE709A8FFF717FAFFE707
:101DB800FFE708A800210170007812B080BD80B547
:101DC80088B001900291FFE707A8002101700199EE
:101DD80009680968029A12780123037008461146B7
:101DE80003F02EFF04A90870FFE704A80078C007D5
:101DF800002816D0FFE707E007A8002101700AE0D5
:101E080007A8002101700DE000200028F4D1FFE7A9
:101E1800F6E7FEDEFEDE04A80078C00700280AD137
:101E280018E0F8E707A800210170CDE707A800210E
:101E3800017008B080BD012000280AD1FFE707A87B
:101E48000078C0070028F1D0FFE707A8002101703B
:101E5800ECE7EBE7EAE780B586B0FEF7ABFF02A94F
:101E68000870FFE7FEF73FFAFFE704F0A4FCFFE77E
:101E780005A804900498FEF717FA03A90870FFE76D
:101E880002A804F0D5FA0090FFE70098C1070029DE
:101E980003D0FFE7FEF722FAFFE703A8007806B0B1
:101EA80080BDF0B5A5B0109001F0D4FB0F90FFE70E
:101EB80001F0D7FB0E90FFE701F0DAFB0D90FFE78A
:101EC80021A80F9901700E9A42700D9B837001F042
:101ED80082FB0C90FFE701F085FB0B90FFE701F018
:101EE80088FB0A90FFE701F08BFB0990FFE701F000
:101EF8008EFB0890FFE701F091FB0790FFE701F0E8
:101F080094FB0690FFE701F097FB0590FFE701F0CF
:101F18009AFB0490FFE722A80C9901700B9A427073
:101F28000A9B8370099CC470089D0571079E4671C1
:101F3800069F87710599C1710499017202211D914B
:101F480021A98A781DAB9A7149785971219919711B
:101F5800D91D0922039008460399029305F00BFB4B
:101F680002990190084600F00CF8FFE720981099B4
:101F7800C8601F9888601E9848601D98086025B042
:101F8800F0BD80B592B005900598001D01F017FAD4
:101F980004900391FFE70498069003990791FFE7DF
:101FA80006A800F01EFC0990FFE70998411E0246AA
:101FB8008A41002801D0FFE707E00598C01D01F01D
:101FC8000CFA029001910BE0FEDE09980A900A983B
:101FD800089008980B900B9801F056F9FFE7DFE797
:101FE80002980C9001990D91FFE70CA800F0F9FBFD
:101FF8000F90FFE70F98411E02468A41002801D042
:10200800FFE702E012B080BDFEDE0F981090109836
:102018000E900E981190119801F06EF9FFE7E4E721
:1020280010B5CEB017AA002313721893179310AAED
:1020380013461B330F910E900D930C928BE057486B
:10204800052100F01BFB0B900A91FFE70A9800900E
:1020580020A80999089A0B9B00F006FAFFE71AA82E
:1020680020A901F0FEF8FFE71AA826A91CC81CC180
:102078001CC81CC1FFE726A800F0F6FC2F912E9083
:10208800FFE72E98411E02468A41002801D0FFE74B
:1020980007E010A91B220E9805F06DFA4EB010BD8E
:1020A800FEDE2E982F9930903191309831992C90EE
:1020B8002D912C9832902D9833903298052102F06A
:1020C80063FD07900691FFE7339B3AA80799069AA4
:1020D80000F00AFAFFE734A83AA901F0C8F8FFE7C8
:1020E80034A840A91CC81CC11CC81CC1FFE740A8D3
:1020F80000F0ADFC49914890FFE74898411E024620
:102108008A41002801D0FFE701E0B4E7FEDE4898E5
:1021180049994A904B914A984B99469047914698CD
:102128004C9047984D904C9800784D990968022931
:102138000590049125D8FFE74D984068082803903A
:1021480025D8FFE709200499484310AA1018059AD2
:10215800039BC254CBE70C980D998842029009D092
:10216800FFE717A90922029805F005FA0299093133
:102178000C91F0E705210F9800F0C3FA0990089137
:102188005DE707480322049904F024FDFEDE0448B5
:102198000922039904F01EFDFEDEC046CC7A000039
:1021A800947B000010B5A0B0089009910A9312A87A
:1021B8001921079006911146069A05F0DCF90BA93A
:1021C800059008460799FFF72BFFFFE7089809993C
:1021D80019AA0BAB1B2404901046039119460292CE
:1021E800224605F0C8F90A9B04990190084603990C
:1021F800029A00F003F8FFE720B010BD10B5D8B080
:1022080012901391149314981299091D0323119095
:1022180008461946109201F0F4F80F90FFE712985B
:10222800026800200F990E9008460E990E9B05F043
:10223800B9F94A1E914100290D9000D0E8E00D98A7
:10224800002800D1E8E011980D9905F0DBF9159008
:1022580015980021169117901698179901F0BDFE50
:102268000C900B91FFE70C9818900B991991FFE7C8
:1022780018A801F067FE1C911B90FFE71B98002827
:1022880001D0FFE702E058B010BDFEDE1C981D909B
:102298001D981A901298001D032101F0BCF80A90AD
:1022A8000991FFE70321109800F0A5F9089007911C
:1022B800FFE70798009024A80A99099A089B00F05C
:1022C800B3F8FFE71EA824A900F0C5FFFFE71EA882
:1022D8002AA91CC81CC11CC81CC1FFE72AA800F0F9
:1022E800DDFB33913290FFE73298411E02468A4166
:1022F800002801D0FFE701E0BAE7FEDE3298339903
:102308003490359134983599309031913098369091
:1023180031983790369800F0EFFFFFE71298C01D0C
:10232800092101F078F806900591FFE7379809210F
:1023380002F02AFC04900391FFE7039800903EA85E
:102348000699059A049B00F0AFF8FFE738A83EA964
:1023580000F093FFFFE738A844A91CC81CC11CC89B
:102368001CC1FFE744A800F08CFB4D914C90FFE79F
:102378004C98411E02468A41002801D0FFE706E03A
:1023880013981299096803F001FA17E0FEDE4C98D9
:102398004D994E904F914E984F994A904B914A982B
:1023A80050904B98519051980078002805D0FFE73D
:1023B800509800F069FFFFE7FFE7D3E71298C01DC8
:1023C80001F00BF802900191FFE7029852900199F1
:1023D8005391FFE752A800F004FA5590FFE755988B
:1023E800411E02468A41002801D0FFE704E03698E2
:1023F80000F04AFF0BE0FEDE559856905698549030
:1024080054985790579800F077FFFFE7E2E765E7A1
:10241800044804F0C3FBFEDE014804F0BFFBFEDE07
:10242800EC7B0000D47B000010B58AB00C9C0691B0
:102438000792089309940699079A089B099C0590A6
:10244800184604912146039200F0C4F902900191C4
:10245800FFE70198009005980499039A029B00F001
:10246800D8FEFFE70AB010BD10B58AB00C9C0691E3
:102478000792089309940699079A089B099C059066
:10248800184604912146039200F09DF902900191AB
:10249800FFE70198009005980499039A029B00F0C1
:1024A80096FEFFE70AB010BD10B58AB00C9C0691E5
:1024B8000792089309940699079A089B099C059026
:1024C800184604912146039200F076F90290019192
:1024D800FFE70198009005980499039A029B00F081
:1024E800A9FEFFE70AB010BD80B58AB0079108922F
:1024F80009930799089A099B069018460591049232
:1025080000F02CFA03900291FFE7029800900698D9
:102518000599049A039B00F06BFEFFE70AB080BDA3
:1025280084B000900191009801990290039103985A
:1025380004B0704784B0009001910098019902900E
:102548000391039804B0704784B0009001910098FB
:10255800019902900391039804B0704784B00090E9
:1025680001910098019902900391039804B0704773
:1025780080B58EB0079008910798089900F016F971
:102588000B90FFE70B9801F0FFFBFFE7FFE700F078
:102598003AFA0690FFE7069800280AD0FFE70B985A
:1025A8000799089A059008461146FFF7D7FF049047
:1025B80012E00B980799089A039008461146FFF70E
:1025C800CDFF0290FFE70398029903F0B9FD01904F
:1025D800FFE701980C9006E00598049901F050FB7C
:1025E8000C90FFE7FFE70B980C9909900A9109985E
:1025F8000A990EB080BD80B58EB0079008910798F3
:10260800089900F0CDF80B90FFE70B9801F0CDFB8F
:10261800FFE7FFE700F012FA0690FFE706980028A8
:102628000AD0FFE70B980799089A059008461146C3
:10263800FFF780FF049012E00B980799089A03901F
:1026480008461146FFF776FF0290FFE703980299C4
:1026580003F076FD0190FFE701980C9006E00598DD
:10266800049901F027FB0C90FFE7FFE70B980C9902
:1026780009900A9109980A990EB080BD80B58EB06C
:10268800079008910798089900F07EF80B90FFE7EB
:102698000B9801F068FBFFE7FFE700F0BDF9069033
:1026A800FFE7069800280AD0FFE70B980799089AD1
:1026B800059008461146FFF733FF049012E00B9887
:1026C8000799089A039008461146FFF729FF0290D8
:1026D800FFE70398029903F033FD0190FFE70198A3
:1026E8000C9006E00598049901F0BDFA0C90FFE7FC
:1026F800FFE70B980C9909900A9109980A990EB06E
:1027080080BD80B58EB0079008910798089900F0B1
:1027180041F80B90FFE70B9801F014FBFFE7FFE788
:1027280000F068F90690FFE7069800280AD0FFE74E
:102738000B980799089A059008461146FFF704FF79
:10274800049012E00B980799089A039008461146DE
:10275800FFF7FAFE0290FFE70398029903F0F0FCF6
:102768000190FFE701980C9006E00598049901F0A4
:1027780094FA0C90FFE7FFE70B980C9909900A91DF
:1027880009980A990EB080BD82B000900191009816
:1027980002B0704782B000900191009802B0704773
:1027A80082B000900191009802B0704782B000900A
:1027B8000191009802B0704782B000900191009892
:1027C800019902B0704782B0009001910098019978
:1027D80002B0704782B0009001910098019902B050
:1027E800704780B588B002900298006800F0D6FD66
:1027F800FFE7FFE700F019F90190FFE701980028CB
:1028080007D0FFE70298406800F0C8FDFFE7FFE740
:10281800FFE7029801684068814225D0FFE70298E7
:1028280004900120059000F000F900280DD0FFE782
:1028380004980068079004980068059900F0A1FDC5
:1028480004990860079806900BE004984068059979
:10285800494201F066FC04994860049800680690B3
:10286800FFE70698009002E00020039002E000983D
:102878000390FFE7039808B080BD80B584B002904C
:10288800039102980068039901F014FA0190FFE798
:10289800019804B080BD80B584B00290039102987D
:1028A8000068039901F0ECF90190FFE7019804B082
:1028B80080BD80B584B002900391029800680399A6
:1028C80001F0D1F90190FFE7019804B080BD80B50F
:1028D80084B00290039102980068039901F0DDF931
:1028E8000190FFE7019804B080BD80B584B00290E4
:1028F800039102980068039901F020FC0190FFE71A
:10290800019804B080BD002070470020704780B552
:1029180084B00290039102980068039900F024FDA6
:102928000190FFE7019804B080BD0020704783B094
:10293800009000980290002001900198029903B03D
:10294800704780B584B0029003910298039900F013
:1029580013F80090FFE7009804B080BD80B584B0FC
:10296800039003980521FFF703FE02900191FFE70A
:102978000298019904B080BD83B00090019100983D
:10298800006801990968884207D3FFE70098006842
:1029980001990968884208D003E002A8FF21017064
:1029A80008E002A80121017003E002A800210170DB
:1029B800FFE7FFE7029803B0704784B002900391E5
:1029C800029800680399096801220023884201934C
:1029D800009201D301980090009804B0704780B528
:1029E80082B0009001910098019901F09BF8FFE7EF
:1029F80002B080BD82B00520019001980090FFE7E9
:102A0800009802B0704782B00820019001980090A9
:102A1800FFE7009802B0704782B028200190019823
:102A28000090FFE7009802B0704782B00120019043
:102A380001980090FFE7009802B0704782B0092023
:102A4800019001980090FFE7009802B0704780B5A8
:102A580084B00390039800F03AFA02900191FFE7DE
:102A68000298019904B080BD80B584B003900398A2
:102A780000F0ADF902900191FFE70298019904B0C6
:102A880080BD80B584B00390039800F020FB0290CD
:102A98000191FFE70298019904B080BD80B584B028
:102AA8000390039800F093FA02900191FFE70298CF
:102AB800019904B080BDB0B594B0189C03910492FC
:102AC8000593069403A90891089909680A910A9937
:102AD8000D910290FFF7A9FF0B900B9800280BD0DF
:102AE800FFE7089840680A99401A0C900C980B99CF
:102AF80004F088FD099006E0089840680A9901F0FA
:102B080014FA0990FFE709980190FFE705A80E90CD
:102B18000E98006810901098139003F0E5FA119041
:102B2800119800280BD0FFE70E9840681099401ABA
:102B380012901298119904F065FD0F9006E00E9816
:102B48004068109901F0F1F90F90FFE70F99009193
:102B5800FFE70198009901F075FA0790FFE70398DD
:102B68000499059A069B079C029D28606960AA60E3
:102B7800EB60002028616C6114B0B0BDB0B594B0B2
:102B8800189C039104920593069403A90891089947
:102B980009680A910A990D91029003F0A5FA0B9021
:102BA8000B9800280BD0FFE7089840680A99401A4C
:102BB8000C900C980B9904F025FD099006E00898F4
:102BC80040680A9901F0B1F90990FFE70998019066
:102BD800FFE705A80E900E980068109010981390C3
:102BE800FFF711FF1190119800280BD0FFE70E98FE
:102BF80040681099401A12901298119904F002FD39
:102C08000F9006E00E984068109901F08EF90F9029
:102C1800FFE70F990091FFE70198009901F012FA78
:102C28000790FFE703980499059A069B079C029D65
:102C380028606960AA60EB60002028616C6114B0AC
:102C4800B0BDB0B594B0189C039104920593069456
:102C580003A90891089909680A910A990D910290A7
:102C6800FFF7E3FE0B900B9800280BD0FFE70898BE
:102C780040680A99401A0C900C980B9904F0C2FC11
:102C8800099006E0089840680A9901F04EF9099001
:102C9800FFE709980190FFE705A80E900E980068D5
:102CA800109010981390FFF7C9FE11901198002802
:102CB8000BD0FFE70E9840681099401A12901298AE
:102CC800119904F09FFC0F9006E00E984068109947
:102CD80001F02BF90F90FFE70F990091FFE701989A
:102CE800009901F0AFF90790FFE703980499059A56
:102CF800069B079C029D28606960AA60EB60002023
:102D080028616C6114B0B0BDB0B594B0189C039143
:102D180004920593069403A90891089909680A91F1
:102D28000A990D910290FFF765FE0B900B98002809
:102D38000BD0FFE7089840680A99401A0C900C9845
:102D48000B9904F05FFC099006E0089840680A991E
:102D580001F0EBF80990FFE709980190FFE705A853
:102D68000E900E980068109010981390FFF754FE7C
:102D78001190119800280BD0FFE70E984068109921
:102D8800401A12901298119904F03CFC0F9006E03A
:102D98000E984068109901F0C8F80F90FFE70F9956
:102DA8000091FFE70198009901F04CF90790FFE7BF
:102DB80003980499059A069B079C029D2860696000
:102DC800AA60EB60002028616C6114B0B0BD80B5CA
:102DD80092B00590059801694069814204D3FFE7E4
:102DE800FFF793FD04904FE0059800690890059857
:102DF8000169491C016105980899FFF768FD03906E
:102E0800FFE7059808300899FFF753FD0290FFE7A0
:102E18000398099002990A91099A0A9B06920793C6
:102E280051E00BA80121017028E00BA800210170D6
:102E380024E0059801690C900C9800680E900E9893
:102E480011900191FFF7D6FD0F900F9800280BD035
:102E5800FFE70C9840680E99401A109010980F9947
:102E680004F0D0FB0D9006E00C9840680E9901F034
:102E78005CF80D90FFE70D9800900AE00BA8007829
:102E8800C00700280FD109E00498C1070029D0D154
:102E9800CBE7019800998842C3D3C6E70020079082
:102EA800069006900EE005980169FFF710FDFFE710
:102EB800FFE705980169491C016100200790069009
:102EC8000690FFE7FFE70698079912B080BD80B526
:102ED80092B00590059801694069814204D3FFE7E3
:102EE800FFF711FD04904FE00598006908900598D8
:102EF8000169491C016105980899FFF7F6FC0390E0
:102F0800FFE7059808300899FFF7C5FC0290FFE72E
:102F18000398099002990A91099A0A9B06920793C5
:102F280051E00BA80121017028E00BA800210170D5
:102F380024E0059801690C900C9800680E900E9892
:102F48001190019103F0D0F80F900F9800280BD042
:102F5800FFE70C9840680E99401A109010980F9946
:102F680004F050FB0D9006E00C9840680E9900F0B4
:102F7800DCFF0D90FFE70D9800900AE00BA80078A1
:102F8800C00700280FD109E00498C1070029D0D153
:102F9800CBE7019800998842C3D3C6E70020079081
:102FA800069006900EE005980169FFF79EFCFFE782
:102FB800FFE705980169491C016100200790069008
:102FC8000690FFE7FFE70698079912B080BD80B525
:102FD80092B00590059801694069814204D3FFE7E2
:102FE800FFF7A3FC04904FE0059800690890059846
:102FF8000169491C016105980899FFF788FC03904D
:10300800FFE7059808300899FFF737FC0290FFE7BB
:103018000398099002990A91099A0A9B06920793C4
:1030280051E00BA80121017028E00BA800210170D4
:1030380024E0059801690C900C9800680E900E9891
:1030480011900191FFF7F1FC0F900F9800280BD019
:10305800FFE70C9840680E99401A109010980F9945
:1030680004F0D0FA0D9006E00C9840680E9900F034
:103078005CFF0D90FFE70D9800900AE00BA8007820
:10308800C00700280FD109E00498C1070029D0D152
:10309800CBE7019800998842C3D3C6E70020079080
:1030A800069006900EE005980169FFF730FCFFE7EF
:1030B800FFE705980169491C016100200790069007
:1030C8000690FFE7FFE70698079912B080BD80B524
:1030D80092B00590059801694069814204D3FFE7E1
:1030E800FFF723FC04904FE00598006908900598C5
:1030F8000169491C016105980899FFF708FC0390CC
:10310800FFE7059808300899FFF7EFFB0290FFE703
:103118000398099002990A91099A0A9B06920793C3
:1031280051E00BA80121017028E00BA800210170D3
:1031380024E0059801690C900C9800680E900E9890
:1031480011900191FFF771FC0F900F9800280BD098
:10315800FFE70C9840680E99401A109010980F9944
:1031680004F050FA0D9006E00C9840680E9900F0B3
:10317800DCFE0D90FFE70D9800900AE00BA80078A0
:10318800C00700280FD109E00498C1070029D0D151
:10319800CBE7019800998842C3D3C6E7002007907F
:1031A800069006900EE005980169FFF7B0FBFFE76F
:1031B800FFE705980169491C016100200790069006
:1031C8000690FFE7FFE70698079912B080BD10B593
:1031D80086B0089C02910392049305940299039A7D
:1031E800049B059C0094FFF78FFDFFE706B010BD18
:1031F80010B586B0089C0291039204930594029935
:10320800039A049B059C0094FFF7B8FCFFE706B0FF
:1032180010BD10B586B0089C0291039204930594E2
:103228000299039A049B059C0094FFF70AFDFFE7A7
:1032380006B010BD10B586B0089C029103920493A5
:1032480005940299039A049B059C0094FFF733FCAC
:10325800FFE706B010BD10B51CC91CC01CC91CC0B6
:1032680010BD10B51CC91CC01CC91CC010BD10B5B0
:103278001CC91CC01CC91CC010BD10B51CC91CC071
:103288001CC91CC010BDD4D480B584B0019002F014
:10329800FBFE0290FFE702980449401801A9039138
:1032A800039900F093FDFFE704B080BD0C05000012
:1032B80080B586B004900591059804990968097845
:1032C8001F220B46134001229A400906490F002984
:1032D8000390029209D1FFE70398029900F0DCF904
:1032E8000190FFE7019806B080BD024803F056FC44
:1032F800FEDEC046947C000080B584B0019002F0E8
:10330800C3FE0290FFE70298A121C900401801A955
:103318000391039900F076FDFFE704B080BDD4D493
:1033280080B586B0049005910598049909680978D4
:103338001F220B46134001229A400906490F002913
:103348000390029209D1FFE70398029900F0B3F9BC
:103358000190FFE7019806B080BD024803F01EFC0B
:10336800FEDEC046AC7C000080B584B002900391BC
:103378000298039900F005F80190FFE7019804B05E
:1033880080BD84B001900291019802994018039081
:1033980003980090FFE7009804B0704780B584B0A8
:1033A80003900398029000F0E3FE0190FFE7029873
:1033B8000199421A53425A41104604B080BD80B563
:1033C80084B003900398032100F025F8029001913E
:1033D800FFE70298019904B080BD80B584B00390DE
:1033E8000398092100F017F802900191FFE702986D
:1033F800019904B080BD82B000900191009802B09C
:10340800704784B00090019100980199029003914F
:10341800039804B0704780B58EB00790089107985C
:103428000899FFF7E8FF0B90FFE70B98FFF7B6FF47
:10343800FFE7FFE7FFF7F9FA0690FFE7069800288D
:103448000AD0FFE70B980799089A05900846114695
:10345800FFF7D7FF049012E00B980799089A03909A
:1034680008461146FFF7CDFF0290FFE7039802993F
:1034780000F04AFE0190FFE701980C9006E00598DD
:103488000499FFF771FF0C90FFE7FFE70B980C9981
:1034980009900A9109980A990EB080BD80B586B046
:1034A80002F0F2FD0390FFE7FFE703983B21490193
:1034B80040180290029800F0DBFCFFE706B080BDE0
:1034C80080B58CB00B900B9800F004F90990FFE7D9
:1034D800099800F079F90890FFE7089800F008F9D2
:1034E8000790FFE7079800F052FA0690FFE7069862
:1034F80000F0F7F80590FFE7059800F01FFA049030
:10350800FFE7049800F002F90390FFE7039800F042
:10351800E1FA0290FFE7029800F0F1F80190FFE766
:10352800019800F059FA0090FFE700980CB080BDB0
:1035380080B586B002F0A8FD0390FFE7FFE7039887
:10354800044940180290029800F078FCFFE706B0A2
:1035580080BDC0466407000080B58CB00B900B9806
:1035680000F0B8F80990FFE7099800F01EF90890F4
:10357800FFE7089800F0BCF80790FFE7079800F00D
:1035880006FA0690FFE7069800F0ABF80590FFE70B
:10359800059800F0D3F90490FFE7049800F0B6F816
:1035A8000390FFE7039800F095FA0290FFE702986E
:1035B80000F0A5F80190FFE7019800F034FA0090B8
:1035C800FFE700980CB080BD82B001A819210170F6
:1035D800019802B0704782B001A8042101700198D7
:1035E80002B0704782B001A805210170019802B0AD
:1035F800704782B001A806210170019802B0704797
:1036080082B001A807210170019802B0704782B00A
:1036180001A808210170019802B0704782B001A882
:1036280009210170019802B0704782B001A80A21EF
:103638000170019802B0704782B001A80B21017097
:10364800019802B0704782B001A80C21017001985E
:1036580002B0704782B001A80D210170019802B034
:10366800704782B001A80E210170019802B070471E
:1036780082B001A80F210170019802B0704782B092
:1036880001A818210170019802B0704781B000208C
:103698000090009801B0704782B0009001910198A5
:1036A80000990860009802B0704781B0002000902F
:1036B800009801B0704782B000900191019800997C
:1036C8000860009802B0704781B00220009000980E
:1036D80001B0704782B0009000980190019802B044
:1036E800704782B0009000980190019802B070472E
:1036F80082B0009000980190019802B0704782B0A3
:10370800009000980190019802B0704782B0009034
:1037180000980190019802B0704782B0009000981C
:103728000078C007002805D0FFE701A80121017033
:1037380004E0FEDE01A800210170FFE701A800787F
:1037480002B0704783B0019001980078002800907B
:1037580009D0FFE70098012809D0FFE702A8032154
:10376800017008E0FEDE02A80021017003E002A853
:1037780001210170FFE7029803B0704783B00A4641
:10378800019002A80170FFE70198016801229143A6
:10379800016002A800780090FFE701980168009A8C
:1037A80011430160019803B0704780B584B002905E
:1037B800029803A900220A70097800F014F8019011
:1037C800FFE7019804B080BD80B584B002900298EC
:1037D80003A901220A70097800F005F80190FFE7B3
:1037E800019804B080BD80B586B00A46049005A84B
:1037F8000170049903920291FFF78FFF0190FFE790
:103808000120019901400298FFF7B8FF0090FFE7F7
:10381800009806B080BDD4D483B001900198007898
:10382800009000987844007940008744080C1014F0
:10383800181C200302A8072101701CE0FEDE02A864
:103848000021017017E002A80121017013E002A80D
:10385800022101700FE002A8032101700BE002A809
:103868000421017007E002A80521017003E002A805
:1038780006210170FFE7029803B0704782B00090FC
:1038880000980078C007002805D0FFE701A80121AB
:10389800017004E0FEDE01A800210170FFE701A825
:1038A800007802B0704783B0019001980078002832
:1038B800009009D0FFE70098012809D0FFE702A887
:1038C8000321017008E0FEDE02A80021017003E078
:1038D80002A802210170FFE7029803B0704783B085
:1038E8000A46019002A80170FFE7019801680C22BE
:1038F8009143016002A800788007000F0090FFE75D
:1039080001980168009A11430160019803B070475B
:1039180080B586B00A46049005A801700499039200
:103928000291FFF70FFF0190FFE702980199FFF757
:10393800D6FF0090FFE7009806B080BD80B584B040
:103948000290029803A900220A700399FFF7E0FF8A
:103958000190FFE7019804B080BD83B00A4601904A
:1039680002A80170FFE7019801680722120291433B
:10397800016002A800784007400D0090FFE7019819
:103988000168009A11430160019803B0704780B53F
:1039980084B00290029803A900220A70039900F0EB
:1039A80005F80190FFE7019804B080BD80B586B0A6
:1039B8000A46049005A80170049903920291FFF742
:1039C8002BFF0190FFE702980199FFF7C6FF0090CF
:1039D800FFE7009806B080BD80B584B002900298D9
:1039E80003A901220A70097800F02CF80190FFE77A
:1039F800019804B080BD83B00A46019002A8017006
:103A0800FFE70198016802229143016002A800784B
:103A180040000090FFE701980168009A1143016097
:103A2800019803B0704780B584B00290029803A94A
:103A380000220A70097800F005F80190FFE7019864
:103A480004B080BD80B586B00A46049005A8017010
:103A5800049903920291FFF711FF0190FFE70120FB
:103A6800019901400298FFF7C6FF0090FFE7009810
:103A780006B080BD83B00A46019002A80170FFE736
:103A880001980168032212049143016002A800789A
:103A98008007800B0090FFE701980168009A1143A6
:103AA8000160019803B0704780B586B00A4604905B
:103AB80005A80170049903920291FFF7F4FE0190A2
:103AC800FFE702980199FFF7D5FF0090FFE70098FC
:103AD80006B080BD80B584B00290029803A9002288
:103AE8000A700399FFF7E0FF0190FFE7019804B01F
:103AF80080BD80B588B00290039104920298059029
:103B08000398069002F07CFC0190FFE70498019965
:103B18004843079005980699079A00F029F8FFE7A7
:103B280008B080BD80B584B00190029102F068FCB5
:103B38000090FFE70098202806D3FFE70198029934
:103B48000122FFF7D6FF10E0019802F0E6FC03908F
:103B5800FFE702980199012202F0FEFCFFE70298B4
:103B6800039902F080FEFFE700E0FFE704B080BDA4
:103B7800D0B502AFA4B06C4664096401A5460390B1
:103B88000491059202F09EFA0690FFE70020079044
:103B9800FFE70798069940180599884205D9FFE775
:103BA8000798059988422DD359E0FFE708A8229085
:103BB8002298239023980290FFE702981190039887
:103BC800079902F0A3FA1290FFE70498079902F008
:103BD8009DFA1390FFE712981199069A02F0EEFAEF
:103BE800FFE713981299069A02F0E8FAFFE711988E
:103BF8001399069A02F0E2FAFFE70698079908185F
:103C08000790C6E7FFE705980799401A1C9014A883
:103C180020902098219021980190FFE701981D900D
:103C28000398079902F072FA1E90FFE70498079923
:103C380002F06CFA1F90FFE71E981D991C9A02F07B
:103C4800BDFAFFE71F981E991C9A02F0B7FAFFE722
:103C58001D981F991C9A02F0B1FAFFE7FFE7FC1FB5
:103C6800013CA546D0BD80B584B00290039102986E
:103C7800039900F02CF80190FFE7019804B080BD8B
:103C880080B584B0029003910298039900F02EF851
:103C98000190FFE7019804B080BD80B584B0029020
:103CA80003910298039900F03EF80190FFE701980C
:103CB80004B080BD80B584B0029003910298039946
:103CC80000F022F80190FFE7019804B080BD84B0AD
:103CD800019002910198029928224A438018039082
:103CE80003980090FFE7009804B0704784B00190F3
:103CF800029101980299C900401803900398009016
:103D0800FFE7009804B0704784B0019002910198D1
:103D1800029909224A438018039003980090FFE70C
:103D2800009804B0704784B00190029101980299FC
:103D380005224A438018039003980090FFE70098F3
:103D480004B0704780B584B003900398029002F0E5
:103D580033FA0190FFE702980199421A53425A41F7
:103D6800104604B080BD80B584B0039003980290DB
:103D780002F022FA0190FFE702980199421A534291
:103D88005A41104604B080BD80B584B003900398B2
:103D9800029002F011FA0190FFE702980199421A85
:103DA80053425A41104604B080BD80B584B0039098
:103DB8000398029002F000FA0190FFE70298019937
:103DC800421A53425A41104604B080BD80B586B0AD
:103DD80000900191FFF75AFC0290FFE7019802A9B1
:103DE80003910399FFF764FAFFE70098029904909A
:103DF8000591049802F016FB059902F072FBFFE7A3
:103E080006B080BD80B586B000900191FFF74DFCEB
:103E18000290FFE7019802A903910399FFF780FA3E
:103E2800FFE70098029904900591049802F0FAFAC5
:103E3800059902F056FBFFE706B080BD80B586B055
:103E48000090FFF741FC0290FFE702A80390039857
:103E5800FFF782FBFFE70098029904900591049808
:103E680002F0E0FA059902F03CFBFFE706B080BDDE
:103E780080B586B00090FFF727FC0290FFE702A804
:103E880003900398FFF71CFBFFE700980299049042
:103E98000591049802F0C6FA059902F022FBFFE7A3
:103EA80006B080BD80B588B002900391029803994E
:103EB80000F01BF801900091FFE70198069001219E
:103EC800009A0A4007A90A700978C907002905D18C
:103ED800FFE7069805900120049002E00020049076
:103EE800FFE70498059908B080BD8AB00290039155
:103EF80002980399002240185241089008A80271BC
:103F08000898099901900091FFE70198069001210E
:103F1800009A0A4007A90A700699079A049104A909
:103F28000A71049809790AB0704784B00190029127
:103F380001980299401A039003980090FFE70098AF
:103F480004B0704780B588B0019007A800210170BF
:103F58000198011DFEF731FD0090FFE70098C107A9
:103F6800002903D1FFE7002002901FE0019807A96C
:103F780001220A70114600F037F805910490FFE716
:103F88000498012803D0FFE70020029021E007A849
:103F98000021017005980690019906A8FEF71FFDFB
:103FA800FFE7069803900120029012E00298039917
:103FB80008B080BD07A800210170F7E707A80078BE
:103FC800C0070028F6D0FFE707A800210170F1E735
:103FD800F0E704980128F1D0FAE782B00090019147
:103FE8000098019902B0704780B588B0019002919D
:103FF8000298FEF79CFC06910590FFE705980028BB
:1040080004D0FFE7002003900BE0FEDE069807903F
:10401800019800680799FFF745FF04910390FFE7AF
:10402800FFE70398049908B080BD80B584B002907A
:1040380003910298039900F012F80190FFE70198A4
:1040480004B080BD80B584B00290039102980399B2
:10405800FFF7EBFF0190FFE7019804B080BD80B542
:104068008AB00190029109A80021017008AA117074
:1040780001210170117001A8069002A80790069806
:104088000799FEF75EFC05A90870FFE705A8007808
:1040980040B2401C022807D3FFE708A8002101709E
:1040A8000298049006E0FEDE09A80021017001983C
:1040B8000490FFE708A80078C007002809D1FFE7A7
:1040C80009A80078C007002807D1FFE704980AB0BC
:1040D80080BD08A800210170F2E709A8002101703D
:1040E800F4E781B0009001B0704786B0009001916C
:1040F80000980199049005910498059902900391FC
:104108000298039906B0704780B584B00290039175
:104118000298039900F005F80190FFE7019804B0B0
:1041280080BD84B0019002910198029940180390D3
:1041380003980090FFE7009804B0704780B584B0FA
:10414800029003910298039900F005F80190FFE7A7
:10415800019804B080BD84B0019002910198029941
:104168004018039003980090FFE7009804B0704748
:104178000020704786B00190029103920493019841
:10418800002801D0FFE705E00398049902F050FDEC
:10419800FEDEFEDE0298059005980199012900903F
:1041A80003D1FFE7009806B07047FBE781B0002015
:1041B8000090009801B0704782B00090019101987A
:1041C80000990860009802B0704781B00020009004
:1041D800009801B0704782B00190019802B0704712
:1041E80081B000900098007801B0704784B00190C9
:1041F800019800680090FFE70F200099014003A88C
:104208000170039802A90870029804B0704781B041
:1042180004200090009801B0704782B0009001918E
:10422800019800990860009802B0704782B0019028
:10423800019802B07047D4D4B0B592B00F900F98DF
:1042480000210E9008460D910E9A0D9B03F0AAF9D5
:104258004A1E914110220E9B0C9018460D9C0B9102
:104268002146234603F09EF90C9A89180D9B5B4161
:104278000B9C1C43002C0A91099039D1FFE77D2043
:10428800C00000210A9A089010460791089A079BD7
:1042980003F088F94A1E9141079A06901046059145
:1042A8001146099A079B03F07DF94A1E9141059A28
:1042B8000A430999049008460799089B03921A46ED
:1042C800079B03F06FF9069A049BD4180919079CF9
:1042D8006441039D2543002D029101900CD1FFE715
:1042E80001981090029911911098119912B0B0BDCF
:1042F800034802F053FCFEDE014802F04FFCFEDEEC
:10430800547D000085B004A900220A7001220A70B9
:104318000178C9070029009004D0FFE70020019028
:104328001AE0FEDE04A8002101700098416803919C
:1043380003990291012101910EE00198029905B0BB
:10434800704704A80078C0070028F6D0FFE704A843
:1043580000210170F1E7F0E700980178C90700290A
:10436800EFD0F8E788B00290039104920593029881
:10437800002802D0FFE708E0FEDE039806900698C2
:1043880002990029019007D009E004980599044B87
:1043980007AA02F069FCFEDE019808B07047FBE747
:1043A8006C7D000080B584B001900198039003985B
:1043B80002F038F802F08AF80090FFE700980290BF
:1043C800029804B080BD80B582B00090009800F0DB
:1043D80003F8FFE702B080BD80B586B0009000F01A
:1043E80057FB0290FFE702A80390039800F056FBE2
:1043F800FFE70098029904900591049802F012F8DA
:10440800059902F06EF8FFE706B080BD80B586B06A
:10441800009001F0AAFA0290FFE702A8039003981F
:1044280001F0F9FBFFE700980299049005910498C0
:1044380001F0F8FF059902F054F8FFE706B080BDD7
:1044480080B586B00090FFF7B1FE0290FFE702A8A2
:104458000390039801F0D3FBFFE7009802990490BA
:104468000591049801F0DEFF059902F03AF8FFE79C
:1044780006B080BD80B586B00090019101F084FA45
:104488000290FFE7019802A90391039901F014FC37
:10449800FFE70098029904900591049801F0C2FF83
:1044A800059902F01EF8FFE706B080BD80B586B01A
:1044B800009001F069FA0290FFE702A803900398C0
:1044C80001F038FBFFE700980299049005910498E1
:1044D80001F0A8FF059902F004F8FFE706B080BDD7
:1044E80081B000200090009801B0704782B0009021
:1044F80000980190019802B0704780B586B000908E
:10450800FFF7EEFF0290FFE702A80390039801F07F
:1045180066FBFFE70098029904900591049801F062
:1045280081FF059901F0DDFFFFE706B080BD82B08D
:10453800009000980078C007002805D0FFE701A880
:104548000421017004E0FEDE01A800210170FFE7EC
:10455800019802B0704783B00A46019002A8017022
:10456800FFE70198016807229143016002A80078DB
:1045780010400090FFE701980168009A114301601C
:10458800019803B0704780B584B00290029803A9DF
:1045980001220A70097800F005F80190FFE70198F8
:1045A80004B080BD80B586B00A46049005A80170A5
:1045B800049903920291FFF7BAFF0190FFE702986E
:1045C8000199FFF7C8FF0090FFE7009806B080BD8B
:1045D80080B586B00090019101F0E5F90290FFE7FF
:1045E800019802A90391039901F0CAFAFFE700981C
:1045F800029904900591049801F014FF059901F0BF
:1046080070FFFFE706B080BD80B586B000900191CD
:1046180001F0D9F90290FFE7019802A903910399E3
:1046280001F094FAFFE70098029904900591049824
:1046380001F0F8FE059901F054FFFFE706B080BDD0
:1046480080B588B00A46029003A80170019200F074
:104658005AF80490FFE7039804A90591059901F019
:10466800A9FAFFE70298049906900791069801F0C5
:10467800D9FE079901F035FFFFE708B080BD10B5F6
:1046880086B01946144603930292039A002A0190B1
:1046980006D1FFE70298019948600020087008E0F9
:1046A80005A8022101700598019948700120087039
:1046B800FFE706B010BD83B001900291FFE70198B3
:1046C8000021016002980090FFE701980168009AB4
:1046D80011430160019803B0704780B586B00A465F
:1046E800049005A8017004990392029100F018F84B
:1046F8000190FFE702980199FFF7DDFF0090FFE7BF
:10470800009806B080BD81B000200090009801B0EC
:10471800704782B0009000980190019802B07047ED
:1047280083B001900198007800900098784400794F
:10473800400087440C1014171A1E2124272A2D30F4
:1047480033373A0701200007029031E0FEDE4F20A0
:10475800000302902CE09D200003029028E02048EE
:10476800029025E01D48029022E03B2000040290C0
:104778001EE0194802901BE01648029018E0144801
:10478800029015E01148029012E00F4802900FE0E5
:104798000C4802900CE00A48029009E001208006CB
:1047A800029005E00548029002E003480290FFE706
:1047B800029803B07047C04600D0BE0E00705F0775
:1047C80000B0AF0300E0D70100903A0100F0EB0021
:1047D80000509D0000F0750000A04E00005027001A
:1047E80000B0130083B00A46019002A80170FFE7E9
:1047F80001980168012212049143016002A800781F
:1048080000040090FFE701980168009A11430160D5
:10481800019803B0704780B584B00290029800F008
:1048280005F80190FFE7019804B080BD80B586B017
:104838000490049805A90390084600F0DDF802905A
:10484800FFE70120029901400398FFF7CBFF019091
:10485800FFE7019806B080BD83B00A46019002A820
:104868000170FFE701980168012252049143016039
:1048780002A8007840040090FFE701980168009AB8
:1048880011430160019803B0704780B584B002906D
:10489800029800F005F80190FFE7019804B080BD88
:1048A80080B586B00490049805A90390084600F0E6
:1048B800A8F80290FFE70120029901400398FFF74A
:1048C800CBFF0190FFE7019806B080BD83B00A4690
:1048D800019002A80170FFE7019801680122920483
:1048E8009143016002A8007880040090FFE70198D6
:1048F8000168009A11430160019803B0704780B5C0
:1049080084B00290029800F005F80190FFE7019842
:1049180004B080BD80B586B00490049805A90390C2
:10492800084600F073F80290FFE701200299014061
:104938000398FFF7CBFF0190FFE7019806B080BD11
:1049480083B00A46019002A80170FFE70198016848
:104958000122D2049143016002A80078C0040090AB
:10496800FFE701980168009A11430160019803B0BC
:10497800704780B584B00290029800F005F8019065
:10498800FFE7019804B080BD80B586B00490049814
:1049980005A90390084600F03EF80290FFE70120C1
:1049A800029901400398FFF7CBFF0190FFE70198B8
:1049B80006B080BD81B000200090009801B070471B
:1049C80082B0009000980190019802B0704782B0C0
:1049D800009000980190019802B0704782B0009052
:1049E80000980190019802B0704782B0009000983A
:1049F8000190019802B0704781B00090012001B089
:104A0800704781B00090012001B0704781B00090DC
:104A1800012001B0704781B00090012001B07047BB
:104A280080B584B00290039103980649022202F0EF
:104A380099FB0190FFE7012001990140084604B065
:104A480080BDC0467C7D000081B00090009801B018
:104A5800704780B584B0014603AA1070039802918C
:104A680000F07CFF0190FFE7019804B080BD80B59D
:104A780082B001900198FFF7E7FF0090FFE70098E8
:104A880002B080BD81B000900098006801B0704706
:104A980081B000200090009801B0704782B001906A
:104AA800019802B0704781B000900098006801B08A
:104AB800704781B000200090009801B0704782B024
:104AC8000190019802B0704780B582B000F0C2F939
:104AD800FFE702B080BD80B582B0FFF7F5FFFFE7C2
:104AE80002B080BDC2B042B07047D4D480B588B09F
:104AF80006900791012000280FD1FFE7069801F0E2
:104B0800ABFB0590FFE70598C107002901D0FFE737
:104B180003E0144802F042F8FEDE0120002813D119
:104B2800FFE701F0E1FA0490FFE70799049800F025
:104B3800D4FE0390FFE70398002801D4FFE703E0C1
:104B4800074802F02BF8FEDE06980799FFF7CDFA22
:104B580002900191FFE70298019908B080BDC04614
:104B6800107E0000C07D000082B000900191009886
:104B780002B0704784B000900191009801990290AA
:104B88000391039804B0704780B58EB007900891E0
:104B98000798089900F03BF80B90FFE70B9801F095
:104BA800E9FAFFE7FFE701F09FFA0690FFE70698AA
:104BB80000280AD0FFE70B980799089A059008463D
:104BC8001146FFF7D7FF049012E00B980799089A4F
:104BD800039008461146FFF7CDFF0290FFE70398C0
:104BE800029901F0ADFA0190FFE701980C9006E0F8
:104BF80005980499FFF7A2FA0C90FFE7FFE70B98D6
:104C08000C9909900A9109980A990EB080BD82B052
:104C180000900191009802B0704780B584B002906E
:104C2800039102980399FFF7A5FF0190FFE7019808
:104C38004142484104B080BD80B584B002900391E0
:104C480002980399FFF7A0FF01900091FFE70198F0
:104C5800009904B080BD80B588B0029002980068C1
:104C680001F088FAFFE7FFE701F03EFA0190FFE75D
:104C78000198002807D0FFE70298406801F07AFA07
:104C8800FFE7FFE7FFE7029801684068814225D007
:104C9800FFE7029804900120059001F025FA00280A
:104CA8000DD0FFE7049800680790049800680599FC
:104CB800FFF751FA04990860079806900BE00498EA
:104CC80040680599494201F048FA049948600498F7
:104CD80000680690FFE70698009002E00020039025
:104CE80002E000980390FFE7039808B080BD81B008
:104CF80000900098007801B0704781B0009000984B
:104D0800007801B0704780B584B00190019801F037
:104D1800B1F90290FFE70298A121C900401801F0FB
:104D280013F9FFE704B080BD80B584B00390039801
:104D380000F03DFD0190FFE7019800F077FD00903D
:104D4800FFE7009804B080BD83B0009000980290FF
:104D5800002001900198029903B0704781B0014684
:104D68006A461070107801B07047D4D484B00146F8
:104D780002AA10701078092801900AD80198C04634
:104D88007844007940008744080C1014181C20242B
:104D9800282C174801F002FFFEDE03A8002101704D
:104DA80023E003A8012101701FE003A8022101707C
:104DB8001BE003A80321017017E003A80421017078
:104DC80013E003A8052101700FE003A80621017074
:104DD8000BE003A80721017007E003A80821017070
:104DE80003E003A809210170FFE7039804B07047A6
:104DF800A07E000070B58CB019461446054607AE73
:104E08003070099308920898099A337806911146E8
:104E18001A460594049502F0DFFB0022002A03914C
:104E2800029010D1FFE70AA8029A039B00F023FD25
:104E3800FFE70AA8FFF766FA01900091FFE70198DB
:104E480000990CB070BD024801F0A8FEFEDEC04615
:104E5800447F000080B590B001A800F05EF9FFE73C
:104E680001A800F025F9FFE701A801F003F9039074
:104E7800FFE703984A49401801F004F8FFE701A842
:104E8800FFF741FFFFE701A801F0F4F80490FFE7FE
:104E9800049851210901401801F09BF8FFE701A887
:104EA80001F0E8F80590FFE705980121490240184C
:104EB80001F00BF8FFE701A801F0DCF80690FFE726
:104EC800FFE7069815218901401800F09CFFFFE7CD
:104ED80001A801F0CFF80790FFE7FFE707983149ED
:104EE800401800F090FFFFE701A801F0C3F8089010
:104EF800FFE7FFE70898A921C900401800F083FFE1
:104F0800FFE701A801F0B6F80990FFE7FFE7099865
:104F18002549401800F077FFFFE701A801F0AAF83B
:104F28000A90FFE7FFE70A9805218901401800F079
:104F380047FFFFE701A801F09DF80B90FFE7FFE7A7
:104F48000B9851218900401800F03AFFFFE701A8AB
:104F580001F090F80C90FFE7FFE70C982921C900B1
:104F6800401800F02DFFFFE701A801F083F80D902D
:104F7800FFE7FFE70D9853218900401800F020FF54
:104F8800FFE701A801F076F80E90FFE70E9861217F
:104F9800C900401800F0F2FFFFE710B080BDC0461E
:104FA80004050000440500004C05000080B58AB0E7
:104FB80009900998FFF704FD0790FFE70798FFF7A6
:104FC8002AFC0690FFE70698FFF701FD0590FFE72A
:104FD8000598FFF75AFC0490FFE70498FFF7FEFCDA
:104FE8000390FFE70398FFF78AFC0290FFE7029817
:104FF800FFF7FBFC0190FFE70198FFF7BAFC009070
:10500800FFE700980AB080BD80B586B0019001988E
:1050180001F030F80590FFE7059851210901401883
:1050280000F0C6FF0490FFE704A8FFF7DFF803A924
:105038000870FFE703A8FFF7D3F802A90870FFE795
:105048000298FFF793FEC0B20090FFE7009806B001
:1050580080BD80B586B00A46019002A8017002980A
:105068000092FFF77BFE0390FFE7019800F055F8E8
:10507800FFE7019800F0FEFF0490FFE70498512134
:105088000901401803A90591059900F0C5FFFFE73C
:1050980006B080BD80B584B0029003910398029950
:1050A8000968FFF7BAF80190FFE7019804B080BDDE
:1050B80080B584B00190019800F0DCFF0290FFE712
:1050C80002980C3000F037FEFFE704B080BD80B5D1
:1050D80084B003900398012100F09AFC0190FFE747
:1050E800019804B080BD80B584B00190019800F0AB
:1050F800C1FF0290FFE7029800F037FEFFE704B017
:1051080080BD80B584B003900398012100F0F0FDC4
:105118000190FFE7019804B080BD80B584B001908C
:10512800019800F0A7FF0290FFE70298001D00F029
:10513800E8FDFFE704B080BD80B584B00390039814
:10514800012100F056FC0190FFE7019804B080BDF2
:1051580080B588B00B46039004A8017005920398A7
:10516800029300F087FF0690FFE704A80078032861
:1051780001900FD8FFE7069801998A008018152238
:1051880092018018059A0792079900F045FEFFE7FB
:1051980008B080BD02480422019901F01BFDFEDE23
:1051A8005C7F000080B586B004900591059804994D
:1051B80003900846FFF75BFC0290FFE7039802990B
:1051C80000F035FC0190FFE7019806B080BDD4D40B
:1051D80080B588B00A46039004A80170039802922B
:1051E80000F048FF0690FFE704A800780328019024
:1051F80017D8FFE7069801998A00801805229201BE
:1052080080180590059800F0CAFD0790FFE707A8E9
:10521800FFF749FC0090FFE70098411E884108B05D
:1052280080BD03480422019901F0D4FCFEDEC0468B
:105238006C7F000080B586B00A46029003A8017012
:105248000298019200F016FF0590FFE703A8007886
:10525800032800900ED8FFE7059800998A00801867
:105268000522920180180490049800F0A9FDFFE738
:1052780006B080BD02480422009901F0ABFCFEDEB6
:105288007C7F000080B584B00A46019002A80170B6
:10529800019802990092FFF79BFF03A90870FFE7A6
:1052A80003A80078C007002806D0FFE701980299F4
:1052B800FFF7C0FFFFE7FFE703A8007804B080BD51
:1052C80080B586B00A46029003A801700298019240
:1052D80000F0D0FE0490FFE704980121490240182D
:1052E80003A90591059900F0F9FDFFE706B080BD17
:1052F80080B58CB009900A910998007808900898B0
:105308007844007940008744071421010A9800F086
:10531800A4F9079027E0FEDE0A9800F089F90690C4
:10532800FFE7069800F097F80590FFE705980B90BF
:1053380021E00A9800F083F90490FFE7049800F050
:10534800CAF80390FFE703980B9014E00A9800F05E
:105358007DF90290FFE7029800F0FDF80190FFE761
:1053680001980B9007E0079800F035F90090FFE7E7
:1053780000980B90FFE70B980CB080BD82B00090AE
:1053880000980078C007002805D0FFE701A8012190
:10539800017004E0FEDE01A800210170FFE701A80A
:1053A800007802B0704782B0009000980078C0077B
:1053B800002805D0FFE701A80121017004E0FEDE06
:1053C80001A800210170FFE701A8007802B070472A
:1053D80082B0009000980078C007002805D0FFE749
:1053E80001A80121017004E0FEDE01A8002101707E
:1053F800FFE701A8007802B0704782B000900098DB
:105408000078C007002805D0FFE701A80121017036
:1054180004E0FEDE01A800210170FFE701A8007882
:1054280002B0704783B00A46019002A80170FFE7F6
:1054380001980168012212029143016002A80078D4
:1054480000020090FFE701980168009A114301608B
:10545800019803B0704780B584B00290029803A900
:1054680001220A70097800F005F80190FFE7019819
:1054780004B080BD80B586B00A46049005A80170C6
:10548800049903920291FFF779FF0190FFE7012049
:10549800019901400298FFF7C5FF0090FFE70098C7
:1054A80006B080BD83B00A46019002A80170FFE7EC
:1054B80001980168012252029143016002A8007814
:1054C80040020090FFE701980168009A11430160CB
:1054D800019803B0704780B584B00290029803A980
:1054E80001220A70097800F005F80190FFE7019899
:1054F80004B080BD80B586B00A46049005A8017046
:10550800049903920291FFF74EFF0190FFE70120F3
:10551800019901400298FFF7C5FF0090FFE7009846
:1055280006B080BD83B00A46019002A80170FFE76B
:1055380001980168012292029143016002A8007853
:1055480080020090FFE701980168009A114301600A
:10555800019803B0704780B584B00290029803A9FF
:1055680001220A70097800F005F80190FFE7019818
:1055780004B080BD80B586B00A46049005A80170C5
:10558800049903920291FFF723FF0190FFE701209E
:10559800019901400298FFF7C5FF0090FFE70098C6
:1055A80006B080BD83B00A46019002A80170FFE7EB
:1055B800019801680122D2029143016002A8007893
:1055C800C0020090FFE701980168009A114301604A
:1055D800019803B0704780B584B00290029803A97F
:1055E80001220A70097800F005F80190FFE7019898
:1055F80004B080BD80B586B00A46049005A8017045
:10560800049903920291FFF7F8FE0190FFE7012049
:10561800019901400298FFF7C5FF0090FFE7009845
:1056280006B080BD81B000200090009801B070479E
:1056380082B0009000980190019802B0704782B043
:10564800009000980190019802B0704782B00090D5
:1056580000980190019802B0704782B000900098BD
:105668000190019802B0704782B00190019802B091
:10567800704780B586B0014602AA10700091FFF706
:105688002AFAFFE7029904A8FFF7E3FCFFE705A859
:1056980000210170059904A8FFF712FEFFE706B084
:1056A80080BDD4D410B590B01946144609900B9318
:1056B8000A92099808910794FFF7A6FCC0B20690D1
:1056C800FFE70B9B0A9A0698FFF794FB0590049155
:1056D800FFE71C4A1C2305980499FEF74BFD0C9024
:1056E800FFE70C98FFF730FB03900291FFE7164A9B
:1056F8001C2303980299FEF735FE0D90FFE70998E1
:10570800FFF7D6FCFFE709980EA900220A700D9A48
:105718000E99FFF71DFDFFE70998FFF7E4FCFFE787
:10572800FFE709980FA900220A700F99FFF7AAFD51
:105738000190FFE70198C107002902D0FFE710B0E8
:1057480010BDEEE78C7F0000A87F000080B586B012
:10575800049005910498059903900846FEF76CFD9E
:1057680002910190FFE70398019A029BFFF79AFFC5
:10577800FFE706B080BD80B584B003A8042101709E
:105788000398FFF776FFFFE704B080BD80B582B0CD
:105798000090019100980199FFF7D8FFFFE702B048
:1057A80080BD81B000200090009801B0704782B0A1
:1057B800009000980190019802B0704783B0019062
:1057C8000198007800900098784400794000874458
:1057D800060A0E0102A8032101700CE0FEDE02A8F1
:1057E8000021017007E002A80121017003E002A86E
:1057F80002210170FFE7029803B0704783B00A46A0
:10580800019002A80170FFE7019801680322914303
:10581800016002A8007810400090FFE70198016835
:10582800009A11430160019803B0704780B584B0B5
:105838000290029803A903220A70039900F005F860
:105848000190FFE7019804B080BD80B586B00A4694
:10585800049005A80170049903920291FFF7AEFF26
:105868000190FFE702980199FFF7C8FF0090FFE752
:10587800009806B080BD10B584B01946144603934D
:105888000292039B029A01910094FEF7F8FEFFE74B
:1058980004B010BD80B588B00290039102980399B6
:1058A80000F034F801900091FFE70198069001217B
:1058B800009A0A4007A90A700978C907002905D182
:1058C800FFE7069805900120049002E0002004906C
:1058D800FFE70498059908B080BD80B586B00490AC
:1058E800059104980599FFF7D5FF03900291FFE70A
:1058F80000F031F80190FFE703980299019A01F04E
:1059080006F90090FFE7009806B080BD80B58CB01E
:10591800049005910498059A00210391039B01F0D6
:1059280041FE4A1E91410A900AA801710A980B99F2
:1059380002900191FFE7029808900121019A0A401C
:1059480009A90A700899099A069106A90A71069880
:1059580009790CB080BD0020C043704781B0014672
:105968006A461070107801B0704781B0002000902E
:10597800009801B0704782B0009001910198009999
:105988000860009802B0704781B00020009000982D
:1059980001B0704782B000900191019800990860A9
:1059A800009802B0704781B00020C0430090009872
:1059B80001B0704782B00090019101980099086089
:1059C800009802B0704781B00020C0430090009852
:1059D80001B0704782B00090019101980099086069
:1059E800009802B0704781B000200090009801B084
:1059F800704782B000900191019800990860009862
:105A080002B0704781B000200090009801B0704744
:105A180082B000900191019800990860009802B046
:105A2800704781B000200090009801B0704782B0A4
:105A380000900191019800990860009802B07047A1
:105A480082B00190019802B07047D4D470B596B076
:105A580013460C46054604AE307005A8017006A82A
:105A6800027003A802930194009500F0F5FA0890DB
:105A7800FFE708982B494018FEF718FDFFE703A831
:105A880000F0EAFA0A90FFE70A982749401804A9A3
:105A98000B910B99FEF7B8FDFFE703A800F0DCFABD
:105AA8000C90FFE70C982149401805A90D910D9914
:105AB800FEF78EFDFFE703A800F0CEFA0E90FFE791
:105AC8000E981B49401806990FAA11700F99FEF7F6
