:1000000000400020196F0000516F00005D7000007B
:1000100000000000000000000000000000000000E0
:10002000000000000000000000000000516F000010
:100030000000000000000000516F0000516F000040
:10004000516F0000516F0000516F0000516F0000B0
:10005000516F000000000000516F0000516F000060
:10006000516F0000516F0000516F0000516F000090
:10007000516F0000516F0000516F0000516F000080
:10008000516F0000516F0000516F0000516F000070
:10009000516F0000516F0000516F0000516F000060
:0800A000516F0000516F0000D8
:1000A80080B588B0039004910592039800210691C9
:1000B8000790049A059B0698079900F007F80290A4
:1000C8000191FFE70298019908B080BD80B588B01A
:1000D80004900591069207930698079904F0FAF898
:1000E8000390FFE70499039806F017F80290FFE7DA
:1000F80005980499411A029804F0DDF801900091DE
:10010800FFE70198009908B080BD80B586B001F07E
:10011800E4F902A90870FFE701F034FBFFE706F0F5
:10012800E4F8FFE705A80490049801F0CDFD03A9C1
:100138000870FFE702A806F075F80090FFE700983E
:10014800C107002903D0FFE701F017FBFFE703A869
:10015800007806B080BD10B586B0089C0091019269
:10016800029303940099019A00230593049304933E
:10017800029B039C016042600499059A8160C260F9
:100188000361446106B010BD0220704782B0009040
:1001980000980190019802B0704782B000900098D2
:1001A8000190019802B0704782B0009000980190C9
:1001B800019802B0704782B00090009801900198B1
:1001C80002B0704782B0009000980190019802B088
:1001D800704782B0009000980078C007002805D0CA
:1001E800FFE701A80121017004E0FEDE01A800215B
:1001F8000170FFE701A8007802B0704783B0019052
:10020800019800780028009009D0FFE7009801289D
:1002180009D0FFE702A80321017008E0FEDE02A86A
:100228000021017003E002A801210170FFE7029894
:1002380003B0704710B583B00A46019002A8017058
:1002480001990B680124A3430B6000780090FFE735
:1002580001980168009A11430160019803B010BD2C
:1002680080B584B00290029803A901220A70097827
:1002780000F005F80190FFE7019804B080BD80B553
:1002880086B00A46049005A8017004990392029169
:10029800FFF79FFF0190FFE70120019901400298B5
:1002A800FFF7C8FF0090FFE7009806B080BDD4D4E0
:1002B80083B0019001980078009000987844007904
:1002C80040008744080C1014181C200302A80721BA
:1002D80001701CE0FEDE02A80021017017E002A8F0
:1002E8000121017013E002A8022101700FE002A8A9
:1002F800032101700BE002A80421017007E002A8A5
:100308000521017003E002A806210170FFE70298A9
:1003180003B0704782B0009000980078C0070028AA
:1003280005D0FFE701A80121017004E0FEDE01A865
:1003380000210170FFE701A8007802B0704783B080
:100348000190019800780028009009D0FFE70098F4
:10035800012809D0FFE702A80321017008E0FEDEAA
:1003680002A80021017003E002A802210170FFE742
:10037800029803B0704710B583B00A46019002A8EE
:10038800017001990B680C24A3430B600078800767
:10039800000F0090FFE701980168009A114301607F
:1003A800019803B010BD80B586B00A46049005A830
:1003B8000170049903920291FFF720FF0190FFE773
:1003C80002980199FFF7D7FF0090FFE7009806B061
:1003D80080BD80B584B00290029803A900220A70FB
:1003E8000399FFF7E0FF0190FFE7019804B080BD93
:1003F80010B583B00A46019002A8017001990B68F4
:1004080007242402A3430B6000784007400D0090A6
:10041800FFE701980168009A11430160019803B051
:1004280010BD80B584B00290029803A900220A701A
:10043800039900F005F80190FFE7019804B080BD2A
:1004480080B586B00A46049005A801700499039205
:100458000291FFF72DFF0190FFE702980199FFF73E
:10046800C7FF0090FFE7009806B080BD80B584B054
:100478000290029803A901220A70097800F01CF87A
:100488000190FFE7019804B080BD10B583B00A461B
:10049800019002A8017001990B680224A3430B6024
:1004A800007840000090FFE701980168009A114326
:1004B8000160019803B010BD80B586B00A4604906B
:1004C80005A80170049903920291FFF723FF019098
:1004D800FFE70120019901400298FFF7D6FF00903D
:1004E800FFE7009806B080BD10B583B00A460190BA
:1004F80002A8017001990B6803242404A3430B602C
:1005080000788007800B0090FFE701980168009A47
:1005180011430160019803B010BD80B586B00A464A
:10052800049005A80170049903920291FFF707FF50
:100538000190FFE702980199FFF7D6FF0090FFE7C7
:10054800009806B080BD80B584B00290029803A9D7
:1005580000220A700399FFF7E0FF0190FFE7019876
:1005680004B080BD70B5C4B0269027912892269813
:1005780029902998802808D303E02BA8012101702D
:1005880009E02BA80021017005E02798289903F0BD
:10059800FBFE259005E02BA80078C00700280AD1AB
:1005A80004E02598C1070029E7D0EAE72998C00A9E
:1005B80000281AD015E029982799289A0023249012
:1005C800084611461A4601F0FAFC2390FFE72498E2
:1005D8002399087001222A923EE12CA8012101707A
:1005E80009E02CA80021017005E02798289903F05C
:1005F80077FE229005E02CA80078C007002809D1D2
:1006080003E022980128E8D8EBE729A840880028C9
:1006180030D02BE029984005C00E2799289A00234E
:100628002190084611461A4601F0C9FC2090FFE7C0
:10063800C020219901432098017029993F22114037
:100648002798289A01231F9111461A4601F0B7FCF2
:100658001E90FFE780201F9901431E980170022118
:100668002A91F8E02DA80121017009E02DA80021A8
:10067800017005E02798289903F032FE1D9005E0E7
:100688002DA80078C00700280AD103E01D98022889
:10069800E8D8EBE72798289903F022FE1C9039E068
:1006A80029980004000F2799289A00231B900846D0
:1006B80011461A4601F083FC1A90FFE7E0201B99C7
:1006C80001431A98017029990905890E2798289AD3
:1006D8000123199111461A4601F071FC1890FFE7A1
:1006E8008020199901431898017029993F221140D7
:1006F8002798289A0223179111461A4601F05FFCA1
:100708001690FFE78020179901431698017003217E
:100718002A919FE01C98032805D8FFE7299801F043
:100728000EFB15904BE02998C002400F2799289A94
:1007380000231490084611461A4601F040FC139015
:10074800FFE7F02014990143139801702999890350
:10075800890E2798289A0123129111461A4601F00A
:100768002EFC1190FFE78020129901431198017027
:1007780029990905890E2798289A0223109111466C
:100788001A4601F01CFC0F90FFE7802010990143E6
:100798000F98017029993F2211402798289A03231E
:1007A8000E9111461A4601F00AFC0D90FFE78020D1
:1007B8000E9901430D98017004212A914AE0159879
:1007C80000F068F83D90FFE72798289903F088FD26
:1007D8003E90FFE73DA83A9029A83B903EA83C9060
:1007E8003A983F903B9840903C9841903F982549D3
:1007F80005F066FD0C900B91FFE74098224905F043
:1008080077FD0A900991FFE741981E4905F058FDC8
:1008180008900791FFE70C9834900B9935910A9A44
:100828003692099B3793089C3894079D399503267F
:10083800009616492EA834AB3246FFF78CFCFFE72A
:100848001348439043990691FFE72EA8069905F0AF
:10085800F7FDFEDEFFE7FFE7279828992A9A4292DC
:10086800429A01F09BFB05900491FFE705980499D3
:1008780001F078F803900291FFE70398029944B0D9
:1008880070BDC046156D0000C56B0000CC7000003F
:100898003071000083B00090009802900298802880
:1008A80005D3FFE70298C00A002808D002E001201B
:1008B80001900FE002A84088002806D002E002203C
:1008C800019006E00420019002E003200190FFE778
:1008D800FFE7FFE7019803B0704786B0009005A8CE
:1008E8000021017004AA1170012101701170009893
:1008F800411E02468A41002801D0FFE705E004A80E
:1009080000210170029108E0FEDE05A800210170B7
:100918000098039003980290FFE704A80078C007A6
:10092800002804D1FFE70098002807D110E004A8A8
:1009380000210170F7E7029806B0704705A8007813
:10094800C0070028F7D0FFE705A800210170F2E7EB
:10095800F1E7D4D486B003900398411E02468A4139
:10096800002801D0FFE705E00B480590059A0292A0
:1009780008E0FEDE0398049004980399002901908A
:1009880006D108E005482B21029A05F029FDFEDE74
:10099800019806B07047FBE7B47100004071000091
:1009A80082B000200190019802B0704780B582B0F3
:1009B80001900198FFF791FF0090FFE7009802B0BF
:1009C80080BD80B582B0FFF7A0FB0190FFE7012052
:1009D80001990140084602B080BDD4D4F6B0012088
:1009E80021900220229003202390042024900520A7
:1009F800259021A920900846209901F0F9FA1F9026
:100A08001E91FFE71F981E9901F0B0F91D90FFE7AE
:100A18001D98FFF79FFF2690FFE7FFF7D2FF27A952
:100A28000870FFE727A80078C007002805D1FFE76E
:100A38009E487590759A1C9232E104F0EFFFFFE72B
:100A480002F0B6FFFFE703F07BF82AA90870FFE77A
:100A580002F0F8FFFFE703F03FF82BA90870FFE763
:100A68002B992A982DAA0A2313702D9A04F08AFE2E
:100A78001B901A91FFE71B981A9904F074FFFFE77F
:100A8800002000908B492EA801220423FFF763FB66
:100A9800FFE72CA82EA900F09BFE1990FFE7012084
:100AA80019990140084600F065FFFFE703F059FD7A
:100AB800FFE700F026F9FFE700F06CF9FFE700F028
:100AC800B3F9FFE700F0FAF9FFE700F041FAFFE7B2
:100AD80000F088FAFFE700F0CFFAFFE700F016FB16
:100AE800FFE700F05DFBFFE700F0A4FBFFE700F085
:100AF800EBFBFFE700F032FCFFE741A801F024FB25
:100B0800FFE74CA801210170002242708170C27079
:100B180001714EAB1A7059709A70D9701A7150AC35
:100B280021706270A170E270217152AD2A706970F3
:100B3800AA70E9702A7154AE31707270B170F27097
:100B480031714D9F189045A80771189F3F781790ED
:100B5800189840780002C019189FBF781690189806
:100B6800C0780002C0190004169FC0194590179854
:100B7800401D05271591194614923A46139412956B
:100B88001196109706F014F917990A310F90084634
:100B98001399109A06F00CF917990F310E90084620
:100BA8001299109A06F004F9179914310D90084615
:100BB8001199109A06F0FCF85DA9159A0A704A7006
:100BC800149B8B70CA700B715FAC22706370A2703B
:100BD800E370227161AD2B706A70AB70EA702B7193
:100BE80063AE32707370B270F370327165AF3B7080
:100BF8007A70BB70FA703B715E9A56AB1A710A78BC
:100C08000C904878000280188A78C97809028918F7
:100C1800090408185690581D2146109A0B950A96F3
:100C28000997089306F0C4F808990A31079008460E
:100C38000B99109A06F0BCF808990F3106900846EF
:100C48000A99109A06F0B4F80899143105900846E4
:100C58000999109A06F0ACF8FFE767A845A9192288
:100C6800049006F0A5F87D21CB0041A934AA039091
:100C780008461146049A01F0E9FBFFE76EA856A959
:100C88001922029006F094F87D21CB0041A934AADC
:100C9800019008461146029A01F0D8FBFFE7DCE70D
:100CA80003480E211C9A05F09BFBFEDEE471000050
:100CB800C47100000C72000080B584B002900391EA
:100CC8000298039900F005F80190FFE7019804B035
:100CD80080BD84B001900291019802998900401862
:100CE800039003980090FFE7009804B0704782B023
:100CF800019001980090FFE700984142484102B0F6
:100D0800704780B584B005F0D9F90390FFE70398E0
:100D18007121090140180290029800F05EFCFFE77B
:100D280004B080BD80B58CB00B900B98FFF72EFAFD
:100D38000990FFE70998FFF793FA0890FFE70898EA
:100D4800FFF732FA0790FFE70798FFF76AFB06906C
:100D5800FFE70698FFF721FA0590FFE70598FFF7E8
:100D680038FB0490FFE70498FFF72CFA0390FFE79D
:100D78000398FFF7E8FB0290FFE70298FFF71BFADA
:100D88000190FFE70198FFF771FB0090FFE70098DB
:100D98000CB080BD80B584B005F090F90390FFE7F2
:100DA8000398044940180290029800F0CCFCFFE731
:100DB80004B080BD1407000080B58CB00B900B9870
:100DC800FFF7E4F90990FFE70998FFF749FA089057
:100DD800FFE70898FFF7E8F90790FFE70798FFF79C
:100DE80020FB0690FFE70698FFF7D7F90590FFE785
:100DF8000598FFF7EEFA0490FFE70498FFF7E2F989
:100E08000390FFE70398FFF79EFB0290FFE7029825
:100E1800FFF7D1F90190FFE70198FFF727FB009052
:100E2800FFE700980CB080BD80B584B005F046F9A6
:100E38000390FFE70398E321C90040180290029845
:100E480000F033FCFFE704B080BD80B58CB00B9098
:100E58000B98FFF79BF90990FFE70998FFF700FA4D
:100E68000890FFE70898FFF79FF90790FFE70798B2
:100E7800FFF7D7FA0690FFE70698FFF78EF9059077
:100E8800FFE70598FFF7A5FA0490FFE70498FFF736
:100E980099F90390FFE70398FFF755FB0290FFE7E6
:100EA8000298FFF788F90190FFE70198FFF7DEFA4B
:100EB8000090FFE700980CB080BDD4D480B584B012
:100EC80005F0FCF80390FFE70398044940180290E6
:100ED800029800F09CFBFFE704B080BD1C070000EF
:100EE80080B58CB00B900B98FFF750F90990FFE78D
:100EF8000998FFF7B5F90890FFE70898FFF754F944
:100F08000790FFE70798FFF78CFA0690FFE7069827
:100F1800FFF743F90590FFE70598FFF75AFA0490A1
:100F2800FFE70498FFF74EF90390FFE70398FFF7F0
:100F38000AFB0290FFE70298FFF73DF90190FFE7EF
:100F48000198FFF793FA0090FFE700980CB080BD76
:100F580080B584B005F0B2F80390FFE70398392113
:100F6800490140180290029800F003FBFFE704B023
:100F780080BD80B58CB00B900B98FFF707F90990EE
:100F8800FFE70998FFF76CF90890FFE70898FFF763
:100F98000BF90790FFE70798FFF743FA0690FFE77A
:100FA8000698FFF7FAF80590FFE70598FFF711FA9A
:100FB8000490FFE70498FFF705F90390FFE703980B
:100FC800FFF7C1FA0290FFE70298FFF7F4F80190E3
:100FD800FFE70198FFF74AFA0090FFE700980CB086
:100FE80080BDD4D480B584B005F068F80390FFE7DD
:100FF8000398044940180290029800F086FAFFE727
:1010080004B080BD2407000080B58CB00B900B980D
:10101800FFF7BCF80990FFE70998FFF721F9089056
:10102800FFE70898FFF7C0F80790FFE70798FFF772
:10103800F8F90690FFE70698FFF7AFF80590FFE785
:101048000598FFF7C6F90490FFE70498FFF7BAF888
:101058000390FFE70398FFF776FA0290FFE70298FC
:10106800FFF7A9F80190FFE70198FFF7FFF9009053
:10107800FFE700980CB080BD80B584B005F01EF87D
:101088000390FFE70398E521C900401802900298F1
:1010980000F0F1FAFFE704B080BD80B58CB00B908A
:1010A8000B98FFF773F80990FFE70998FFF7D8F84E
:1010B8000890FFE70898FFF777F80790FFE7079889
:1010C800FFF7AFF90690FFE70698FFF766F8059077
:1010D800FFE70598FFF77DF90490FFE70498FFF70D
:1010E80071F80390FFE70398FFF72DFA0290FFE7E6
:1010F8000298FFF760F80190FFE70198FFF7B6F94B
:101108000090FFE700980CB080BDD4D480B584B0BF
:1011180004F0D4FF0390FFE70398044940180290B5
:10112800029800F0DCFAFFE704B080BD2C0700004D
:1011380080B58CB00B900B98FFF728F80990FFE763
:101148000998FFF78DF80890FFE70898FFF72CF843
:101158000790FFE70798FFF764F90690FFE70698FE
:10116800FFF71BF80590FFE70598FFF732F90490A1
:10117800FFE70498FFF726F80390FFE70398FFF7C7
:10118800E2F90290FFE70298FFF715F80190FFE7F0
:101198000198FFF76BF90090FFE700980CB080BD4D
:1011A80080B584B004F08AFF0390FFE703987321A9
:1011B800090140180290029800F0F5F9FFE704B021
:1011C80080BD80B58CB00B900B98FEF7DFFF0990BF
:1011D800FFE70998FFF744F80890FFE70898FEF73B
:1011E800E3FF0790FFE70798FFF71BF90690FFE773
:1011F8000698FEF7D2FF0590FFE70598FFF7E9F894
:101208000490FFE70498FEF7DDFF0390FFE70398DB
:10121800FFF799F90290FFE70298FEF7CCFF0190DB
:10122800FFE70198FFF722F90090FFE700980CB05C
:1012380080BDD4D480B584B004F040FF0390FFE7AC
:101248000398044940180290029800F062FAFFE7F8
:1012580004B080BD3407000080B58CB00B900B98AB
:10126800FEF794FF0990FFE70998FEF7F9FF089049
:10127800FFE70898FEF798FF0790FFE70798FFF742
:10128800D0F80690FFE70698FEF787FF0590FFE77E
:101298000598FFF79EF80490FFE70498FEF792FF81
:1012A8000390FFE70398FFF74EF90290FFE70298D3
:1012B800FEF781FF0190FFE70198FFF7D7F800904C
:1012C800FFE700980CB080BD80B584B004F0F6FE4E
:1012D8000390FFE70398E721C9004018029002989D
:1012E80000F0AFF9FFE704B080BD80B58CB00B907B
:1012F8000B98FEF74BFF0990FFE70998FEF7B0FF40
:101308000890FFE70898FEF74FFF0790FFE7079858
:10131800FFF787F80690FFE70698FEF73EFF05906F
:10132800FFE70598FFF755F80490FFE70498FEF7E4
:1013380049FF0390FFE70398FFF705F90290FFE7DD
:101348000298FEF738FF0190FFE70198FFF78EF843
:101358000090FFE700980CB080BDD4D480B584B06D
:1013680004F0ACFE0390FFE703980449401802908C
:10137800029800F0E4F8FFE704B080BD3C070000E5
:1013880080B58CB00B900B98FEF700FF0990FFE733
:101398000998FEF765FF0890FFE70898FEF704FF35
:1013A8000790FFE70798FFF73CF80690FFE70698D5
:1013B800FEF7F3FE0590FFE70598FFF70AF804909B
:1013C800FFE70498FEF7FEFE0390FFE70398FFF798
:1013D800BAF80290FFE70298FEF7EDFE0190FFE7EA
:1013E8000198FFF743F80090FFE700980CB080BD24
:1013F80081B0FEDEFEDE80B586B08168049141686A
:1014080003910068029005A800210170017802A8E4
:1014180000F03FF80190FFE70120019901400846DC
:1014280006B080BD83B00091019202930099019AA1
:10143800029B01604260836003B0704783B00090F4
:1014480000980290029803B0704780B58AB00B46A6
:10145800059006A80170079205980699079A0992BF
:10146800099A049003911146029300F02FFAFFE7BE
:1014780001200399014008A801700178049800F040
:1014880013FB0190FFE701200199014008460AB0CB
:1014980080BD10B58AB00A4608AB19700168436868
:1014A800089C80680792069105930494FFF7C6FF8D
:1014B8000390FFE70120049901400698059A0291DC
:1014C8001146029A039B00F077FC0190FFE7012088
:1014D8000199014008460AB010BD80B582B004F0F9
:1014E80057FE0190FFE701A80078C007002804D143
:1014F800FFE768460021017003E06846012101709A
:10150800FFE76846007802B080BD80B586B00090DD
:10151800FEF73AFE0290FFE702A803900398FFF750
:1015280073FDFFE70098029904900591049804F070
:1015380032FE059904F04DFEFFE706B080BD80B588
:1015480086B00090FEF720FE0290FFE702A8039005
:101558000398FFF715FFFFE700980299049005919B
:10156800049804F018FE059904F033FEFFE706B06E
:1015780080BD80B586B00090FEF706FE0290FFE7BA
:1015880002A803900398FFF7F4FCFFE7009802997C
:1015980004900591049804F0FEFD059904F019FEE5
:1015A800FFE706B080BD80B586B00090FEF7ECFD81
:1015B8000290FFE702A803900398FFF702FEFFE7F7
:1015C8000098029904900591049804F0E4FD0599A7
:1015D80004F0FFFDFFE706B080BD80B586B000903F
:1015E800FEF7D2FD0290FFE702A803900398FFF7E9
:1015F80099FBFFE70098029904900591049804F07C
:10160800CAFD059904F0E5FDFFE706B080BD80B589
:1016180086B00090FEF7B8FD0290FFE702A803909D
:101628000398FFF75DFCFFE7009802990490059185
:10163800049804F0B0FD059904F0CBFDFFE706B06F
:1016480080BD80B586B00090FEF79EFD0290FFE752
:1016580002A803900398FFF748FEFFE70098029955
:1016680004900591049804F096FD059904F0B1FDE5
:10167800FFE706B080BD80B586B00090FEF784FD18
:101688000290FFE702A803900398FFF706FDFFE723
:101698000098029904900591049804F07CFD05993E
:1016A80004F097FDFFE706B080BD80B586B00090D6
:1016B800FEF76AFD0290FFE702A803900398FFF780
:1016C800C4FBFFE70098029904900591049804F080
:1016D80062FD059904F07DFDFFE706B080BD80B589
:1016E80086B00090FEF750FD0290FFE702A8039035
:1016F8000398FFF71DFDFFE70098029904900591F4
:10170800049804F048FD059904F063FDFFE706B06E
:1017180080BD80B586B00090FEF736FD0290FFE7E9
:1017280002A803900398FFF797FDFFE70098029936
:1017380004900591049804F02EFD059904F049FDE4
:10174800FFE706B080BD80B586B00090FEF71CFDAF
:101758000290FFE702A803900398FFF72DFBFFE72D
:101768000098029904900591049804F014FD0599D5
:1017780004F02FFDFFE706B080BD80B504F006FD3C
:10178800FFE780BD80B504F0FFFCFFE780BD80B5B2
:1017980088B005900691059806990022079207AA35
:1017A80004230490084611461A46FEF7DBFE039010
:1017B8000291FFE704980399029A00F05DF80190FE
:1017C800FFE7012001990140084608B080BDD4D444
:1017D800B0B58AB0039004A8024638C938C238C9DF
:1017E80038C2074903AA02901046029A04F09EFEE6
:1017F8000190FFE701200199014008460AB0B0BDF9
:101808001472000080B584B00290039102980068B9
:101818000399FFF7BCFF0190FFE701200199014000
:10182800084604B080BD70B588B001900198006882
:1018380002AA134670C970C370C970C31146FFF776
:10184800C7FF0090FFE7012000990140084608B053
:1018580070BD80B584B00190029103920198006830
:101868000299039A00F008F80090FFE70120009918
:101878000140084604B080BD80B590B0059006913F
:101888000792069807990C900D910C980D990E9057
:101898000F910E980F9904900391FFE7049803990C
:1018A80002F081FD02900191FFE705A80B900B9BC8
:1018B80008A80299019A00F04CFAFFE708A8FFF778
:1018C8009AFDFFE7FFE7002010B080BD80B588B023
:1018D80001900291FFE707A80021017001990968AA
:1018E8000968029A1278012303700846114604F029
:1018F80043F804A90870FFE704A80078C007002887
:1019080016D0FFE707E007A8002101700AE007A842
:10191800002101700DE000200028F4D1FFE7F6E770
:10192800FEDEFEDE04A80078C00700280AD118E011
:10193800F8E707A800210170CDE707A8002101708A
:1019480008B080BD012000280AD1FFE707A8007869
:10195800C0070028F1D0FFE707A800210170ECE7D5
:10196800EBE7EAE782B0009001910098019902B094
:101978007047D4D484B0014601AA10701078C0070B
:10198800002802D0FFE706E0FEDE01A80078C007C5
:10199800002807D008E00548054B2B2103AA04F0CE
:1019A80079FDFEDE04B07047FCE7C0462C720000EB
:1019B8005872000084B001900120002802D1FFE78E
:1019C80008E0FEDE019802900298012100290090AB
:1019D80007D109E00548064B2B2103AA04F05AFD5C
:1019E800FEDE009804B07047FBE7C0462C7200008A
:1019F8006872000084B0014601AA10700120002816
:101A080002D1FFE709E0FEDE019802A908700298FA
:101A180001210029009007D10CE00748074B2B2132
:101A280003AA04F037FDFEDE0120009901400846B4
:101A380004B07047F8E7C0462C72000068720000D6
:101A480082B0019802B0704782B001A8007802B055
:101A5800704781B00090009801B0704781B001468E
:101A68006A461070107801B0704782B001466A4625
:101A78001070009801AA1070107802B0704782B0F8
:101A8800009000980190019802B0704780B584B02A
:101A98000190029103920298039900F006F90090D0
:101AA800FFE7009804B080BD80B584B00A46029074
:101AB80003A801700078019200F0D9F80090FFE7C0
:101AC800012000990140084604B080BD81B0009013
:101AD80001B0704781B0009001B0704781B00090AC
:101AE80001B0704780B58AB001900291039209A8AD
:101AF8000021017008AA117001210170117003986A
:101B080001A9069102A907910699079A00F02EF8F3
:101B180005A90870FFE705A8007840B2401C022814
:101B280007D3FFE709A8002101700198049006E097
:101B3800FEDE08A80021017002980490FFE708A8BB
:101B48000078C007002809D1FFE709A80078C00776
:101B5800002807D1FFE704980AB080BD08A8002133
:101B68000170F2E709A800210170F4E780B584B09C
:101B780001900291039201980299039AFFF786FF58
:101B88000090FFE7009804B080BD80B58AB001904E
:101B9800029101A800F08AFA0090FFE70098FEF78A
:101BA80005FF0690FFE70698414202464A41002891
:101BB8000FD1FFE700E0FEDE04F0E3FA02E004984C
:101BC8000AB080BDFEF7ECFE0490FFE7FFE7FFE7F1
:101BD800F5E706980890089805900698002803D11C
:101BE80009E009980490EAE701980299059A00F03B
:101BF800CAF80990F5E7F7E782B0009000980190DD
:101C0800019802B0704782B002B0704710B588B032
:101C18000B46029003A80170049202980399049A53
:101C280006AC217007922178079A0193FFF70DFC03
:101C38000090FFE701200099014005A80170007895
:101C480008B010BD80B588B0029003910492029844
:101C58000399049A069107920699079A00F016F8D4
:101C68000190FFE701980590059808B080BD83B002
:101C780001466A46107002A801220270FFE702A816
:101C8800007803B0704782B002B0704780B584B066
:101C980001900291039202980399019AFFF722FF9B
:101CA8000090FFE7009804B080BD80B584B0029032
:101CB8000391029800680399096800F01FF80190E1
:101CC800FFE7019804B080BD80B584B002900A484F
:101CD8000078C007002803D1FFE704F0F3F903E018
:101CE80003A80021017003E003A801210170FFE7A8
:101CF80003A8007804B080BD0000002083B00090E5
:101D080001910098006801990968884207DBFFE79C
:101D18000098006801990968884208D003E002A881
:101D2800FF21017008E002A80121017003E002A868
:101D380000210170FFE7FFE7029803B0704783B006
:101D480001900198029002980090FFE7009803B074
:101D5800704780B584B00191029203930199029A69
:101D6800039BFFF75FFBFFE704B080BD80B584B03D
:101D7800029003910298039900F047F80190FFE759
:101D8800019804B080BD80B588B004900591069292
:101D980006990391FFF737FFFFE704A8039900F0BE
:101DA80048F80290FFE70298FFF704FE0190FFE76A
:101DB800FFE7019808B080BD10B58AB014460690B8
:101DC800079108A802700993089809990590084690
:101DD8000494FFF711FF0390FFE7012005990140E4
:101DE80006A8039A00F078F80290FFE7012002990C
:101DF80001400846FFF7FEFD0190FFE7FFE70120DD
:101E08000199014008460AB010BD80B586B003901C
:101E180004910398049902900191FFF734FFFFE7BA
:101E280002980199FFF7B1FE0090FFE7009806B00D
:101E380080BD80B58EB00290039103980690FFE7AD
:101E4800029800F033F90790FFE70798002801D1BE
:101E5800FFE72DE007980890069808990A900B91DB
:101E68000A990B9A04A8FFF7EDFE0190FFE7019885
:101E7800FFF7EFFD0990FFE70120002810D1FFE7E9
:101E880000E0FEDEFFF7B4FA02E005980EB080BD70
:101E9800FFF7D6FD0590FFE70120002812D10DE0DD
:101EA80009980D900D980690012000280DD110E09A
:101EB8000698FFF7E4FD0590FFE7E6E70798002896
:101EC80001D101E0FAE7E0E7FDE70798002801D132
:101ED80001E0FAE7B4E7FDE780B58EB00B46029063
:101EE80003A801700492039806A90870FFE70298F6
:101EF80002F068FA0790FFE70798002801D1FFE78A
:101F080036E007980890069808990AAA10700B916D
:101F180011780B9A04A8FFF779FE0190FFE70120DA
:101F2800019901400846FFF799FD09A90870FFE7E4
:101F38000120002812D1FFE700E0FEDEFFF758FA83
:101F480003E005A800780EB080BDFFF77DFD05A968
:101F58000870FFE70120002816D111E009980DA9A3
:101F680008700D9806A90870012000280FD112E00A
:101F780006A80078FFF779FD05A90870FFE7E0E7F4
:101F88000798002801D101E0FAE7DAE7FDE70798AA
:101F9800002801D101E0FAE7A9E7FDE780B586B09E
:101FA80003900491059205980399049AFEF778F82E
:101FB80002900191FFE70298019906B080BD80B5B3
:101FC80084B001900291039203980199029A00F05B
:101FD80059F80090FFE7009804B080BD84B00090E5
:101FE80001910098019902900391039804B07047F9
:101FF80080B58EB0079008910798089900F03CF8D2
:102008000B90FFE70B98FEF772FEFFE7FFE704204F
:102018000D900D980690FFE7069800280AD0FFE774
:102028000B980799089A059008461146FFF7D6FFBE
:10203800049012E00B980799089A039008461146F5
:10204800FFF7CCFF0290FFE70398029904F07FF8AE
:102058000190FFE701980C9006E005980499FEF7B7
:102068002BFE0C90FFE7FFE70B980C9909900A915B
:1020780009980A990EB080BD82B00090019100982D
:1020880002B0704780B586B0039004910592049819
:10209800059902F01FF90290FFE70399029804F0EE
:1020A8003CF80190FFE7019806B080BD80B58AB082
:1020B800029002980068FEF71AFEFFE7FFE7042087
:1020C800049004980190FFE70198002807D0FFE7E3
:1020D80002984068FEF70BFEFFE7FFE7FFE702986C
:1020E80001684068814226D0FFE7029805900120E8
:1020F800069004200990099800280DD0FFE705985C
:1021080000680890059800680699FEF7E2FD0599B1
:102118000860089807900BE00598406806994942BE
:1021280004F022F805994860059800680790FFE7D1
:102138000798009002E00020039002E000980390C6
:10214800FFE703980AB080BDF0B5A5B0109001F084
:10215800EBFC0F90FFE701F0EBFC0E90FFE701F0BE
:10216800EBFC0D90FFE721A80F9901700E9A4270C1
:102178000D9B837001F0B4FC0C90FFE701F0B4FCF8
:102188000B90FFE701F0B4FC0A90FFE701F0B4FC04
:102198000990FFE701F0B4FC0890FFE701F0B4FCF8
:1021A8000790FFE701F0B4FC0690FFE701F0B4FCEC
:1021B8000590FFE701F0B4FC0490FFE722A80C9912
:1021C80001700B9A42700A9B8370099CC470089D29
:1021D8000571079E4671069F87710599C17104991B
:1021E800017202211D9121A98A781DAB9A71497843
:1021F800597121991971D91D09220390084603992B
:10220800029304F0D5FD02990190084600F00CF8FD
:10221800FFE720981099C8601F9888601E9848604A
:102228001D98086025B0F0BD80B592B0059005985E
:10223800001D01F05BFB04900391FFE704980690F2
:1022480003990791FFE706A800F02BFC0990FFE728
:102258000998411E02468A41002801D0FFE707E09D
:102268000598C01D01F034FB029001910BE0FEDEE1
:1022780009980A900A98089008980B900B9801F012
:102288008BFAFFE7DFE702980C9001990D91FFE7C1
:102298000CA800F006FC0F90FFE70F98411E0246BD
:1022A8008A41002801D0FFE702E012B080BDFEDEBF
:1022B8000F98109010980E900E981190119801F0A8
:1022C800A7FAFFE7E4E7D4D410B5CEB017AA0023E5
:1022D80013721893179310AA13461B330F910E907D
:1022E8000D930C928BE05748052100F025FB0B90CD
:1022F8000A91FFE70A98009020A80999089A0B9B71
:1023080000F02EFAFFE71AA820A901F0EBF8FFE782
:102318001AA826A91CC81CC11CC81CC1FFE726A8EE
:1023280000F0BEFC2F912E90FFE72E98411E02462A
:102338008A41002801D0FFE707E010A91B220E9868
:1023480004F036FD4EB010BDFEDE2E982F99309069
:102358003191309831992C902D912C9832902D985C
:1023680033903298052101F0C5FF07900691FFE7E9
:10237800339B3AA80799069A00F012FAFFE734A8A7
:102388003AA901F0A3F8FFE734A840A91CC81CC16A
:102398001CC81CC1FFE740A800F08FFC4991489079
:1023A800FFE74898411E02468A41002801D0FFE70E
:1023B80001E0B4E7FEDE489849994A904B914A9863
:1023C8004B994690479146984C9047984D904C9819
:1023D80000784D99096802290590049125D8FFE7EE
:1023E8004D9840680828039025D8FFE709200499EC
:1023F800484310AA1018059A039BC254CBE70C98BF
:102408000D998842029009D0FFE717A9092202987E
:1024180004F0CEFC029909310C91F0E705210F98E0
:1024280000F0CEFA099008915DE707480322049965
:1024380003F0E8FFFEDE04480922039903F0E2FFF7
:10244800FEDEC046EC720000B473000010B5A0B008
:10245800089009910A9312A819210790069111462C
:10246800069A04F0A5FC0BA9059008460799FFF702
:102478002BFFFFE70898099919AA0BAB1B240490B6
:102488001046039119460292224604F091FC0A9BD9
:102498000499019008460399029A00F003F8FFE7AF
:1024A80020B010BD10B5D8B01290139114931498A1
:1024B8001299091D0323119008461946109201F03C
:1024C80029FA0F90FFE71298026800200F990E90E2
:1024D80008460E990E9B04F082FC4A1E9141002981
:1024E8000D9000D0E8E00D98002800D1EAE011989E
:1024F8000D9904F0A4FC15901598002116911790D9
:102508001698179901F048FE0C900B91FFE70C986C
:1025180018900B991991FFE718A801F0F2FD1C918A
:102528001B90FFE71B98002801D0FFE702E058B096
:1025380010BDFEDE1C981D901D981A901298001D63
:10254800032101F0F1F90A900991FFE7032110989E
:1025580000F0AEF908900791FFE70798009024A8CB
:102568000A99099A089B00F0DBF8FFE71EA824A93E
:1025780000F0A6FFFFE71EA82AA91CC81CC11CC89A
:102588001CC1FFE72AA800F0A5FB33913290FFE7B2
:102598003298411E02468A41002801D0FFE701E037
:1025A800BAE7FEDE329833993490359134983599EC
:1025B800309031913098369031983790369801F0B4
:1025C80027F9FFE71298C01D092101F0ADF906901F
:1025D8000591FFE73798092101F08CFE04900391DB
:1025E800FFE7039800903EA80699059A049B00F01F
:1025F80077F8FFE738A83EA900F06EFFFFE738A894
:1026080044A91CC81CC11CC81CC1FFE744A800F091
:102618006EFB4D914C90FFE74C98411E02468A4153
:10262800002801D0FFE706E013981299096801F025
:10263800A3FF17E0FEDE4C984D994E904F914E98AF
:102648004F994A904B914A9850904B985190519875
:102658000078002805D0FFE7509801F09DF8FFE7C3
:10266800FFE7D3E71298C01D01F032F902900191FB
:10267800FFE70298529001995391FFE752A800F0A2
:1026880010FA5590FFE75598411E02468A410028E6
:1026980001D0FFE704E0369801F07EF80BE0FEDE9B
:1026A800559856905698549054985790579801F0CA
:1026B800AFF8FFE7E2E765E70748084A212103F09A
:1026C8008FFEFEDE0248034A192103F089FEFEDE72
:1026D800D072000004740000E0730000C4730000AE
:1026E80010B58AB00C9C0691079208930994069934
:1026F800079A089B099C0590184604912146039265
:1027080000F0C1F902900191FFE701980090059847
:102718000499039A029B00F0B1FEFFE70AB010BDCE
:1027280010B58AB00C9C06910792089309940699F3
:10273800079A089B099C0590184604912146039224
:1027480000F0A8F902900191FFE701980090059820
:102758000499039A029B00F080FEFFE70AB010BDBF
:1027680010B58AB00C9C06910792089309940699B3
:10277800079A089B099C05901846049121460392E4
:1027880000F07AF902900191FFE70198009005980E
:102798000499039A029B00F082FEFFE70AB010BD7D
:1027A80080B58AB00791089209930799089A099BFE
:1027B800069018460591049200F031FA03900291B0
:1027C800FFE70298009006980599049A039B00F089
:1027D80033FEFFE70AB080BD84B0009001910098F5
:1027E800019902900391039804B0704784B0009057
:1027F80001910098019902900391039804B07047E1
:1028080084B0009001910098019902900391039877
:1028180004B0704784B0009001910098019902902B
:102828000391039804B0704780B58EB00790089163
:102838000798089900F01AF90B90FFE70B9800F039
:10284800A1FFFFE7FFE708200D900D980690FFE72E
:10285800069800280AD0FFE70B980799089A059070
:1028680008461146FFF7B8FF049012E00B98079945
:10287800089A039008461146FFF7AEFF0290FFE75B
:102888000398029903F063FC0190FFE701980C900C
:1028980006E00598049900F002FF0C90FFE7FFE7B7
:1028A8000B980C9909900A9109980A990EB080BD65
:1028B80080B58EB0079008910798089900F0D0F875
:1028C8000B90FFE70B9800F03FFFFFE7FFE70920B9
:1028D8000D900D980690FFE7069800280AD0FFE7AC
:1028E8000B980799089A059008461146FFF77EFF4E
:1028F800049012E00B980799089A0390084611462D
:10290800FFF774FF0290FFE70398029903F01FFC9A
:102918000190FFE701980C9006E00598049900F0F3
:10292800A4FE0C90FFE7FFE70B980C9909900A9119
:1029380009980A990EB080BD80B58EB007900891AD
:102948000798089900F080F80B90FFE70B9800F0C3
:1029580005FFFFE7FFE728200D900D980690FFE799
:10296800069800280AD0FFE70B980799089A05905F
:1029780008461146FFF74EFF049012E00B9807999E
:10298800089A039008461146FFF744FF0290FFE7B4
:102998000398029903F0DBFB0190FFE701980C9084
:1029A80006E00598049900F06DFE0C90FFE7FFE73C
:1029B8000B980C9909900A9109980A990EB080BD54
:1029C80080B58EB0079008910798089900F042F8F2
:1029D8000B90FFE70B9800F0CBFEFFE7FFE7052021
:1029E8000D900D980690FFE7069800280AD0FFE79B
:1029F8000B980799089A059008461146FFF700FFBB
:102A0800049012E00B980799089A0390084611461B
:102A1800FFF7F6FE0290FFE70398029903F097FB91
:102A28000190FFE701980C9006E00598049900F0E2
:102A380043FE0C90FFE7FFE70B980C9909900A9169
:102A480009980A990EB080BD82B000900191009853
:102A580002B0704782B000900191009802B07047B0
:102A680082B000900191009802B0704782B0009047
:102A78000191009802B0704782B0009001910098CF
:102A8800019902B0704782B00090019100980199B5
:102A980002B0704782B0009001910098019902B08D
:102AA800704780B58AB002900298006800F006FF6F
:102AB800FFE7FFE70120049004980190FFE70198E1
:102AC800002807D0FFE70298406800F0F7FEFFE70C
:102AD800FFE7FFE7029801684068814225D0FFE7D9
:102AE80002980590012006900990099800280DD0B9
:102AF800FFE705980068089005980068069900F0B7
:102B0800D0FE05990860089807900BE00598406882
:102B18000699494203F0F4F9059948600598006858
:102B28000790FFE70798009002E00020039002E07A
:102B380000980390FFE703980AB080BD80B584B081
:102B48000290039102980068039900F09BFD0190A0
:102B5800FFE7019804B080BD80B584B0029003916E
:102B680002980068039900F0A7FD0190FFE701981B
:102B780004B080BD80B584B00290039102980068CB
:102B8800039900F08CFD0190FFE7019804B080BD27
:102B980080B584B00290039102980068039903F00D
:102BA800BCF90190FFE7019804B080BD80B584B0FE
:102BB8000290039102980068039900F056FD019075
:102BC800FFE7019804B080BD0020704700207047DF
:102BD80080B584B00290039102980068039900F0D0
:102BE80053FE0190FFE7019804B080BD00207047B4
:102BF80083B00090009802900020019001980299FB
:102C080003B0704780B584B002900391029803998D
:102C180000F013F80090FFE7009804B080BD80B57D
:102C280084B0039003980521FFF7FEFD02900191FF
:102C3800FFE70298019904B080BD83B0009001912C
:102C48000098006801990968884207D3FFE700984F
:102C5800006801990968884208D003E002A8FF21AA
:102C6800017008E002A80121017003E002A8002118
:102C78000170FFE7FFE7029803B0704784B0029045
:102C88000391029800680399096801220023884289
:102C98000193009201D301980090009804B0704706
:102CA80080B584B00390039800F043FA0290019134
:102CB800FFE70298019904B080BD80B584B0039005
:102CC800039800F038FB02900191FFE70298019900
:102CD80004B080BD80B584B00390039800F0AAFAD0
:102CE80002900191FFE70298019904B080BD80B578
:102CF80084B00390039800F09BF902900191FFE7DC
:102D08000298019904B080BDB0B596B01A9C0391A1
:102D180004920593069403A90891089909680A91F1
:102D28000A990D9105210E910E990B910B99002985
:102D380002900BD0FFE7089840680A99401A0C9057
:102D48000C980B9904F07BF8099006E00898406805
:102D58000A9901F0C9F90990FFE709980190FFE77E
:102D680005A80F900F9800681190119814902820CA
:102D7800159015981290129800280BD0FFE70F981D
:102D880040681199401A13901398129904F057F853
:102D9800109006E00F984068119901F0A5F910907D
:102DA800FFE710990091FFE70198009901F034FAC4
:102DB8000790FFE703980499059A069B079C029DD4
:102DC80028606960AA60EB60002028616C6116B019
:102DD800B0BDB0B596B01A9C0391049205930694C1
:102DE80003A90891089909680A910A990D91012186
:102DF8000E910E990B910B99002902900BD0FFE7C9
:102E0800089840680A99401A0C900C980B9904F09D
:102E180016F8099006E0089840680A9901F064F9E4
:102E28000990FFE709980190FFE705A80F900F9810
:102E38000068119011981490092015901598129017
:102E4800129800280BD0FFE70F9840681199401A94
:102E580013901398129903F0F2FF109006E00F9860
:102E68004068119901F040F91090FFE7109900911E
:102E7800FFE70198009901F0CFF90790FFE7039861
:102E88000499059A069B079C029D28606960AA60C0
:102E9800EB60002028616C6116B0B0BDB0B596B08B
:102EA8001A9C039104920593069403A90891089922
:102EB80009680A910A990D9101210E910E990B91B9
:102EC8000B99002902900BD0FFE7089840680A99EF
:102ED800401A0C900C980B9903F0B1FF099006E08A
:102EE800089840680A9901F0FFF80990FFE70998E7
:102EF8000190FFE705A80F900F98006811901198AE
:102F080014900120159015981290129800280BD053
:102F1800FFE70F9840681199401A13901398129977
:102F280003F08DFF109006E00F984068119901F0AA
:102F3800DBF81090FFE710990091FFE701980099DE
:102F480001F06AF90790FFE703980499059A069B30
:102F5800079C029D28606960AA60EB6000202861D8
:102F68006C6116B0B0BDB0B596B01A9C03910492CE
:102F78000593069403A90891089909680A910A9982
:102F88000D9101210E910E990B910B990029029038
:102F98000BD0FFE7089840680A99401A0C900C98E3
:102FA8000B9903F04CFF099006E0089840680A99CD
:102FB80001F09AF80990FFE709980190FFE705A842
:102FC8000F900F9800681190119814900820159090
:102FD80015981290129800280BD0FFE70F984068B8
:102FE8001199401A13901398129903F028FF109022
:102FF80006E00F984068119901F076F81090FFE705
:1030080010990091FFE70198009901F005F90790E0
:10301800FFE703980499059A069B079C029D286080
:103028006960AA60EB60002028616C6116B0B0BDD1
:1030380080B594B00690069801694069814204D32E
:10304800FFE7FFF7D3FD059050E006980069099067
:1030580006980169491C016106980999FFF7B8FDAE
:103068000490FFE7069808300999FFF791FD03904F
:10307800FFE704980A9003990B910A9A0B9B079211
:10308800089352E00CA80121017029E00CA8002146
:10309800017025E0069801690D900D9800680F9061
:1030A8000F981290012013901398109010980028F0
:1030B80002910BD0FFE70D9840680F99401A1190C4
:1030C8001198109903F0BBFE0E9006E00D98406829
:1030D8000F9901F009F80E90FFE70E9801900AE0A9
:1030E8000CA80078C00700280FD109E00598C1078F
:1030F8000029CFD1CAE7029801998842C2D3C5E70F
:1031080000200890079007900EE006980169FFF7E5
:103118005FFDFFE7FFE706980169491C0161002090
:10312800089007900790FFE7FFE70798089914B001
:1031380080BD80B594B006900698016940698142C7
:1031480004D3FFE7FFF742FD059050E006980069B9
:10315800099006980169491C016106980999FFF7C9
:10316800FBFC0490FFE7069808300999FFF7E6FC96
:103178000390FFE704980A9003990B910A9A0B9B16
:103188000792089352E00CA80121017029E00CA8CD
:103198000021017025E0069801690D900D980068DE
:1031A8000F900F9812900520139013981090109874
:1031B800002802910BD0FFE70D9840680F99401A3C
:1031C80011901198109903F03AFE0E9006E00D98B0
:1031D80040680F9900F088FF0E90FFE70E98019065
:1031E8000AE00CA80078C00700280FD109E005986C
:1031F800C1070029CFD1CAE7029801998842C2D3F2
:10320800C5E700200890079007900EE0069801692E
:10321800FFF7A2FCFFE7FFE706980169491C016177
:103228000020089007900790FFE7FFE707980899A4
:1032380014B080BD80B594B00690069801694069C5
:10324800814204D3FFE7FFF7D1FC059050E00698D0
:103258000069099006980169491C01610698099955
:10326800FFF7B6FC0490FFE7069808300999FFF7C6
:103278009DFC0390FFE704980A9003990B910A9A22
:103288000B9B0792089352E00CA80121017029E0DA
:103298000CA80021017025E0069801690D900D9891
:1032A80000680F900F9812900120139013981090B7
:1032B8001098002802910BD0FFE70D9840680F99ED
:1032C800401A11901198109903F0B9FD0E9006E07C
:1032D8000D9840680F9900F007FF0E90FFE70E98D1
:1032E80001900AE00CA80078C00700280FD109E077
:1032F8000598C1070029CFD1CAE7029801998842E9
:10330800C2D3C5E700200890079007900EE0069802
:103318000169FFF75DFCFFE7FFE706980169491CB3
:1033280001610020089007900790FFE7FFE70798E2
:10333800089914B080BD80B594B0069006980169CC
:103348004069814204D3FFE7FFF73EFC059050E057
:1033580006980069099006980169491C0161069858
:103368000999FFF715FC0490FFE7069808300999BA
:10337800FFF700FC0390FFE704980A9003990B916C
:103388000A9A0B9B0792089352E00CA8012101703E
:1033980029E00CA80021017025E0069801690D902C
:1033A8000D9800680F900F981290012013901398B1
:1033B80010901098002802910BD0FFE70D984068F4
:1033C8000F99401A11901198109903F038FD0E903A
:1033D80006E00D9840680F9900F086FE0E90FFE712
:1033E8000E9801900AE00CA80078C00700280FD1B9
:1033F80009E00598C1070029CFD1CAE702980199C9
:103408008842C2D3C5E700200890079007900EE0D5
:1034180006980169FFF7BCFBFFE7FFE7069801691B
:10342800491C01610020089007900790FFE7FFE71B
:103438000798089914B080BD10B586B0089C029111
:103448000392049305940299039A049B059C0094A3
:10345800FFF789FDFFE706B010BD10B586B0089CE0
:1034680002910392049305940299039A049B059C84
:103478000094FFF7AEFCFFE706B010BD10B586B0AC
:10348800089C02910392049305940299039A049B61
:10349800059C0094FFF702FDFFE706B010BD10B5CC
:1034A80086B0089C02910392049305940299039AAA
:1034B800049B059C0094FFF727FCFFE706B010BDAE
:1034C80010B51CC91CC01CC91CC010BD10B51CC936
:1034D8001CC01CC91CC010BD10B51CC91CC01CC90F
:1034E8001CC010BD10B51CC91CC01CC91CC010BD17
:1034F80080B588B0019002910392019804900298D7
:1035080005900420079007980090FFE7039800991A
:103518004843069004980599069A00F02AF8FFE7B0
:1035280008B080BD80B586B0029003910420059054
:1035380005980190FFE70198202806D3FFE7029835
:1035480003990122FFF7D4FF10E0029802F04AFE27
:103558000490FFE703980299012202F021FEFFE799
:103568000398049902F01DFFFFE700E0FFE706B0AB
:1035780080BDD0B502AFACB06C4664096401A54605
:103588000390049105922020279027980690FFE742
:1035980000200790FFE70798069940180599884288
:1035A80005D9FFE70798059988422DD359E0FFE729
:1035B80008A82A902A982B902B980290FFE7029847
:1035C80017900398079902F0A8FD1890FFE7049850
:1035D800079902F0A2FD1990FFE718981799069A23
:1035E80002F08EFDFFE719981899069A02F088FDF7
:1035F800FFE717981999069A02F082FDFFE70698E7
:10360800079908180790C6E7FFE705980799401A31
:1036180023901AA828902898299029980190FFE7C4
:10362800019824900398079902F077FD2590FFE709
:103638000498079902F071FD2690FFE725982499D0
:10364800239A02F05DFDFFE726982599239A02F058
:1036580057FDFFE724982699239A02F051FDFFE7CA
:10366800FFE7FC1F013CA546D0BD80B584B00290A1
:1036780003910298039900F04AF80190FFE7019836
:1036880004B080BD80B584B002900391029803997C
:1036980000F01FF80190FFE7019804B080BD80B5E5
:1036A80084B0029003910298039900F03FF80190CA
:1036B800FFE7019804B080BD80B584B00290039103
:1036C8000298039900F014F80190FFE7019804B0FC
:1036D80080BD84B0019002910198029928224A4342
:1036E8008018039003980090FFE7009804B0704793
:1036F80084B0019002910198029905224A438018EA
:10370800039003980090FFE7009804B0704784B0D6
:10371800019002910198029909224A438018039066
:1037280003980090FFE7009804B0704784B00190B8
:10373800029101980299C9004018039003980090DB
:10374800FFE7009804B0704782B00190019800909C
:10375800FFE700984142484102B0704782B00190AB
:1037680001980090FFE700984142484102B0704735
:1037780082B0019001980090FFE7009841424841CB
:1037880002B0704782B0019001980090FFE700985E
:103798004142484102B0704780B584B0019002F0C0
:1037A8008DFC0290FFE702980449401801A9039193
:1037B800039900F0EAFBFFE704B080BD0C050000A8
:1037C80080B586B004900591059804990968097830
:1037D8001F220B46134001229A400906490F00296F
:1037E8000390029209D1FFE70398029900F0AEF91D
:1037F8000190FFE7019806B080BD0348034A2321E2
:1038080002F0EEFDFEDEC046807400006C7400001D
:1038180080B584B0019002F051FC0290FFE7029855
:10382800A121C900401801A90391039900F0C9FB1F
:10383800FFE704B080BDD4D480B586B0049005916C
:1038480005980499096809781F220B46134001223C
:103858009A400906490F00290390029209D1FFE70F
:103868000398029900F07DF90190FFE7019806B0EE
:1038780080BD0348034A232102F0B2FDFEDEC046A4
:1038880080740000A474000080B584B00290039195
:103898000298039900F005F80190FFE7019804B039
:1038A80080BD84B00190029101980299401803905C
:1038B80003980090FFE7009804B0704782B0019029
:1038C80001980090FFE700984142484102B07047D4
:1038D80080B584B003900398092100F025F8029080
:1038E8000191FFE70298019904B080BD80B584B0CA
:1038F80003900398032100F017F802900191FFE765
:103908000298019904B080BD82B00090019100989E
:1039180002B0704784B0009001910098019902901C
:103928000391039804B0704780B58EB00790089152
:1039380007980899FFF7E8FF0B90FFE70B98FFF748
:10394800BDFFFFE7FFE701200D900D980690FFE708
:10395800069800280AD0FFE70B980799089A05905F
:1039680008461146FFF7D6FF049012E00B98079916
:10397800089A039008461146FFF7CCFF0290FFE72C
:103988000398029902F0AFFA0190FFE701980C90B2
:1039980006E005980499FFF777FF0C90FFE7FFE72B
:1039A8000B980C9909900A9109980A990EB080BD54
:1039B80080B584B002F082FB0390FFE703983B21B7
:1039C800490140180290029800F017FBFFE704B085
:1039D80080BD80B58CB00B900B9800F0CDF80990A5
:1039E800FFE7099800F041F90890FFE7089800F010
:1039F800D1F80790FFE7079800F017FA0690FFE75D
:103A0800069800F0C0F80590FFE7059800F0E5F982
:103A18000490FFE7049800F0CBF80390FFE70398C1
:103A280000F0A4FA0290FFE7029800F0BAF80190BB
:103A3800FFE7019800F01EFA0090FFE700980CB02D
:103A480080BDD4D480B584B002F038FB0390FFE782
:103A58000398044940180290029800F0E8FAFFE73A
:103A680004B080BD6407000080B58CB00B900B9843
:103A780000F082F80990FFE7099800F0E7F808904D
:103A8800FFE7089800F086F80790FFE7079800F02E
:103A9800CCF90690FFE7069800F075F80590FFE767
:103AA800059800F09AF90490FFE7049800F080F870
:103AB8000390FFE7039800F059FA0290FFE7029895
:103AC80000F06FF80190FFE7019800F0F9F9009015
:103AD800FFE700980CB080BD81B0192001B0704795
:103AE80081B0042001B0704781B0052001B0704753
:103AF80081B0062001B0704781B0072001B070473F
:103B080081B0082001B0704781B0092001B070472A
:103B180081B00A2001B0704781B00B2001B0704716
:103B280081B00C2001B0704781B00D2001B0704702
:103B380081B00E2001B0704781B00F2001B07047EE
:103B480081B0182001B070470020704782B0009003
:103B58000191019800990860009802B07047002010
:103B6800704782B000900191019800990860009810
:103B780002B070470220704782B000900098019010
:103B8800019802B0704782B00090009801900198A7
:103B980002B0704782B0009000980190019802B07E
:103BA800704782B0009000980190019802B0704769
:103BB80082B0009000980190019802B0704782B0DE
:103BC800009000980078C007002805D0FFE701A8FA
:103BD8000121017004E0FEDE01A800210170FFE769
:103BE80001A8007802B0704783B00190019800786E
:103BF8000028009009D0FFE70098012809D0FFE7C6
:103C080002A80321017008E0FEDE02A8002101706D
:103C180003E002A801210170FFE7029803B0704792
:103C280010B583B00A46019002A8017001990B688B
:103C38000124A3430B6000780090FFE70198016816
:103C4800009A11430160019803B010BD80B584B09B
:103C58000290029803A900220A70097800F014F86B
:103C68000190FFE7019804B080BD80B584B0029050
:103C7800029803A901220A70097800F005F801905A
:103C8800FFE7019804B080BD80B586B00A4604906D
:103C980005A80170049903920291FFF790FF019023
:103CA800FFE70120019901400298FFF7B9FF009052
:103CB800FFE7009806B080BD83B0019001980078B6
:103CC800009000987844007940008744080C10144C
:103CD800181C200302A8072101701CE0FEDE02A8C0
:103CE8000021017017E002A80121017013E002A869
:103CF800022101700FE002A8032101700BE002A865
:103D08000421017007E002A80521017003E002A860
:103D180006210170FFE7029803B0704782B0009057
:103D280000980078C007002805D0FFE701A8012106
:103D3800017004E0FEDE01A800210170FFE701A880
:103D4800007802B0704783B001900198007800288D
:103D5800009009D0FFE70098012809D0FFE702A8E2
:103D68000321017008E0FEDE02A80021017003E0D3
:103D780002A802210170FFE7029803B0704710B54E
:103D880083B00A46019002A8017001990B680C24BF
:103D9800A3430B6000788007000F0090FFE70198AD
:103DA8000168009A11430160019803B010BD80B505
:103DB80086B00A46049005A80170049903920291FE
:103DC800FFF712FF0190FFE702980199FFF7D7FF6D
:103DD8000090FFE7009806B080BD80B584B00290DF
:103DE800029803A900220A700399FFF7E0FF0190E7
:103DF800FFE7019804B080BD10B583B00A46019072
:103E080002A8017001990B6807242402A3430B60E0
:103E180000784007400D0090FFE701980168009A7C
:103E280011430160019803B010BD80B584B00290C1
:103E3800029803A900220A70039900F005F801907E
:103E4800FFE7019804B080BD80B586B00A460490AB
:103E580005A80170049903920291FFF72DFF0190C4
:103E6800FFE702980199FFF7C7FF0090FFE7009866
:103E780006B080BD80B584B00290029803A90122E3
:103E88000A70097800F02BF80190FFE7019804B058
:103E980080BD10B583B00A46019002A8017001994F
:103EA8000B680224A3430B60007840000090FFE7F2
:103EB80001980168009A11430160019803B010BD90
:103EC80080B584B00290029803A900220A7009788C
:103ED80000F005F80190FFE7019804B080BD80B5B7
:103EE80086B00A46049005A80170049903920291CD
:103EF800FFF714FF0190FFE70120019901400298A4
:103F0800FFF7C7FF0090FFE7009806B080BD10B527
:103F180083B00A46019002A8017001990B68032436
:103F28002404A3430B6000788007800B0090FFE710
:103F380001980168009A11430160019803B010BD0F
:103F480080B586B00A46049005A8017004990392CA
:103F58000291FFF7F8FE0190FFE702980199FFF739
:103F6800D6FF0090FFE7009806B080BD80B584B00A
:103F78000290029803A900220A700399FFF7E0FF54
:103F88000190FFE7019804B080BD80B586B000902D
:103F98000191FFF7D9FD0290FFE7019802A903916B
:103FA8000399FFF70DFCFFE700980299049005912B
:103FB800049802F0F0F8059902F00BF9FFE706B053
:103FC80080BD80B586B000900191FFF7C8FD0290D2
:103FD800FFE7019802A903910399FFF72DFCFFE77A
:103FE8000098029904900591049802F0D4F8059974
:103FF80002F0EFF8FFE706B080BD80B586B000900C
:10400800FFF7B8FD0290FFE702A803900398FFF7B7
:10401800E0FCFFE70098029904900591049802F0EB
:10402800BAF8059902F0D5F8FFE706B080BD80B56B
:1040380086B00090FFF79EFD0290FFE702A803906C
:104048000398FFF711FDFFE7009802990490059186
:10405800049802F0A0F8059902F0BBF8FFE706B053
:1040680080BD80B588B0029003910298039900F052
:104078001BF801900091FFE7019806900121009A32
:104088000A4007A90A700978C907002905D1FFE77E
:10409800069805900120049002E000200490FFE7B4
:1040A8000498059908B080BD8AB0029003910298DF
:1040B8000399002240185241089008A802710898F4
:1040C800099901900091FFE7019806900121009A53
:1040D8000A4007A90A700699079A049104A90A7167
:1040E800049809790AB0704784B001900291019848
:1040F8000299401A039003980090FFE7009804B0D3
:10410800704780B588B0019007A800210170019818
:10411800011DFEF7B3FD0090FFE70098C1070029D5
:1041280003D1FFE7002002901FE0019807A90122B0
:104138000A70114600F037F805910490FFE70498DB
:10414800012803D0FFE70020029021E007A8002102
:10415800017005980690019906A800F045F8FFE758
:10416800069803900120029012E00298039908B083
:1041780080BD07A800210170F7E707A80078C007ED
:104188000028F6D0FFE707A800210170F1E7F0E763
:1041980004980128F1D0FAE782B0009001910098C4
:1041A800019902B0704780B588B0019002910298D9
:1041B800FEF71EFD06910590FFE70598002804D03C
:1041C800FFE7002003900BE0FEDE069807900198B9
:1041D80000680799FFF745FF04910390FFE7FFE7A1
:1041E8000398049908B080BD80B582B00090019111
:1041F80000980199FFF796F9FFE702B080BD80B5F6
:1042080084B0029003910298039900F012F801908B
:10421800FFE7019804B080BD80B584B00290039197
:1042280002980399FFF7EBFF0190FFE7019804B0AC
:1042380080BD80B58AB00190029109A80021017063
:1042480008AA117001210170117001A8069002A836
:10425800079006980799FEF7D5FC05A90870FFE7AF
:1042680005A8007840B2401C022807D3FFE708A839
:10427800002101700298049006E0FEDE09A80021E2
:10428800017001980490FFE708A80078C00700288B
:1042980009D1FFE709A80078C007002807D1FFE780
:1042A80004980AB080BD08A800210170F2E709A8A7
:1042B80000210170F4E780B584B002900391029860
:1042C800039901F001FE01900091FFE70198009920
:1042D80004B080BD82B000900191009802B0704790
:1042E80084B000900191009801990290039103987D
:1042F80004B0704780B58EB0079008910798089968
:1043080000F03CF80B90FFE70B9801F020FEFFE768
:10431800FFE701200D900D980690FFE7069800280A
:104328000AD0FFE70B980799089A059008461146A6
:10433800FFF7D6FF049012E00B980799089A0390AC
:1043480008461146FFF7CCFF0290FFE70398029951
:1043580001F0FDFE0190FFE701980C9006E005983A
:10436800049901F0DAFD0C90FFE7FFE70B980C9930
:1043780009900A9109980A990EB080BD82B0009000
:104388000191009802B0704780B584B00290039103
:1043980002980399FFF7A4FF0190FFE701984142B3
:1043A800484104B080BD80B584B002900391029862
:1043B8000399FFF79FFF01900091FFE7019800998B
:1043C80004B080BD80B58AB002900298006801F000
:1043D800BEFDFFE7FFE70120049004980190FFE786
:1043E8000198002807D0FFE70298406801F0AFFD68
:1043F800FFE7FFE7FFE7029801684068814225D0A0
:10440800FFE7029805900120069009900998002876
:104418000DD0FFE705980068089005980068069990
:1044280001F088FD05990860089807900BE0059849
:1044380040680699494201F097FE05994860059839
:1044480000680790FFE70798009002E000200390BB
:1044580002E000980390FFE703980AB080BD80B59A
:1044680086B0014602AA1070009101F083F9FFE7B7
:10447800029904A800F025FEFFE705A800210170B5
:10448800059904A800F054FFFFE706B080BDD4D416
:1044980010B590B01946144609900B930A920998E2
:1044A8000891079400F0E8FDC0B20690FFE70B9B67
:1044B8000A9A069800F0DAFC05900491FFE71C4A76
:1044C8001C230598049901F04CFD0C90FFE70C980B
:1044D80000F06DFC03900291FFE7164A1C23039835
:1044E800029901F08BFD0D90FFE7099800F018FE86
:1044F800FFE709980EA900220A700D9A0E9900F09C
:104508005FFEFFE7099800F026FEFFE7FFE709983E
:104518000FA900220A700F9900F0ECFE0190FFE746
:104528000198C107002902D0FFE710B010BDEEE7DF
:10453800B4740000D074000080B586B00490059172
:10454800049805990390084600F0A4FB0291019095
:10455800FFE70398019A029BFFF79AFFFFE706B06F
:1045680080BD80B584B003A8042101700398FFF7CB
:1045780076FFFFE704B080BD80B582B0009001915E
:1045880000980199FFF7D8FFFFE702B080BD10B58A
:1045980086B01946144603930292039A002A0190A2
:1045A80006D1FFE70298019948600020087008E0EA
:1045B80005A802210170059801994870012008702A
:1045C800FFE706B010BD81B001466A46107010784A
:1045D80001B0704781B0009001B0704781B0009081
:1045E800009801B0704780B584B0014603AA1070E6
:1045F80003980291FFF7E7FF0190FFE7019804B0E5
:1046080080BD80B582B001900198FFF7E7FF009068
:10461800FFE7009802B080BD80B584B00190019892
:104628000390039801F0B7FD01F0C8FD0090FFE783
:1046380000980290029804B080BD80B582B00190C5
:10464800019800F003F8FFE702B080BD80B586B09E
:10465800009001F059F80290FFE702A80390039830
:1046680001F054F8FFE70098029904900591049826
:1046780001F091FD059901F0ACFDFFE706B080BDA2
:1046880080B586B0009001F046F80290FFE702A8D6
:104698000390039801F05BF9FFE7009802990490F2
:1046A8000591049801F077FD059901F092FDFFE767
:1046B80006B080BD80B586B0009001F0BEF90290CA
:1046C800FFE702A80390039801F035F9FFE7009887
:1046D800029904900591049801F05DFD059901F097
:1046E80078FDFFE706B080BD80B586B0009001F088
:1046F800AFF90290FFE702A80390039801F0B6F81B
:10470800FFE70098029904900591049801F043FD91
:10471800059901F05EFDFFE706B080BD80B586B063
:104728000090019101F094F90290FFE7019802A925
:104738000391039901F05CF9FFE70098029904904E
:104748000591049801F027FD059901F042FDFFE766
:1047580006B080BD80B586B0009000F09AF802904F
:10476800FFE702A80390039801F0D5F8FFE7009847
:10477800029904900591049801F00DFD059901F046
:1047880028FDFFE706B080BD80B586B00090019196
:1047980001F054FC0290FFE7019802A903910399E4
:1047A80001F08AF8FFE700980299049005910498AF
:1047B80001F0F1FC059901F00CFDFFE706B080BDA2
:1047C80080B586B00090019101F044FC0290FFE7AB
:1047D800019802A90391039901F054F8FFE70098A2
:1047E800029904900591049801F0D5FC059901F00F
:1047F800F0FCFFE706B080BD80B588B00A4602909D
:1048080003A80170019200F0C4F80490FFE7039830
:1048180004A90591059901F069F8FFE70298049940
:1048280006900791069801F0B6FC079901F0D1FCB3
:10483800FFE708B080BD0020704782B00190019862
:1048480002B0704781B000900098007801B07047BE
:1048580084B00190019800680090FFE70F2000994C
:10486800014003A80170039802A90870029804B0D7
:1048780070470420704782B0009001910198009918
:104888000860009802B0704782B00190019802B0A9
:1048980070470020704782B00090009801900198FE
:1048A80002B0704782B0009000980078C0070028D6
:1048B80005D0FFE701A80421017004E0FEDE01A88D
:1048C80000210170FFE7019802B0704710B583B06E
:1048D8000A46019002A8017001990B680724A343B6
:1048E8000B60007820400090FFE701980168009A6B
:1048F80011430160019803B010BD80B584B00290E7
:10490800029803A901220A70097800F005F80190BD
:10491800FFE7019804B080BD80B586B00A460490D0
:1049280005A80170049903920291FFF7BBFF01905B
:10493800FFE702980199FFF7C9FF0090FFE7009889
:1049480006B080BD83B001900291019800210160FA
:1049580002980090FFE701980168009A11430160EE
:10496800019803B0704780B586B00A46049005A840
:10497800017004990392029100F014F80190FFE786
:1049880002980199FFF7DEFF0090FFE7009806B054
:1049980080BD0020704782B0009000980190019877
:1049A80002B0704783B00190019800780090009899
:1049B80078440079400087440C1014171A1E2124EB
:1049C800272A2D3033373A0701200007029031E0BB
:1049D800FEDE4F20000302902CE09D200003029091
:1049E80028E02048029025E01D48029022E03B2064
:1049F800000402901EE0194802901BE0164802903D
:104A080018E01448029015E01148029012E00F488F
:104A180002900FE00C4802900CE00A48029009E06E
:104A280001208006029005E00548029002E0034854
:104A38000290FFE7029803B07047C04600D0BE0E50
:104A480000705F0700B0AF0300E0D70100903A01A3
:104A580000F0EB0000509D0000F0750000A04E0033
:104A68000050270000B0130010B583B00A4601902B
:104A780002A8017001990B6801242404A3430B6068
:104A8800007800040090FFE701980168009A11433C
:104A98000160019803B010BD80B582B00190019803
:104AA80000F005F80090FFE7009802B080BD80B5DF
:104AB80086B00490049805A90390084600F0D6F83B
:104AC8000290FFE70120029901400398FFF7CCFF0D
:104AD8000190FFE7019806B080BD10B583B00A4683
:104AE800019002A8017001990B6801246404A34392
:104AF8000B60007840040090FFE701980168009A75
:104B080011430160019803B010BD80B582B00190D7
:104B1800019800F005F80090FFE7009802B080BD0A
:104B280080B586B00490049805A90390084600F063
:104B3800A2F80290FFE70120029901400398FFF7CD
:104B4800CCFF0190FFE7019806B080BD10B583B097
:104B58000A46019002A8017001990B680124A40477
:104B6800A3430B60007880040090FFE70198016878
:104B7800009A11430160019803B010BD80B582B05E
:104B88000190019800F005F80090FFE7009802B046
:104B980080BD80B586B00490049805A903900846A6
:104BA80000F06EF80290FFE7012002990140039897
:104BB800FFF7CCFF0190FFE7019806B080BD10B564
:104BC80083B00A46019002A8017001990B6801247C
:104BD800E404A3430B600078C0040090FFE7019849
:104BE8000168009A11430160019803B010BD80B5B7
:104BF80082B00190019800F005F80090FFE7009856
:104C080002B080BD80B586B00490049805A90390D1
:104C1800084600F03AF80290FFE7012002990140A7
:104C28000398FFF7CCFF0190FFE7019806B080BD1D
:104C38000020704782B0009000980190019802B05F
:104C4800704782B0009000980190019802B07047B8
:104C580082B0009000980190019802B0704782B02D
:104C6800009000980190019802B0704781B00090C0
:104C7800012001B0704781B00090012001B0704759
:104C880081B00090012001B0704781B000900120F0
:104C980001B07047B0B592B00F900F9800210E90F8
:104CA80008460D910E9A0D9B02F099F84A1E914103
:104CB80010220E9B0C9018460D9C0B912146234602
:104CC80002F08DF80C9A89180D9B5B410B9C1C43D4
:104CD800002C0A91099039D1FFE77D20C0000021FE
:104CE8000A9A089010460791089A079B02F077F8ED
:104CF8004A1E9141079A0690104605911146099A55
:104D0800079B02F06CF84A1E9141059A0A430999DB
:104D1800049008460799089B03921A46079B02F0DD
:104D28005EF8069A049BD4180919079C6441039DF0
:104D38002543002D029101900ED1FFE701981090B4
:104D4800029911911098119912B0B0BD0548064A00
:104D5800212101F045FBFEDE0248034A212101F032
:104D68003FFBFEDE607500004475000080B582B030
:104D78000090009801F098F90190FFE70198A121AF
:104D8800C900401801F00DF8FFE702B080BD80B5FA
:104D980084B00390039800F07EFE0190FFE701982D
:104DA80000F0B7FE0090FFE7009804B080BD83B024
:104DB800009000980290002001900198029903B099
:104DC800704781B001466A461070107801B070478C
:104DD80086B0014603AA10701078092802900AD8F4
:104DE8000298C0467844007940008744090D11159F
:104DF800191D2125292D1B480590059A019227E0A8
:104E080004A80021017029E004A80121017025E00F
:104E180004A80221017021E004A8032101701DE00B
:104E280004A80421017019E004A80521017015E007
:104E380004A80621017011E004A8072101700DE003
:104E480004A80821017009E004A80921017005E0FF
:104E580005481621019A01F0C3FAFEDE049806B04F
:104E68007047C046F87500008175000070B58CB0B9
:104E780019461446054607AE3070099308920898FB
:104E8800099A3378069111461A460594049501F05B
:104E9800C0FF0022002A0391029010D1FFE70AA860
:104EA800029A039B01F001F8FFE70AA801F075F8E0
:104EB80001900091FFE7019800990CB070BD03487C
:104EC800034A242101F08CFAFEDEC0462076000059
:104ED8000876000080B58EB001A800F056F9FFE70B
:104EE80001A800F01DF9FFE701A801F0DDF8029024
:104EF800FFE702984649401800F0F1FEFFE701A8D5
:104F0800FFF734FFFFE701A801F0CEF80390FFE7B1
:104F1800039851210901401800F088FFFFE701A814
:104F280001F0C2F80490FFE70498012149024018F3
:104F380000F0F8FEFFE701A801F0B6F80590FFE7DA
:104F4800059815218901401800F08AFEFFE701A89D
:104F580001F0AAF80690FFE706982E49401800F0DD
:104F68007FFEFFE701A801F09FF80790FFE7079889
:104F7800A921C900401800F073FEFFE701A801F05D
:104F880093F80890FFE708982349401800F068FE56
:104F9800FFE701A801F088F80990FFE709980521C3
:104FA8008901401800F039FEFFE701A801F07CF8FC
:104FB8000A90FFE70A9851218900401800F02DFE59
:104FC800FFE701A801F070F80B90FFE70B98292183
:104FD800C900401800F021FEFFE701A801F064F8BD
:104FE8000C90FFE70C9853218900401800F015FE3B
:104FF800FFE701A801F058F80D90FFE70D9861212F
:10500800C900401800F0E7FEFFE70EB080BDC046BB
:1050180004050000440500004C05000080B58AB076
:1050280009900998FFF706FE0790FFE70798FFF732
:1050380033FD0690FFE70698FFF703FE0590FFE7AC
:105048000598FFF762FD0490FFE70498FFF700FE5C
:105058000390FFE70398FFF791FD0290FFE702989E
:10506800FFF7FDFD0190FFE70198FFF7C0FD0090F5
:10507800FFE700980AB080BD80B586B0019001981E
:1050880001F012F80590FFE7059851210901401831
:1050980000F0BBFE0490FFE704A8FFF7D9FB03A9C3
:1050A8000870FFE703A8FFF7CDFB02A90870FFE728
:1050B8000298FFF78DFEC0B20090FFE7009806B097
:1050C80080BD80B586B00A46019002A8017002989A
:1050D8000092FFF776FE0390FFE7019800F055F87D
:1050E800FFE7019800F0E0FF0490FFE704985121E2
:1050F8000901401803A90591059900F0BAFEFFE7D8
:1051080006B080BD80B584B00290039103980299DF
:105118000968FFF7B0FB0190FFE7019804B080BD74
:1051280080B582B00090009800F0BEFF0190FFE7C4
:1051380001980C3000F02CFDFFE702B080BD80B56F
:1051480084B003900398012100F08FFC0190FFE7E1
:10515800019804B080BD80B582B00090009800F03E
:10516800A3FF0190FFE7019800F02CFDFFE702B0D4
:1051780080BD80B584B003900398012100F080FCC5
:105188000190FFE7019804B080BD80B582B000901F
:10519800009800F089FF0190FFE70198001D00F0DA
:1051A800DDFCFFE702B080BD80B584B003900398B2
:1051B800012100F05DFF0190FFE7019804B080BD78
:1051C80080B588B00B46039004A801700592039837
:1051D800029300F069FF0690FFE704A8007803280F
:1051E80001900FD8FFE7069801998A0080181522C8
:1051F80092018018059A0792079900F03AFDFFE797
:1052080008B080BD02480422019901F0FBF8FEDED7
:105218004476000080B586B00490059105980499FD
:1052280003900846FFF7EDF90290FFE7039802990B
:1052380000F08BFA0190FFE7019806B080BDD4D446
:1052480080B588B00A46039004A8017003980292BA
:1052580000F02AFF0690FFE704A8007803280190D1
:1052680017D8FFE7069801998A008018052292014D
:1052780080180590059800F0BFFC0790FFE707A885
:1052880000F054FA0090FFE70098411E884108B0EA
:1052980080BD03480422019901F0B4F8FEDEC0463F
:1052A8005476000080B586B00A46029003A80170C3
:1052B8000298019200F0F8FE0590FFE703A8007835
:1052C800032800900ED8FFE7059800998A008018F7
:1052D8000522920180180490049800F09EFCFFE7D4
:1052E80006B080BD02480422009901F08BF8FEDE6A
:1052F8006476000080B584B00A46019002A8017067
:10530800019802990092FFF79BFF03A90870FFE735
:1053180003A80078C007002806D0FFE70198029983
:10532800FFF7C0FFFFE7FFE703A8007804B080BDE0
:1053380080B586B00A46029003A8017002980192CF
:1053480000F0B2FE0490FFE70498012149024018DA
:1053580003A90591059900F008FDFFE706B080BD97
:1053680080B58CB009900A9109980078089008983F
:105378007844007940008744071421010A9800F016
:105388009CF9079027E0FEDE0A9800F081F9069064
:10539800FFE7069800F096F80590FFE705980B9050
:1053A80021E00A9800F07BF90490FFE7049800F0E8
:1053B800C8F80390FFE703980B9014E00A9800F0F0
:1053C80075F90290FFE7029800F0FAF80190FFE7FC
:1053D80001980B9007E0079800F031F90090FFE77B
:1053E80000980B90FFE70B980CB080BD82B000903E
:1053F80000980078C007002805D0FFE701A8012120
:10540800017004E0FEDE01A800210170FFE701A899
:10541800007802B0704782B0009000980078C0070A
:10542800002805D0FFE701A80121017004E0FEDE95
:1054380001A800210170FFE701A8007802B07047B9
:1054480082B0009000980078C007002805D0FFE7D8
:1054580001A80121017004E0FEDE01A8002101700D
:10546800FFE701A8007802B0704782B0009000986A
:105478000078C007002805D0FFE701A801210170C6
:1054880004E0FEDE01A800210170FFE701A8007812
:1054980002B0704710B583B00A46019002A80170A7
:1054A80001990B6801242402A3430B6000780002D1
:1054B8000090FFE701980168009A11430160019884
:1054C80003B010BD80B584B00290029803A90122F0
:1054D8000A70097800F005F80190FFE7019804B018
:1054E80080BD80B586B00A46049005A8017004996D
:1054F80003920291FFF77AFF0190FFE701200199DB
:1055080001400298FFF7C6FF0090FFE7009806B039
:1055180080BD10B583B00A46019002A801700199B8
:105528000B6801246402A3430B60007840020090DA
:10553800FFE701980168009A11430160019803B0E0
:1055480010BD80B584B00290029803A901220A70A8
:10555800097800F005F80190FFE7019804B080BDD4
:1055680080B586B00A46049005A801700499039294
:105578000291FFF750FF0190FFE7012001990140D8
:105588000298FFF7C6FF0090FFE7009806B080BDBD
:1055980010B583B00A46019002A8017001990B6802
:1055A8000124A402A3430B60007880020090FFE767
:1055B80001980168009A11430160019803B010BD79
:1055C80080B584B00290029803A901220A70097874
:1055D80000F005F80190FFE7019804B080BD80B5A0
:1055E80086B00A46049005A80170049903920291B6
:1055F800FFF726FF0190FFE701200199014002987B
:10560800FFF7C6FF0090FFE7009806B080BD10B511
:1056180083B00A46019002A8017001990B68012421
:10562800E402A3430B600078C0020090FFE70198F2
:105638000168009A11430160019803B010BD80B55C
:1056480084B00290029803A901220A70097800F038
:1056580005F80190FFE7019804B080BD80B586B0D9
:105668000A46049005A80170049903920291FFF775
:10567800FCFE0190FFE70120019901400298FFF725
:10568800C6FF0090FFE7009806B080BD0020704775
:1056980082B0009000980190019802B0704782B0E3
:1056A800009000980190019802B0704782B0009075
:1056B80000980190019802B0704782B0009000985D
:1056C8000190019802B0704782B00190019802B031
:1056D8007047D4D480B584B00290039103980649EA
:1056E800022201F059F90190FFE7012001990140D8
:1056F800084604B080BDC0467476000081B00090B2
:105708000098006801B070470020704782B001908F
:10571800019802B070470020704782B00090019154
:10572800019800990860009802B0704781B0009015
:105738000098006801B070470020704782B001905F
:10574800019802B070470020704782B00090019124
:10575800019800990860009802B0704782B00190E3
:10576800019802B0704780B582B0FFF7B3FBFFE73E
:1057780002B080BD80B582B0FFF7F5FFFFE702B049
:1057880080BDD4D470B592B013460C46054604AE1D
:10579800307005A8017006A8027003A8029301944E
:1057A800009500F073FC0890FFE708982B49401813
:1057B800FEF79AFFFFE703A800F068FC0990FFE7EF
:1057C80009982749401804A90A910A99FEF7F8FF91
:1057D800FFE703A800F05AFC0B90FFE70B9821495C
:1057E800401805A90C910C99FEF7CEFFFFE703A816
:1057F80000F04CFC0D90FFE70D981B4940180699E6
:105808000EAA11700E99FEF7F7FFFFE703A800F044
:105818003DFC0F90FFE70F98052109024018FEF79D
:1058280099FFFFE703A800F031FC1090FFE71098FC
:105838000830FEF73FFFFFE703A800F027FC1190B0
:10584800FFE71198FEF71CFFFFE70498059907AAE0
:10585800107051705178079812B070BD1C05000087
:105868000C050000140500002405000080B584B074
:1058780003900398002100F0EDF80190FFE70198EC
:1058880004B080BD80B586B0049005910598049950
:105898000390084600F0C5F80290FFE70298FEF76B
:1058A800A2FE0190FFE70398019900F0D6FB009053
:1058B800FFE7009806B080BD80B586B004900591DA
:1058C800059804990390084600F0B1F80290FFE7A4
:1058D8000298FEF788FE0190FFE70398019900F00F
:1058E800B0FB0090FFE7009806B080BD80B586B099
:1058F800024604AB1870059105980392FFF74BF820
:105908000290FFE704990298FFF72DF80190FFE74E
:10591800019806B080BD80B584B003900398FEF767
:10592800BAFF0190FFE70198FEF7E7FF0090FFE755
:10593800009804B080BD80B584B00390039801211D
:1059480000F07DF80190FFE7019804B080BD80B5B4
:1059580084B0039003980121FFF7DFFE0190FFE771
:10596800019804B080BD10B582B00A4603466C4663
:105978002070617002B010BD80B58AB00A460490EC
:1059880005A80170039200F07DFB0290FFE70298E2
:1059980007900799472292008818FEF73DFE089065
:1059A800FFE708A8FFF7AAFE0190FFE70198012882
:1059B80004D0FFE706A80121017013E007984721EA
:1059C80089004018FEF739FEFFE707980749401895
:1059D80005A909910999FEF7A1FEFFE706A800218C
:1059E8000170FFE706A800780AB080BD1C0500001A
:1059F80080B586B0049005910598049909780390BC
:105A08000846FEF7E0FD0290FFE70398029900F0D0
:105A180021F80190FFE7019806B080BD82B002B07E
:105A2800704781B000900098007801B0704781B04D
:105A380000900098007801B070470020704782B04D
:105A480000900191019800990860009802B0704791
:105A58000020704782B00090019101980099086079
:105A6800009802B070470020704782B00090019102
:105A7800019800990860009802B0704700207047AC
:105A880082B000900191019800990860009802B0D6
:105A980070470020704782B00090009801900198EC
:105AA80002B0704783B00190019800780090009888
:105AB8007844007940008744060A0E0102A80321B1
:105AC80001700CE0FEDE02A80021017007E002A8C8
