:1000000000400020116F0000496F00005570000093
:1000100000000000000000000000000000000000E0
:10002000000000000000000000000000496F000018
:100030000000000000000000496F0000496F000050
:10004000496F0000496F0000496F0000496F0000D0
:10005000496F000000000000496F0000496F000078
:10006000496F0000496F0000496F0000496F0000B0
:10007000496F0000496F0000496F0000496F0000A0
:10008000496F0000496F0000496F0000496F000090
:10009000496F0000496F0000496F0000496F000080
:0800A000496F0000496F0000E8
:1000A80086B0009005A80021017004AA11700121F2
:1000B800017011700098411E02468A41002801D043
:1000C800FFE705E004A800210170029108E0FEDEC8
:1000D80005A8002101700098039003980290FFE79B
:1000E80004A80078C007002804D1FFE7009800287A
:1000F80007D110E004A800210170F7E7029806B0C4
:10010800704705A80078C0070028F7D0FFE705A8C2
:1001180000210170F2E7F1E786B003900398411ED1
:1001280002468A41002801D0FFE705E00B48059008
:10013800059A029208E0FEDE039804900498039959
:100148000029019006D108E005482B21029A06F003
:1001580045F9FEDE019806B07047FBE7F470000031
:100168008070000082B000200190019802B07047B2
:1001780080B582B001900198FFF792FF0090FFE7E9
:10018800009802B080BD80B584B0019002910392BE
:100198000298039901F07DFD0090FFE7009804B0F4
:1001A80080BD80B584B00A46029003A8017000782B
:1001B800019201F087F90090FFE7012000990140C2
:1001C800084604B080BD81B0009001B0704781B08E
:1001D800009001B0704781B0009001B0704783B0C3
:1001E800009001910098006801990968884207DB2E
:1001F800FFE70098006801990968884208D003E081
:1002080002A8FF21017008E002A80121017003E0A3
:1002180002A800210170FFE7FFE7029803B07047CA
:1002280080B584B0029003910298039900F005F814
:100238000190FFE7019804B080BD84B0019002915D
:100248000198029989004018039003980090FFE7ED
:10025800009804B0704782B0019001980090FFE7C1
:1002680000984142484102B07047D4D4F6B001200A
:10027800219002202290032023900420249005201E
:10028800259021A920900846209901F056FC1F903E
:100298001E91FFE71F981E9901F00DFB1D90FFE7C7
:1002A8001D98FFF739FF2690FFE701F09BF927A972
:1002B8000870FFE727A80078C007002805D1FFE7E6
:1002C8009E487590759A1C9232E105F09BFBFFE7FA
:1002D80003F06CFBFFE703F031FC2AA90870FFE785
:1002E80003F0AEFBFFE703F0F5FB2BA90870FFE76F
:1002F8002B992A982DAA0A2313702D9A05F036FAFD
:100308001B901A91FFE71B981A9905F020FBFFE74D
:10031800002000908B492EA80122042301F0A5FAA1
:10032800FFE72CA82EA901F089F91990FFE7012011
:1003380019990140084601F085FDFFE704F00FF91F
:10034800FFE700F008F9FFE700F04EF9FFE700F0DB
:1003580095F9FFE700F0DCF9FFE700F023FAFFE783
:1003680000F06AFAFFE700F0B1FAFFE700F0F8FAE8
:10037800FFE700F03FFBFFE700F086FBFFE700F038
:10038800CDFBFFE700F014FCFFE741A801F0DBFE1E
:10039800FFE74CA801210170002242708170C270F1
:1003A80001714EAB1A7059709A70D9701A7150ACAD
:1003B80021706270A170E270217152AD2A7069706B
:1003C800AA70E9702A7154AE31707270B170F2700F
:1003D80031714D9F189045A80771189F3F78179065
:1003E800189840780002C019189FBF78169018987E
:1003F800C0780002C0190004169FC01945901798CC
:10040800401D05271591194614923A4613941295E2
:100418001196109706F0C8FC17990A310F900846F4
:100428001399109A06F0C0FC17990F310E900846E0
:100438001299109A06F0B8FC179914310D900846D5
:100448001199109A06F0B0FC5DA9159A0A704A70C5
:10045800149B8B70CA700B715FAC22706370A270B2
:10046800E370227161AD2B706A70AA70EA702B710B
:1004780063AE32707370B270F370327165AF3B70F7
:100488007A70BB70FA703B715E9A56AB1A710A7833
:100498000C904878000280188A78C978090289186F
:1004A800090408185690581D2146109A0B950A966B
:1004B8000997089306F078FC08990A3107900846CE
:1004C8000B99109A06F070FC08990F3106900846AF
:1004D8000A99109A06F068FC0899143105900846A4
:1004E8000999109A06F060FCFFE767A845A9192248
:1004F800049006F059FC7D21CB0041A934AA039051
:1005080008461146049A01F09FFFFFE76EA856A916
:100518001922029006F048FC7D21CB0041A934AA9B
:10052800019008461146029A01F08EFFFFE7DCE7CA
:1005380003480E211C9A05F051FFFEDE24710000CD
:10054800047100004C71000082B000900191009885
:10055800019902B0704780B584B005F0ADFD0090F8
:10056800FFE771200001009908180390039801F033
:1005780065FDFFE704B080BD80B58CB00B900B988B
:1005880000F042FD0990FFE7099800F0A7FD0890E8
:10059800FFE7089800F046FD0790FFE7079800F08E
:1005A8007EFE0690FFE7069800F035FD0590FFE710
:1005B800059800F04CFE0490FFE7049800F040FD19
:1005C8000390FFE7039800F0FCFE0290FFE7029813
:1005D80000F02FFD0190FFE7019800F085FE0090E4
:1005E800FFE700980CB080BD80B584B005F064FDCD
:1005F8000090FFE70448009908180390039801F059
:10060800CFFCFFE704B080BD1407000080B58CB0B4
:100618000B900B9800F0F8FC0990FFE7099800F0A0
:100628005DFD0890FFE7089800F0FCFC0790FFE7E5
:10063800079800F034FE0690FFE7069800F0EBFC00
:100648000590FFE7059800F002FE0490FFE7049884
:1006580000F0F6FC0390FFE7039800F0B2FE02906A
:10066800FFE7029800F0E5FC0190FFE7019800F031
:100678003BFE0090FFE700980CB080BD80B584B0C9
:1006880005F01AFD0090FFE7E320C0000099081864
:100698000390039801F01CFCFFE704B080BD80B50F
:1006A8008CB00B900B9800F0AFFC0990FFE709980D
:1006B80000F014FD0890FFE7089800F0B3FC0790DD
:1006C800FFE7079800F0EBFD0690FFE7069800F0BB
:1006D800A2FC0590FFE7059800F0B9FD0490FFE73C
:1006E800049800F0ADFC0390FFE7039800F069FE62
:1006F8000290FFE7029800F09CFC0190FFE7019848
:1007080000F0F2FD0090FFE700980CB080BDD4D453
:1007180080B584B005F0D0FC0090FFE7044800994C
:1007280008180390039801F0EDFBFFE704B080BDC3
:100738001C07000080B58CB00B900B9800F064FC8F
:100748000990FFE7099800F0C9FC0890FFE70898AE
:1007580000F068FC0790FFE7079800F0A0FD0690FE
:10076800FFE7069800F057FC0590FFE7059800F0B2
:100778006EFD0490FFE7049800F062FC0390FFE729
:10078800039800F01EFE0290FFE7029800F051FC6B
:100798000190FFE7019800F0A7FD0090FFE700989F
:1007A8000CB080BD80B584B005F086FC0090FFE7F2
:1007B80039204001009908180390039801F0BCFB08
:1007C800FFE704B080BD80B58CB00B900B9800F0AB
:1007D8001BFC0990FFE7099800F080FC0890FFE7F0
:1007E800089800F01FFC0790FFE7079800F057FDF6
:1007F8000690FFE7069800F00EFC0590FFE70598C5
:1008080000F025FD0490FFE7049800F019FC039020
:10081800FFE7039800F0D5FD0290FFE7029800F08B
:1008280008FC0190FFE7019800F05EFD0090FFE7EB
:1008380000980CB080BDD4D480B584B005F03CFCE1
:100848000090FFE70448009908180390039801F006
:100858005DFCFFE704B080BD2407000080B58CB0C4
:100868000B900B9800F0D0FB0990FFE7099800F077
:1008780035FC0890FFE7089800F0D4FB0790FFE7E5
:10088800079800F00CFD0690FFE7069800F0C3FB00
:100898000590FFE7059800F0DAFC0490FFE704985C
:1008A80000F0CEFB0390FFE7039800F08AFD02906A
:1008B800FFE7029800F0BDFB0190FFE7019800F008
:1008C80013FD0090FFE700980CB080BD80B584B0A0
:1008D80005F0F2FB0090FFE7E520C000009908183A
:1008E8000390039801F0F8FBFFE704B080BD80B5E2
:1008F8008CB00B900B9800F087FB0990FFE70998E4
:1009080000F0ECFB0890FFE7089800F08BFB0790DD
:10091800FFE7079800F0C3FC0690FFE7069800F091
:100928007AFB0590FFE7059800F091FC0490FFE73B
:10093800049800F085FB0390FFE7039800F041FD61
:100948000290FFE7029800F074FB0190FFE701981E
:1009580000F0CAFC0090FFE700980CB080BDD4D42A
:1009680080B584B005F0A8FB0090FFE70448009923
:1009780008180390039801F02DFBFFE704B080BD31
:100988002C07000080B58CB00B900B9800F03CFB56
:100998000990FFE7099800F0A1FB0890FFE7089885
:1009A80000F040FB0790FFE7079800F078FC0690FE
:1009B800FFE7069800F02FFB0590FFE7059800F089
:1009C80046FC0490FFE7049800F03AFB0390FFE729
:1009D800039800F0F6FC0290FFE7029800F029FB6C
:1009E8000190FFE7019800F07FFC0090FFE7009876
:1009F8000CB080BD80B584B005F05EFB0090FFE7C9
:100A080073200001009908180390039801F0AEFACA
:100A1800FFE704B080BD80B58CB00B900B9800F058
:100A2800F3FA0990FFE7099800F058FB0890FFE7F0
:100A3800089800F0F7FA0790FFE7079800F02FFCF6
:100A48000690FFE7069800F0E6FA0590FFE705989C
:100A580000F0FDFB0490FFE7049800F0F1FA039022
:100A6800FFE7039800F0ADFC0290FFE7029800F062
:100A7800E0FA0190FFE7019800F036FC0090FFE7EC
:100A880000980CB080BDD4D480B584B005F014FBB8
:100A98000090FFE70448009908180390039801F0B4
:100AA80001FBFFE704B080BD3407000080B58CB0BF
:100AB8000B900B9800F0A8FA0990FFE7099800F04E
:100AC8000DFB0890FFE7089800F0ACFA0790FFE7E5
:100AD800079800F0E4FB0690FFE7069800F09BFA01
:100AE8000590FFE7059800F0B2FB0490FFE7049833
:100AF80000F0A6FA0390FFE7039800F062FC02906A
:100B0800FFE7029800F095FA0190FFE7019800F0DE
:100B1800EBFB0090FFE700980CB080BD80B584B077
:100B280005F0CAFA0090FFE7E720C000009908180E
:100B38000390039801F068FAFFE704B080BD80B520
:100B48008CB00B900B9800F05FFA0990FFE70998BA
:100B580000F0C4FA0890FFE7089800F063FA0790DD
:100B6800FFE7079800F09BFB0690FFE7069800F068
:100B780052FA0590FFE7059800F069FB0490FFE73B
:100B8800049800F05DFA0390FFE7039800F019FC61
:100B98000290FFE7029800F04CFA0190FFE70198F5
:100BA80000F0A2FB0090FFE700980CB080BDD4D401
:100BB80080B584B005F080FA0090FFE704480099FA
:100BC80008180390039801F053FAFFE704B080BDBA
:100BD8003C07000080B58CB00B900B9800F014FA1D
:100BE8000990FFE7099800F079FA0890FFE708985C
:100BF80000F018FA0790FFE7079800F050FB0690FE
:100C0800FFE7069800F007FA0590FFE7059800F05F
:100C18001EFB0490FFE7049800F012FA0390FFE728
:100C2800039800F0CEFB0290FFE7029800F001FA6B
:100C38000190FFE7019800F057FB0090FFE700984C
:100C48000CB080BD80B505F09FFAFFE780BD80B588
:100C580005F098FAFFE780BD70B5C4B026902791DB
:100C68002892269829902998802808D303E02BA851
:100C78000121017009E02BA80021017005E02798E7
:100C8800289903F07FFB259005E02BA80078C00782
:100C980000280AD104E02598C1070029E7D0EAE72F
:100CA8002998C00A00281AD015E029982799289A67
:100CB80000232490084611461A4600F025FF239089
:100CC800FFE724982399087001222A923EE12CA874
:100CD8000121017009E02CA80021017005E0279886
:100CE800289903F0FBFA229005E02CA80078C007A9
:100CF800002809D103E022980128E8D8EBE729A8C1
:100D08004088002830D02BE029984005C00E27994C
:100D1800289A00232190084611461A4600F0F4FE4E
:100D28002090FFE7C020219901432098017029995C
:100D38003F2211402798289A01231F9111461A46ED
:100D480000F0E2FE1E90FFE780201F9901431E98E5
:100D5800017002212A91F8E02DA80121017009E013
:100D68002DA80021017005E02798289903F0B6FA0C
:100D78001D9005E02DA80078C00700280AD103E0DF
:100D88001D980228E8D8EBE72798289903F0A6FAD7
:100D98001C9039E029980004000F2799289A00230D
:100DA8001B90084611461A4600F0AEFE1A90FFE75F
:100DB800E0201B9901431A98017029990905890EA9
:100DC8002798289A0123199111461A4600F09CFE8B
:100DD8001890FFE780201999014318980170299904
:100DE8003F2211402798289A0223179111461A4644
:100DF80000F08AFE1690FFE78020179901431698A5
:100E0800017003212A919FE01C98032805D8FFE769
:100E1800299800F0C6FF15904BE02998C002400FB2
:100E28002799289A00231490084611461A4600F07C
:100E38006BFE1390FFE7F02014990143139801709B
:100E480029998903890E2798289A01231291114616
:100E58001A4600F059FE1190FFE7802012990143CD
:100E68001198017029990905890E2798289A022353
:100E7800109111461A4600F047FE0F90FFE78020B8
:100E8800109901430F98017029993F221140279822
:100E9800289A03230E9111461A4600F035FE0D904C
:100EA800FFE780200E9901430D98017004212A91D3
:100EB8004AE0159800F068F83D90FFE727982899D0
:100EC80003F00CFA3E90FFE73DA83A9029A83B9022
:100ED8003EA83C903A983F903B9840903C9841906F
:100EE8003F98254905F0EAF90C900B91FFE74098E7
:100EF800224905F047FA0A900991FFE741981E49EF
:100F080005F0DCF908900791FFE70C9834900B99ED
:100F180035910A9A3692099B3793089C3894079D15
:100F280039950326009616492EA834AB324600F0B0
:100F38009CFCFFE71348439043990691FFE72EA8CE
:100F4800069905F07BFAFEDEFFE7FFE72798289968
:100F58002A9A4292429A00F0C6FD05900491FFE752
:100F680005980499FFF7F0FA03900291FFE70398B8
:100F7800029944B070BDC0460D6D0000BD6B000005
:100F880090710000F471000083B000900098029006
:100F98000298802805D3FFE70298C00A002808D0E5
:100FA80002E0012001900FE002A84088002806D046
:100FB80002E00220019006E00420019002E00320F4
:100FC8000190FFE7FFE7FFE7019803B07047D4D42B
:100FD80080B584B002900A480078C007002803D181
:100FE800FFE705F06DF803E003A80021017003E0B6
:100FF80003A801210170FFE703A8007804B080BDB1
:10100800000000200220704782B0009000980190F4
:10101800019802B0704782B0009000980190019842
:1010280002B0704782B0009000980190019802B019
:10103800704782B0009000980190019802B0704704
:1010480082B0009000980190019802B0704782B079
:10105800009000980078C007002805D0FFE701A895
:101068000121017004E0FEDE01A800210170FFE704
:1010780001A8007802B0704783B001900198007809
:101088000028009009D0FFE70098012809D0FFE761
:1010980002A80321017008E0FEDE02A80021017009
:1010A80003E002A801210170FFE7029803B070472E
:1010B80010B583B00A46019002A8017001990B6827
:1010C8000124A3430B6000780090FFE701980168B2
:1010D800009A11430160019803B010BD80B584B037
:1010E8000290029803A901220A70097800F005F815
:1010F8000190FFE7019804B080BD80B586B00A462C
:10110800049005A80170049903920291FFF79FFFCC
:101118000190FFE70120019901400298FFF7C8FFFD
:101128000090FFE7009806B080BDD4D483B001904A
:10113800019800780090009878440079400087442E
:10114800080C1014181C200302A8072101701CE0C9
:10115800FEDE02A80021017017E002A8012101703B
:1011680013E002A8022101700FE002A80321017018
:101178000BE002A80421017007E002A80521017014
:1011880003E002A806210170FFE7029803B0704748
:1011980082B0009000980078C007002805D0FFE7CB
:1011A80001A80121017004E0FEDE01A80021017000
:1011B800FFE701A8007802B0704783B0019001985A
:1011C80000780028009009D0FFE70098012809D08E
:1011D800FFE702A80321017008E0FEDE02A8002153
:1011E800017003E002A802210170FFE7029803B032
:1011F800704710B583B00A46019002A801700199A2
:101208000B680C24A3430B6000788007000F009044
:10121800FFE701980168009A11430160019803B043
:1012280010BD80B586B00A46049005A801700499DF
:1012380003920291FFF720FF0190FFE702980199BE
:10124800FFF7D7FF0090FFE7009806B080BD80B594
:1012580084B00290029803A900220A700399FFF74C
:10126800E0FF0190FFE7019804B080BD10B583B09E
:101278000A46019002A8017001990B68072424020C
:10128800A3430B6000784007400D0090FFE70198EA
:101298000168009A11430160019803B010BD80B540
:1012A80084B00290029803A900220A70039900F002
:1012B80005F80190FFE7019804B080BD80B586B0BD
:1012C8000A46049005A80170049903920291FFF759
:1012D8002DFF0190FFE702980199FFF7C7FF0090E3
:1012E800FFE7009806B080BD80B584B002900298F0
:1012F80003A901220A70097800F01CF80190FFE7A1
:10130800019804B080BD10B583B00A46019002A8C8
:10131800017001990B680224A3430B600078400018
:101328000090FFE701980168009A11430160019855
:1013380003B010BD80B586B00A46049005A80170B8
:10134800049903920291FFF723FF0190FFE7012020
:10135800019901400298FFF7D6FF0090FFE7009837
:1013680006B080BD10B583B00A46019002A801708E
:1013780001990B6803242404A3430B6000788007B9
:10138800800B0090FFE701980168009A1143016003
:10139800019803B010BD80B586B00A46049005A830
:1013A8000170049903920291FFF707FF0190FFE78C
:1013B80002980199FFF7D6FF0090FFE7009806B062
:1013C80080BD80B584B00290029803A900220A70FB
:1013D8000399FFF7E0FF0190FFE7019804B080BD93
:1013E80080B58AB00190029101A800F004FC009039
:1013F800FFE70098FEF7BCFE0690FFE7069841421B
:1014080002464A4100280FD1FFE700E0FEDE04F063
:10141800B6FE02E004980AB080BDFEF7A3FE049071
:10142800FFE7FFE7FFE7F5E70698089008980590BB
:101438000698002803D109E009980490EAE7019882
:101448000299059A00F06DFA0990F5E7F7E782B07E
:10145800009000980190019802B0704782B002B0E5
:10146800704710B588B00B46029003A8017004922B
:1014780002980399049A06AC217007922178079A7A
:10148800019300F067F80090FFE701200099014000
:1014980005A80170007808B010BD80B588B002902A
:1014A8000391049202980399049A06910792069967
:1014B800079A00F016F80190FFE701980590059843
:1014C80008B080BD83B001466A46107002A80122A8
:1014D8000270FFE702A8007803B0704782B002B03C
:1014E800704780B584B001900291039202980399E5
:1014F800019A00F003FC0090FFE7009804B080BD5B
:1015080080B586B0816804914168039100680290B3
:1015180005A800210170017802A800F03FF80190A9
:10152800FFE7012001990140084606B080BD83B05D
:101538000091019202930099019A029B0160426016
:10154800836003B0704783B00090009802900298BF
:1015580003B0704780B58AB00B46059006A80170A5
:10156800079205980699079A0992099A0490039197
:101578001146029300F0E0F8FFE7012003990140CB
:1015880008A8017001780498FEF70BFE0190FFE7A8
:1015980001200199014008460AB080BD10B58AB003
:1015A8000A4608AB197001684368089C806807926E
:1015B800069105930494FFF7C6FF0390FFE7012007
:1015C800049901400698059A02911146029A039BD4
:1015D80000F07EF90190FFE70120019901400846DB
:1015E8000AB010BD80B582B000F062FB0190FFE741
:1015F800012001990140084602B080BD80B588B03D
:1016080005900691059806990022079207AA0423D7
:101618000490084611461A46FFF71EFB03900291F4
:10162800FFE704980399029A00F05CF80190FFE73D
:10163800012001990140084608B080BDB0B58AB0C4
:10164800039004A8024638C938C238C938C20749C5
:1016580003AA02901046029A04F066FF0190FFE781
:1016680001200199014008460AB0B0BD047200008B
:1016780080B584B002900391029800680399FFF73F
:10168800BDFF0190FFE7012001990140084604B021
:1016980080BD70B588B001900198006802AA134611
:1016A80070C970C370C970C31146FFF7C7FF0090B7
:1016B800FFE7012000990140084608B070BD80B5D9
:1016C80084B0019002910392019800680299039AEC
:1016D80000F008F80090FFE7012000990140084653
:1016E80004B080BD80B590B0059006910792069829
:1016F80007990C900D910C980D990E900F910E98DA
:101708000F9904900391FFE70498039902F049FEAA
:1017180002900191FFE705A80B900B9B08A802997E
:10172800019A00F0BBF8FFE708A8FFF7E9FEFFE71A
:10173800FFE7002010B080BD80B588B0019002910D
:10174800FFE707A800210170019909680968029A52
:101758001278012303700846114604F001F904A920
:101768000870FFE704A80078C007002816D0FFE734
:1017780007E007A8002101700AE007A8002101700E
:101788000DE000200028F4D1FFE7F6E7FEDEFEDEDC
:1017980004A80078C00700280AD118E0F8E707A8CD
:1017A80000210170CDE707A80021017008B080BDB5
:1017B800012000280AD1FFE707A80078C007002801
:1017C800F1D0FFE707A800210170ECE7EBE7EAE7B3
:1017D80080B582B004F0DAFC0190FFE701A8007838
:1017E800C007002804D1FFE768460021017003E024
:1017F800684601210170FFE76846007802B080BDA5
:1018080080B588B003900491059203980021069151
:101818000790049A059B0698079900F007F802902C
:101828000191FFE70298019908B080BD80B588B0A2
:1018380004900591069207930698079902F048FDCF
:101848000390FFE70499039804F065FC0290FFE712
:1018580005980499411A029802F02BFD0190009115
:10186800FFE70198009908B080BD10B586B0089CC4
:1018780000910192029303940099019A0023059321
:1018880004930493029B039C016042600499059AA7
:101898008160C2600361446106B010BD80B584B048
:1018A8000191029203930199029A039BFFF73FFE6D
:1018B800FFE704B080BD80B584B002900391029820
:1018C800039900F047F80190FFE7019804B080BD44
:1018D80010B58AB014460690079108A802700993BB
:1018E80008980999059008460494FFF7B0FD0390FD
:1018F800FFE701200599014006A8039A00F091F836
:101908000290FFE7012002990140084600F054FACE
:101918000190FFE7FFE701200199014008460AB05E
:1019280010BD80B588B00490059106920699039180
:10193800FFF794FDFFE704A8039900F01FF8029051
:10194800FFE7029800F05EFA0190FFE7FFE70198D1
:1019580008B080BD80B586B00390049103980499BF
:1019680002900191FFF7BAFDFFE702980199FFF78E
:1019780037FD0090FFE7009806B080BD80B58EB0B7
:101988000290039103980690FFE7029800F033F95C
:101998000790FFE70798002801D1FFE72DE0079897
:1019A8000890069808990A900B910A990B9A04A82E
:1019B800FFF773FD0190FFE7019800F06CFA0990BA
:1019C800FFE70120002810D1FFE700E0FEDE00F06D
:1019D800B7FB02E005980EB080BD00F053FA059001
:1019E800FFE70120002812D10DE009980D900D980D
:1019F8000690012000280DD110E0069800F057FA53
:101A08000590FFE7E6E70798002801D101E0FAE72B
:101A1800E0E7FDE70798002801D101E0FAE7B4E71D
:101A2800FDE780B58EB00B46029003A801700492C2
:101A3800039806A90870FFE7029802F0C1FC079016
:101A4800FFE70798002801D1FFE736E007980890DC
:101A5800069808990AAA10700B9111780B9A04A895
:101A6800FFF7FFFC0190FFE70120019901400846BC
:101A780000F016FA09A90870FFE70120002812D122
:101A8800FFE700E0FEDE00F05BFB03E005A800785E
:101A98000EB080BD00F0FAF905A90870FFE7012033
:101AA800002816D111E009980DA908700D9806A90B
:101AB8000870012000280FD112E006A8007800F075
:101AC800FDF905A90870FFE7E0E70798002801D1AC
:101AD80001E0FAE7DAE7FDE70798002801D101E01D
:101AE800FAE7A9E7FDE780B586B00390049105926F
:101AF80005980399049AFFF783FE02900191FFE786
:101B08000298019906B080BD80B584B00190029119
:101B1800039203980199029A00F059F80090FFE7A0
:101B2800009804B080BD84B000900191009801999C
:101B380002900391039804B0704780B58EB0079067
:101B480008910798089900F03CF80B90FFE70B986C
:101B5800FEF781FBFFE7FFE704200D900D98069044
:101B6800FFE7069800280AD0FFE70B980799089A1C
:101B7800059008461146FFF7D6FF049012E00B982F
:101B88000799089A039008461146FFF7CCFF029080
:101B9800FFE70398029904F0D8FA0190FFE701984B
:101BA8000C9006E005980499FEF73AFB0C90FFE7C5
:101BB800FFE70B980C9909900A9109980A990EB0B9
:101BC80080BD82B000900191009802B0704780B546
:101BD80086B00390049105920498059902F078FB69
:101BE8000290FFE70399029804F095FA0190FFE745
:101BF800019806B080BD80B58AB00290029800684E
:101C0800FEF729FBFFE7FFE7042004900498019002
:101C1800FFE70198002807D0FFE702984068FEF721
:101C28001AFBFFE7FFE7FFE7029801684068814277
:101C380026D0FFE70298059001200690042009901D
:101C4800099800280DD0FFE70598006808900598C6
:101C580000680699FEF7F1FA059908600898079058
:101C68000BE0059840680699494204F07BFA05990B
:101C78004860059800680790FFE70798009002E021
:101C88000020039002E000980390FFE703980AB051
:101C980080BD80B584B002900391029800680399D2
:101CA8000968FEF79CFA0190FFE7019804B080BD2F
:101CB80080B586B0FFF78CFD02A90870FFE7FEF734
:101CC800C6FFFFE704F00FFBFFE705A804900498A0
:101CD800FFF77EF903A90870FFE702A804F092FA5B
:101CE8000090FFE70098C107002903D0FFE7FEF73F
:101CF800A9FFFFE703A8007806B080BD80B58AB0C9
:101D080001900291039209A80021017008AA11709C
:101D1800012101701170039801A9069102A9079188
:101D28000699079A00F02EF805A90870FFE705A89C
:101D3800007840B2401C022807D3FFE709A8002119
:101D480001700198049006E0FEDE08A800210170E9
:101D580002980490FFE708A80078C007002809D176
:101D6800FFE709A80078C007002807D1FFE7049813
:101D78000AB080BD08A800210170F2E709A8002177
:101D88000170F4E780B584B0019002910392019844
:101D98000299039AFEF7F7F90090FFE7009804B05C
:101DA80080BD83B001900198029002980090FFE7EF
:101DB800009803B07047D4D484B0014601AA1070CB
:101DC8000120002802D1FFE709E0FEDE019802A900
:101DD8000870029801210029009007D10CE00748FB
:101DE800074B2B2103AA04F053FBFEDE01200099C8
:101DF8000140084604B07047F8E7C0461C7200006E
:101E08004872000084B001900120002802D1FFE749
:101E180008E0FEDE01980290029801210029009056
:101E280007D109E00548064B2B2103AA04F030FB33
:101E3800FEDE009804B07047FBE7C0461C72000045
:101E48004872000084B0014601AA10701078C007DB
:101E5800002802D0FFE706E0FEDE01A80078C007F0
:101E6800002807D008E00548054B2B2103AA04F0F9
:101E78000FFBFEDE04B07047FCE7C0461C72000092
:101E88005872000082B0019802B0704782B001A871
:101E9800007802B0704781B00090009801B0704798
:101EA80081B001466A461070107801B0704782B060
:101EB800009000980190019802B0704782B00146E6
:101EC8006A461070009801AA1070107802B0704726
:101ED80080B586B00090FFF795F80290FFE702A85A
:101EE80003900398FEF7DBFBFFE700980299049044
:101EF8000591049804F04DF9059904F05AF9FFE7A3
:101F080006B080BD80B586B00090FFF77BF80290E0
:101F1800FFE702A803900398FEF70CFCFFE7009880
:101F2800029904900591049804F033F9059904F096
:101F380040F9FFE706B080BD80B586B00090FFF796
:101F480061F80290FFE702A803900398FEF73BFCB4
:101F5800FFE70098029904900591049804F019F994
:101F6800059904F026F9FFE706B080BD80B586B074
:101F78000090FFF747F80290FFE702A80390039844
:101F8800FEF749FDFFE7009802990490059104982F
:101F980004F0FFF8059904F00CF9FFE706B080BDDE
:101FA80080B586B00090FFF72DF80290FFE702A8F1
:101FB80003900398FEF72AFBFFE700980299049024
:101FC8000591049804F0E5F8059904F0F2F8FFE7A4
:101FD80006B080BD80B586B00090FFF713F8029078
:101FE800FFE702A803900398FEF7CCFCFFE70098F0
:101FF800029904900591049804F0CBF8059904F02F
:10200800D8F8FFE706B080BD80B586B00090FEF72F
:10201800F9FF0290FFE702A803900398FEF78FFDEF
:10202800FFE70098029904900591049804F0B1F82C
:10203800059904F0BEF8FFE706B080BD80B586B00C
:102048000090FEF7DFFF0290FFE702A803900398D5
:10205800FEF792FAFFE70098029904900591049818
:1020680004F097F8059904F0A4F8FFE706B080BDDE
:1020780080B586B00090FEF7C5FF0290FFE702A882
:1020880003900398FEF7A6FDFFE7009802990490D5
:102098000591049804F07DF8059904F08AF8FFE7A3
:1020A80006B080BD80B586B00090FEF7ABFF029009
:1020B800FFE702A803900398FEF7F8FCFFE70098F3
:1020C800029904900591049804F063F8059904F0C6
:1020D80070F8FFE706B080BD80B586B00090FEF7C7
:1020E80091FF0290FFE702A803900398FEF7FFFB19
:1020F800FFE70098029904900591049804F049F8C4
:10210800059904F056F8FFE706B080BD80B586B0A3
:102118000090FEF777FF0290FFE702A8039003986C
:10212800FEF79CFBFFE7009802990490059104983C
:1021380004F02FF8059904F03CF8FFE706B080BDDD
:1021480081B0FEDEFEDEF0B5A5B0109001F0EAFC2D
:102158000F90FFE701F0EAFC0E90FFE701F0EAFCC0
:102168000D90FFE721A80F9901700E9A42700D9B00
:10217800837001F0B3FC0C90FFE701F0B3FC0B9007
:10218800FFE701F0B3FC0A90FFE701F0B3FC099008
:10219800FFE701F0B3FC0890FFE701F0B3FC0790FC
:1021A800FFE701F0B3FC0690FFE701F0B3FC0590F0
:1021B800FFE701F0B3FC0490FFE722A80C99017037
:1021C8000B9A42700A9B8370099CC470089D057124
:1021D800079E4671069F87710599C171049901721E
:1021E80002211D9121A98A781DAB9A7149785971EC
:1021F80021991971D91D0922039008460399029360
:1022080004F0D2FD02990190084600F00CF8FFE7AF
:1022180020981099C8601F9888601E9848601D987B
:10222800086025B0F0BD80B592B005900598001DF6
:1022380001F05AFB04900391FFE704980690039974
:102248000791FFE706A800F02AFC0990FFE7099824
:10225800411E02468A41002801D0FFE707E00598A1
:10226800C01D01F033FB029001910BE0FEDE0998DE
:102278000A900A98089008980B900B9801F08AFA2F
:10228800FFE7DFE702980C9001990D91FFE70CA892
:1022980000F005FC0F90FFE70F98411E02468A41A7
:1022A800002801D0FFE702E012B080BDFEDE0F98E3
:1022B800109010980E900E981190119801F0A6FAAF
:1022C800FFE7E4E710B5CEB017AA002313721893FE
:1022D800179310AA13461B330F910E900D930C926F
:1022E8008BE05748052100F0E1FA0B900A91FFE7CF
:1022F8000A98009020A80999089A0B9B00F04AFABE
:10230800FFE71AA820A901F0E5F8FFE71AA826A90F
:102318001CC81CC11CC81CC1FFE726A800F0CBFCC8
:102328002F912E90FFE72E98411E02468A410028E1
:1023380001D0FFE707E010A91B220E9804F034FD36
:102348004EB010BDFEDE2E982F9930903191309806
:1023580031992C902D912C9832902D983390329859
:10236800052101F0C5FF07900691FFE7339B3AA8C6
:102378000799069A00F0B2F9FFE734A83AA901F0E4
:102388009DF8FFE734A840A91CC81CC11CC81CC183
:10239800FFE740A800F082FC49914890FFE7489881
:1023A800411E02468A41002801D0FFE701E0B4E758
:1023B800FEDE489849994A904B914A984B99469025
:1023C800479146984C9047984D904C9800784D9975
:1023D800096802290590049125D8FFE74D984068BF
:1023E8000828039025D8FFE709200499484310AA34
:1023F8001018059A039BC254CBE70C980D99884294
:10240800029009D0FFE717A90922029804F0CCFC32
:10241800029909310C91F0E705210F9800F0CEFAE6
:10242800099008915DE707480322049903F0E8FF43
:10243800FEDE04480922039903F0E2FFFEDEC046EF
:10244800DC720000A473000010B5A0B008900991D8
:102458000A9312A81921079006911146069A04F0CA
:10246800A3FC0BA9059008460799FFF72BFFFFE788
:102478000898099919AA0BAB1B24049010460391DC
:1024880019460292224604F08FFC0A9B0499019097
:1024980008460399029A00F003F8FFE720B010BD40
:1024A80010B5D8B012901391149314981299091D6D
:1024B8000323119008461946109201F029FA0F904B
:1024C800FFE71298026800200F990E9008460E99AF
:1024D8000E9B04F080FC4A1E914100290D9000D00B
:1024E800E8E00D98002800D1EAE011980D9904F071
:1024F800A2FC159015980021169117901698179917
:1025080001F048FE0C900B91FFE70C9818900B997E
:102518001991FFE718A801F0F2FD1C911B90FFE745
:102528001B98002801D0FFE702E058B010BDFEDE7E
:102538001C981D901D981A901298001D032101F0F7
:10254800F1F90A900991FFE70321109800F06AF960
:1025580008900791FFE70798009024A80A99099A1C
:10256800089B00F0D7F8FFE71EA824A900F0B8FFE1
:10257800FFE71EA82AA91CC81CC11CC81CC1FFE76C
:102588002AA800F0B2FB33913290FFE73298411E3F
:1025980002468A41002801D0FFE701E0BAE7FEDEE3
:1025A80032983399349035913498359930903191E7
:1025B8003098369031983790369801F027F9FFE730
:1025C8001298C01D092101F0ADF906900591FFE7A9
:1025D8003798092101F08CFE04900391FFE70398D6
:1025E80000903EA80699059A049B00F0B3F8FFE70F
:1025F80038A83EA900F068FFFFE738A844A91CC81E
:102608001CC11CC81CC1FFE744A800F061FB4D9128
:102618004C90FFE74C98411E02468A41002801D0A1
:10262800FFE706E013981299096801F0A3FF17E085
:10263800FEDE4C984D994E904F914E984F994A9086
:102648004B914A9850904B98519051980078002897
:1026580005D0FFE7509801F09DF8FFE7FFE7D3E7C3
:102668001298C01D01F032F902900191FFE702981B
:10267800529001995391FFE752A800F010FA559033
:10268800FFE75598411E02468A41002801D0FFE71E
:1026980004E0369801F07EF80BE0FEDE559856907F
:1026A8005698549054985790579801F0AFF8FFE710
:1026B800E2E765E70748084A212103F08FFEFEDEBE
:1026C8000248034A192103F089FEFEDEC0720000A9
:1026D800F4730000D0730000B473000080B58AB0B2
:1026E8000791089209930799089A099B069018463A
:1026F8000591049200F091FA03900291FFE7029885
:10270800009006980599049A039B00F093FEFFE752
:102718000AB080BD10B58AB00C9C06910792089348
:1027280009940699079A089B099C059018460491F4
:102738002146039200F0A5F902900191FFE7019864
:10274800009005980499039A029B00F095FEFFE714
:102758000AB010BD10B58AB00C9C06910792089378
:1027680009940699079A089B099C059018460491B4
:102778002146039200F07EF902900191FFE701984B
:10278800009005980499039A029B00F086FEFFE7E3
:102798000AB010BD10B58AB00C9C06910792089338
:1027A80009940699079A089B099C05901846049174
:1027B8002146039200F06CF902900191FFE701981D
:1027C800009005980499039A029B00F044FEFFE7E5
:1027D8000AB010BD84B00090019100980199029050
:1027E8000391039804B0704784B000900191009859
:1027F800019902900391039804B0704784B0009047
:1028080001910098019902900391039804B07047D0
:1028180084B0009001910098019902900391039867
:1028280004B0704780B58EB0079008910798089952
:1028380000F00EF90B90FFE70B9800F08DFFFFE713
:10284800FFE709200D900D980690FFE706980028ED
:102858000AD0FFE70B980799089A05900846114691
:10286800FFF7B8FF049012E00B980799089A0390B5
:1028780008461146FFF7AEFF0290FFE7039802995A
:1028880003F063FC0190FFE701980C9006E00598BF
:10289800049900F0F5FE0C90FFE7FFE70B980C9900
:1028A80009900A9109980A990EB080BD80B58EB03A
:1028B800079008910798089900F0D6F80B90FFE761
:1028C8000B9800F053FFFFE7FFE728200D900D98C5
:1028D8000690FFE7069800280AD0FFE70B980799AB
:1028E800089A059008461146FFF792FF049012E0F7
:1028F8000B980799089A039008461146FFF788FF36
:102908000290FFE70398029903F01FFC0190FFE78C
:1029180001980C9006E00598049900F0A4FE0C902C
:10292800FFE7FFE70B980C9909900A9109980A9913
:102938000EB080BD80B58EB00790089107980899B1
:1029480000F08CF80B90FFE70B9800F019FFFFE7F9
:10295800FFE708200D900D980690FFE706980028DD
:102968000AD0FFE70B980799089A05900846114680
:10297800FFF744FF049012E00B980799089A039018
:1029880008461146FFF73AFF0290FFE703980299BD
:1029980003F0DBFB0190FFE701980C9006E0059837
:1029A800049900F07AFE0C90FFE7FFE70B980C996A
:1029B80009900A9109980A990EB080BD80B58EB029
:1029C800079008910798089900F03CF80B90FFE7EA
:1029D8000B9800F0B7FEFFE7FFE705200D900D9874
:1029E8000690FFE7069800280AD0FFE70B9807999A
:1029F800089A059008461146FFF7F6FE049012E083
:102A08000B980799089A039008461146FFF7ECFEC1
:102A18000290FFE70398029903F097FB0190FFE704
:102A280001980C9006E00598049900F043FE0C907C
:102A3800FFE7FFE70B980C9909900A9109980A9902
:102A48000EB080BD82B000900191009802B070472E
:102A580082B000900191009802B0704782B0009057
:102A68000191009802B0704782B0009001910098DF
:102A780002B0704782B0009001910098019902B0AD
:102A8800704782B0009001910098019902B0704798
:102A980082B0009001910098019902B0704780B50A
:102AA8008AB002900298006800F006FFFFE7FFE78F
:102AB8000120049004980190FFE70198002807D0AE
:102AC800FFE70298406800F0F7FEFFE7FFE7FFE73F
:102AD800029801684068814225D0FFE70298059076
:102AE800012006900990099800280DD0FFE7059865
:102AF8000068089005980068069900F0D0FE0599CE
:102B08000860089807900BE00598406806994942C4
:102B180003F0ECF905994860059800680790FFE70D
:102B28000798009002E00020039002E000980390CC
:102B3800FFE703980AB080BD80B584B00290039186
:102B480002980068039903F0DEF90190FFE7019805
:102B580004B080BD80B584B00290039102980068EB
:102B6800039900F080FD0190FFE7019804B080BD53
:102B780080B584B00290039102980068039900F030
:102B880099FD0190FFE7019804B080BD80B584B03D
:102B98000290039102980068039900F07EFD01906D
:102BA800FFE7019804B080BD80B584B0029003911E
:102BB80002980068039900F063FD0190FFE701980F
:102BC80004B080BD002070470020704780B584B0F5
:102BD8000290039102980068039900F053FE019057
:102BE800FFE7019804B080BD0020704783B00090D3
:102BF80000980290002001900198029903B0704754
:102C080080B584B0029003910298039900F013F8FC
:102C18000090FFE7009804B080BD80B584B00390B1
:102C280003980521FFF786FE02900191FFE70298BD
:102C3800019904B080BD83B00090019100980068AC
:102C480001990968884207D3FFE70098006801994D
:102C58000968884208D003E002A8FF21017008E053
:102C680002A80121017003E002A800210170FFE71A
:102C7800FFE7029803B0704784B00290039102986E
:102C88000068039909680122002388420193009291
:102C980001D301980090009804B0704780B584B0C3
:102CA8000390039800F043FA02900191FFE702981D
:102CB800019904B080BD80B584B00390039800F0FA
:102CC800B7FA02900191FFE70298019904B080BD1C
:102CD80080B584B00390039800F02BFB029001911B
:102CE800FFE70298019904B080BD80B584B00390D5
:102CF800039800F09BF902900191FFE7029801996F
:102D080004B080BDB0B596B01A9C039104920593A7
:102D1800069403A90891089909680A910A990D91DE
:102D280001210E910E990B910B99002902900BD05D
:102D3800FFE7089840680A99401A0C900C980B997C
:102D480004F079F8099006E0089840680A9901F0BB
:102D5800C9F90990FFE709980190FFE705A80F90C6
:102D68000F980068119011981490082015901598E4
:102D78001290129800280BD0FFE70F98406811991D
:102D8800401A13901398129904F055F8109006E021
:102D98000F984068119901F0A5F91090FFE7109974
:102DA8000091FFE70198009901F034FA0790FFE7D6
:102DB80003980499059A069B079C029D2860696000
:102DC800AA60EB60002028616C6116B0B0BDB0B598
:102DD80096B01A9C039104920593069403A908914E
:102DE800089909680A910A990D9105210E910E9981
:102DF8000B910B99002902900BD0FFE708984068C7
:102E08000A99401A0C900C980B9904F014F8099040
:102E180006E0089840680A9901F064F90990FFE70C
:102E280009980190FFE705A80F900F980068119086
:102E3800119814902820159015981290129800282F
:102E48000BD0FFE70F9840681199401A1390139818
:102E5800129903F0F0FF109006E00F98406811995E
:102E680001F040F91090FFE710990091FFE70198F1
:102E7800009901F0CFF90790FFE703980499059AA4
:102E8800069B079C029D28606960AA60EB60002091
:102E980028616C6116B0B0BDB0B596B01A9C0391AC
:102EA80004920593069403A90891089909680A9160
:102EB8000A990D9101210E910E990B910B990029F8
:102EC80002900BD0FFE7089840680A99401A0C90C6
:102ED8000C980B9903F0AFFF099006E0089840683A
:102EE8000A9901F0FFF80990FFE709980190FFE7B8
:102EF80005A80F900F980068119011981490092058
:102F0800159015981290129800280BD0FFE70F988B
:102F180040681199401A13901398129903F08BFF87
:102F2800109006E00F984068119901F0DBF81090B6
:102F3800FFE710990091FFE70198009901F06AF9FD
:102F48000790FFE703980499059A069B079C029D42
:102F580028606960AA60EB60002028616C6116B087
:102F6800B0BDB0B596B01A9C03910492059306942F
:102F780003A90891089909680A910A990D910121F4
:102F88000E910E990B910B99002902900BD0FFE737
:102F9800089840680A99401A0C900C980B9903F00D
:102FA8004AFF099006E0089840680A9901F09AF8E3
:102FB8000990FFE709980190FFE705A80F900F987F
:102FC800006811901198149001201590159812908E
:102FD800129800280BD0FFE70F9840681199401A03
:102FE80013901398129903F026FF109006E00F989B
:102FF8004068119901F076F81090FFE71099009158
:10300800FFE70198009901F005F90790FFE7039899
:103018000499059A069B079C029D28606960AA602E
:10302800EB60002028616C6116B0B0BD80B594B02B
:103038000690069801694069814204D3FFE7FFF7CB
:10304800D3FD059050E0069800690990069801693B
:10305800491C016106980999FFF7B8FD0490FFE73C
:10306800069808300999FFF79FFD0390FFE7049839
:103078000A9003990B910A9A0B9B0792089352E0C6
:103088000CA80121017029E00CA80021017025E09D
:10309800069801690D900D9800680F900F9812908E
:1030A80001201390139810901098002802910BD0CB
:1030B800FFE70D9840680F99401A119011981099E0
:1030C80003F0B9FE0E9006E00D9840680F9901F0E4
:1030D80009F80E90FFE70E9801900AE00CA8007816
:1030E800C00700280FD109E00598C1070029CFD1F2
:1030F800CAE7029801998842C2D3C5E70020089020
:10310800079007900EE006980169FFF75FFDFFE75B
:10311800FFE706980169491C0161002008900790A3
:103128000790FFE7FFE70798089914B080BD80B5BE
:1031380094B00690069801694069814204D3FFE77C
:10314800FFF742FD059050E006980069099006983F
:103158000169491C016106980999FFF7EDFC049083
:10316800FFE7069808300999FFF710FD0390FFE77D
:1031780004980A9003990B910A9A0B9B079208935B
:1031880052E00CA80121017029E00CA8002101706F
:1031980025E0069801690D900D9800680F900F982A
:1031A8001290012013901398109010980028029103
:1031B8000BD0FFE70D9840680F99401A11901198AD
:1031C800109903F038FE0E9006E00D9840680F99AC
:1031D80000F088FF0E90FFE70E9801900AE00CA817
:1031E8000078C00700280FD109E00598C107002919
:1031F800CFD1CAE7029801998842C2D3C5E7002017
:103208000890079007900EE006980169FFF794FC74
:10321800FFE7FFE706980169491C01610020089053
:1032280007900790FFE7FFE70798089914B080BD5B
:1032380080B594B00690069801694069814204D32C
:10324800FFE7FFF7BFFC059050E00698006909907A
:1032580006980169491C016106980999FFF788FCDD
:103268000490FFE7069808300999FFF773FC03906C
:10327800FFE704980A9003990B910A9A0B9B07920F
:10328800089352E00CA80121017029E00CA8002144
:10329800017025E0069801690D900D9800680F905F
:1032A8000F981290052013901398109010980028EA
:1032B80002910BD0FFE70D9840680F99401A1190C2
:1032C8001198109903F0B7FD0E9006E00D9840682C
:1032D8000F9900F007FF0E90FFE70E9801900AE0A3
:1032E8000CA80078C00700280FD109E00598C1078D
:1032F8000029CFD1CAE7029801998842C2D3C5E70D
:1033080000200890079007900EE006980169FFF7E3
:103318002FFCFFE7FFE706980169491C01610020BF
:10332800089007900790FFE7FFE70798089914B0FF
:1033380080BD80B594B006900698016940698142C5
:1033480004D3FFE7FFF750FC059050E006980069AA
:10335800099006980169491C016106980999FFF7C7
:1033680035FC0490FFE7069808300999FFF7E4FB5D
:103378000390FFE704980A9003990B910A9A0B9B14
:103388000792089352E00CA80121017029E00CA8CB
:103398000021017025E0069801690D900D980068DC
:1033A8000F900F9812900120139013981090109876
:1033B800002802910BD0FFE70D9840680F99401A3A
:1033C80011901198109903F036FD0E9006E00D98B3
:1033D80040680F9900F086FE0E90FFE70E98019066
:1033E8000AE00CA80078C00700280FD109E005986A
:1033F800C1070029CFD1CAE7029801998842C2D3F0
:10340800C5E700200890079007900EE0069801692C
:10341800FFF7DCFBFFE7FFE706980169491C01613C
:103428000020089007900790FFE7FFE707980899A2
:1034380014B080BD10B586B0089C02910392049325
:1034480005940299039A049B059C0094FFF75AFC83
:10345800FFE706B010BD10B586B0089C0291039234
:10346800049305940299039A049B059C0094FFF722
:10347800AEFCFFE706B010BD10B586B0089C0291FF
:103488000392049305940299039A049B059C009463
:10349800FFF702FDFFE706B010BD10B586B0089C27
:1034A80002910392049305940299039A049B059C44
:1034B8000094FFF756FDFFE706B010BD10B51CC914
:1034C8001CC01CC91CC010BD10B51CC91CC01CC91F
:1034D8001CC010BD10B51CC91CC01CC91CC010BD27
:1034E80010B51CC91CC01CC91CC010BD80B588B053
:1034F800019002910392019804900298059004208B
:10350800079007980090FFE70398009948430690B2
:1035180004980599069A00F02AF8FFE708B080BDDC
:1035280080B586B00290039104200590059801901B
:10353800FFE70198202806D3FFE7029803990122A4
:10354800FFF7D4FF10E0029802F03CFE0490FFE77A
:1035580003980299012202F0A3FEFFE70398049959
:1035680002F008FFFFE700E0FFE706B080BDD0B536
:1035780002AFACB06C4664096401A546039004919F
:1035880005922020279027980690FFE700200790B3
:10359800FFE70798069940180599884205D9FFE77B
:1035A8000798059988422DD359E0FFE708A82A9083
:1035B8002A982B902B980290FFE70298179003986F
:1035C800079902F0A8FD1890FFE70498079902F000
:1035D800A2FD1990FFE718981799069A02F08EFD38
:1035E800FFE719981899069A02F088FDFFE71798DF
:1035F8001999069A02F082FDFFE7069807990818BC
:103608000790C6E7FFE705980799401A23901AA87C
:1036180028902898299029980190FFE701982490EC
:103628000398079902F077FD2590FFE7049807991A
:1036380002F071FD2690FFE725982499239A02F05D
:103648005DFDFFE726982599239A02F057FDFFE7CD
:1036580024982699239A02F051FDFFE7FFE7FC1F03
:10366800013CA546D0BD80B584B002900391029874
:10367800039900F049F80190FFE7019804B080BD74
:1036880080B584B0029003910298039900F02DF858
:103698000190FFE7019804B080BD80B584B0029026
:1036A80003910298039900F012F80190FFE701983E
:1036B80004B080BD80B584B002900391029803994C
:1036C80000F031F80190FFE7019804B080BD84B0A4
:1036D8000190029101980299C9004018039003983B
:1036E8000090FFE7009804B0704784B00190029101
:1036F8000198029909224A43801803900398009080
:10370800FFE7009804B0704784B0019002910198D7
:10371800029928224A438018039003980090FFE7F3
:10372800009804B0704784B0019002910198029902
:1037380005224A438018039003980090FFE70098F9
:1037480004B0704782B0019001980090FFE700989C
:103758004142484102B0704782B001900198009000
:10376800FFE700984142484102B0704782B001909B
:1037780001980090FFE700984142484102B0704725
:1037880082B0019001980090FFE7009841424841BB
:1037980002B0704780B584B0029002F08DFC0190B1
:1037A800FFE705480199081802AA0392039900F057
:1037B800EAFBFFE704B080BD0C05000080B586B0C9
:1037C8000490059105980499096809781F220B4609
:1037D800134001229A400906490F002903900292DA
:1037E80009D1FFE70398029900F0AEF90190FFE7CD
:1037F800019806B080BD0348034A232102F0EEFD7C
:10380800FEDEC046707400005C74000080B584B0B1
:10381800029002F051FC0190FFE7A120C00001993D
:10382800081802AA0392039900F0C9FBFFE704B045
:1038380080BDD4D480B586B00490059105980499CC
:10384800096809781F220B46134001229A4009068D
:10385800490F00290390029209D1FFE703980299C2
:1038680000F07DF90190FFE7019806B080BD03489C
:10387800034A232102F0B2FDFEDEC0467074000048
:103888009474000080B584B0029003910298039963
:1038980000F005F80190FFE7019804B080BD84B0FE
:1038A80001900291019802994018039003980090A2
:1038B800FFE7009804B0704782B00190019800902B
:1038C800FFE700984142484102B0704780B584B094
:1038D80003900398092100F025F802900191FFE771
:1038E8000298019904B080BD80B584B00390039814
:1038F800032100F017F802900191FFE7029801995F
:1039080004B080BD82B000900191009802B0704769
:1039180084B0009001910098019902900391039856
:1039280004B0704780B58EB0079008910798089941
:10393800FFF7E8FF0B90FFE70B98FFF7BDFFFFE7E6
:10394800FFE701200D900D980690FFE706980028E4
:103958000AD0FFE70B980799089A05900846114680
:10396800FFF7D6FF049012E00B980799089A039086
:1039780008461146FFF7CCFF0290FFE7039802992B
:1039880002F0A7FA0190FFE701980C9006E005986D
:103998000499FFF777FF0C90FFE7FFE70B980C9966
:1039A80009900A9109980A990EB080BD80B584B033
:1039B80002F082FB0090FFE73B20400100990818C5
:1039C8000390039800F017FBFFE704B080BD80B5B3
:1039D8008CB00B900B9800F0CDF80990FFE7099890
:1039E80000F041F90890FFE7089800F0D1F8079037
:1039F800FFE7079800F017FA0690FFE7069800F02F
:103A0800C0F80590FFE7059800F0E5F90490FFE796
:103A1800049800F0CBF80390FFE7039800F0A4FAAD
:103A28000290FFE7029800F0BAF80190FFE70198CA
:103A380000F01EFA0090FFE700980CB080BDD4D4C7
:103A480080B584B002F038FB0090FFE70448009985
:103A580008180390039800F0E8FAFFE704B080BD67
:103A68006407000080B58CB00B900B9800F082F8CA
:103A78000990FFE7099800F0E7F80890FFE7089831
:103A880000F086F80790FFE7079800F0CCF9069059
:103A9800FFE7069800F075F80590FFE7059800F035
:103AA8009AF90490FFE7049800F080F80390FFE784
:103AB800039800F059FA0290FFE7029800F06FF8B7
:103AC8000190FFE7019800F0F9F90090FFE70098EE
:103AD8000CB080BD81B0192001B0704781B00420BE
:103AE80001B0704781B0052001B0704781B0062051
:103AF80001B0704781B0072001B0704781B008203D
:103B080001B0704781B0092001B0704781B00A2028
:103B180001B0704781B00B2001B0704781B00C2014
:103B280001B0704781B00D2001B0704781B00E2000
:103B380001B0704781B00F2001B0704781B01820E4
:103B480001B070470020704782B000900191019841
:103B580000990860009802B070470020704782B052
:103B680000900191019800990860009802B0704790
:103B78000220704782B0009000980190019802B02E
:103B8800704782B0009000980190019802B0704789
:103B980082B0009000980190019802B0704782B0FE
:103BA800009000980190019802B0704782B0009090
:103BB80000980190019802B0704782B00090009878
:103BC8000078C007002805D0FFE701A8012101708F
:103BD80004E0FEDE01A800210170FFE701A80078DB
:103BE80002B0704783B001900198007800280090D7
:103BF80009D0FFE70098012809D0FFE702A80321B0
:103C0800017008E0FEDE02A80021017003E002A8AE
:103C180001210170FFE7029803B0704710B583B027
:103C28000A46019002A8017001990B680124A34378
:103C38000B6000780090FFE701980168009A114333
:103C48000160019803B010BD80B584B0029002985D
:103C580003A900220A70097800F014F80190FFE720
:103C6800019804B080BD80B584B00290029803A981
:103C780001220A70097800F005F80190FFE7019821
:103C880004B080BD80B586B00A46049005A80170CE
:103C9800049903920291FFF790FF0190FFE701203A
:103CA800019901400298FFF7B9FF0090FFE70098DB
:103CB80006B080BD83B0019001980078009000980C
:103CC8007844007940008744080C1014181C20031D
:103CD80002A8072101701CE0FEDE02A80021017085
:103CE80017E002A80121017013E002A80221017067
:103CF8000FE002A8032101700BE002A80421017063
:103D080007E002A80521017003E002A8062101705E
:103D1800FFE7029803B0704782B0009000980078DF
:103D2800C007002805D0FFE701A80121017004E0C1
:103D3800FEDE01A800210170FFE701A8007802B0AB
:103D4800704783B00190019800780028009009D04E
:103D5800FFE70098012809D0FFE702A803210170B6
:103D680008E0FEDE02A80021017003E002A802219B
:103D78000170FFE7029803B0704710B583B00A4698
:103D8800019002A8017001990B680C24A3430B60F1
:103D980000788007000F0090FFE701980168009AFB
:103DA80011430160019803B010BD80B586B00A4682
:103DB800049005A80170049903920291FFF712FF7D
:103DC8000190FFE702980199FFF7D7FF0090FFE7FE
:103DD800009806B080BD80B584B00290029803A90F
:103DE80000220A700399FFF7E0FF0190FFE70198AE
:103DF80004B080BD10B583B00A46019002A80170D6
:103E080001990B6807242402A3430B60007840073C
:103E1800400D0090FFE701980168009A1143016086
:103E2800019803B010BD80B584B00290029803A930
:103E380000220A70039900F005F80190FFE7019845
:103E480004B080BD80B586B00A46049005A801700C
:103E5800049903920291FFF72DFF0190FFE7029862
:103E68000199FFF7C7FF0090FFE7009806B080BDF3
:103E780080B584B00290029803A901220A700978DB
:103E880000F02BF80190FFE7019804B080BD10B551
:103E980083B00A46019002A8017001990B680224B8
:103EA800A3430B60007840000090FFE70198016889
:103EB800009A11430160019803B010BD80B584B029
:103EC8000290029803A900220A70097800F005F808
:103ED8000190FFE7019804B080BD80B586B00A461E
:103EE800049005A80170049903920291FFF714FF4A
:103EF8000190FFE70120019901400298FFF7C7FFF1
:103F08000090FFE7009806B080BD10B583B00A4660
:103F1800019002A8017001990B6803242404A343AB
:103F28000B6000788007800B0090FFE7019801681C
:103F3800009A11430160019803B010BD80B586B0A6
:103F48000A46049005A80170049903920291FFF7AC
:103F5800F8FE0190FFE702980199FFF7D6FF00905D
:103F6800FFE7009806B080BD80B584B00290029843
:103F780003A900220A700399FFF7E0FF0190FFE709
:103F8800019804B080BD80B586B000900191FFF71C
:103F9800D9FD0290FFE7019802A903910399FFF761
:103FA8000DFCFFE70098029904900591049802F02F
:103FB800F0F8059902F0FDF8FFE706B080BD80B57E
:103FC80086B000900191FFF7C8FD0290FFE70198C5
:103FD80002A903910399FFF72DFCFFE700980299C6
:103FE80004900591049802F0D4F8059902F0E1F8DC
:103FF800FFE706B080BD80B586B00090FFF7B8FD3A
:104008000290FFE702A803900398FFF7E0FCFFE7A0
:104018000098029904900591049802F0BAF805995D
:1040280002F0C7F8FFE706B080BD80B586B0009003
:10403800FFF79EFD0290FFE702A803900398FFF7A1
:1040480011FDFFE70098029904900591049802F089
:10405800A0F8059902F0ADF8FFE706B080BD80B57D
:1040680088B0029003910298039900F01BF8019020
:104078000091FFE7019806900121009A0A4007A9DC
:104088000A700978C907002905D1FFE70698059045
:104098000120049002E000200490FFE704980599AD
:1040A80008B080BD8AB0029003910298039900225B
:1040B80040185241089008A802710898099901907F
:1040C8000091FFE7019806900121009A0A4007A98C
:1040D8000A700699079A049104A90A710498097943
:1040E8000AB0704784B00190029101980299401A71
:1040F800039003980090FFE7009804B0704780B5DC
:1041080088B0019007A8002101700198011DFEF7F1
:10411800B3FD0090FFE70098C107002903D1FFE72E
:10412800002002901FE0019807A901220A70114699
:1041380000F037F805910490FFE70498012803D0B0
:10414800FFE70020029021E007A8002101700598F0
:104158000690019906A800F045F8FFE70698039035
:104168000120029012E00298039908B080BD07A8C8
:1041780000210170F7E707A80078C0070028F6D0EB
:10418800FFE707A800210170F1E7F0E7049801288C
:10419800F1D0FAE782B0009001910098019902B03D
:1041A800704780B588B0019002910298FEF71EFD15
:1041B80006910590FFE70598002804D0FFE7002046
:1041C80003900BE0FEDE06980790019800680799B7
:1041D800FFF745FF04910390FFE7FFE70398049971
:1041E80008B080BD80B582B0009001910098019917
:1041F800FFF796F9FFE702B080BD80B584B0029062
:1042080003910298039900F012F80190FFE70198D2
:1042180004B080BD80B584B00290039102980399E0
:10422800FFF7EBFF0190FFE7019804B080BD80B570
:104238008AB00190029109A80021017008AA1170A2
:1042480001210170117001A8069002A80790069834
:104258000799FEF7D5FC05A90870FFE705A80078BF
:1042680040B2401C022807D3FFE708A800210170CC
:104278000298049006E0FEDE09A80021017001986A
:104288000490FFE708A80078C007002809D1FFE7D5
:1042980009A80078C007002807D1FFE704980AB0EA
:1042A80080BD08A800210170F2E709A8002101706B
:1042B800F4E780B584B0029003910298039901F065
:1042C800F9FD01900091FFE70198009904B080BDC5
:1042D80082B000900191009802B0704784B00090BD
:1042E80001910098019902900391039804B07047D6
:1042F80080B58EB0079008910798089900F03CF8AF
:104308000B90FFE70B9801F018FEFFE7FFE701208D
:104318000D900D980690FFE7069800280AD0FFE751
:104328000B980799089A059008461146FFF7D6FF9B
:10433800049012E00B980799089A039008461146D2
:10434800FFF7CCFF0290FFE70398029901F0FDFE0A
:104358000190FFE701980C9006E00598049901F098
:10436800D2FD0C90FFE7FFE70B980C9909900A9192
:1043780009980A990EB080BD82B00090019100980A
:1043880002B0704780B584B00290039102980399F7
:10439800FFF7A4FF0190FFE701984142484104B0AC
:1043A80080BD80B584B00290039102980399FFF70D
:1043B8009FFF01900091FFE70198009904B080BD2C
:1043C80080B58AB002900298006801F0B6FDFFE758
:1043D800FFE70120049004980190FFE70198002866
:1043E80007D0FFE70298406801F0A7FDFFE7FFE765
:1043F800FFE7029801684068814225D0FFE70298EC
:104408000590012006900990099800280DD0FFE733
:1044180005980068089005980068069901F080FDE5
:1044280005990860089807900BE005984068069978
:10443800494201F097FE0599486005980068079081
:10444800FFE70798009002E00020039002E0009840
:104458000390FFE703980AB080BD80B586B0014697
:1044680002AA1070009101F079F9FFE7029904A8F7
:1044780000F033FEFFE705A800210170059904A8A4
:1044880000F062FFFFE706B080BDD4D410B590B04D
:104498001946144609900B930A92099808910794B3
:1044A80000F0F6FDC0B20690FFE70B9B0A9A06984B
:1044B80000F0E8FC05900491FFE71C4A1C230598CE
:1044C800049901F044FD0C90FFE70C9800F07BFC88
:1044D80003900291FFE7164A1C230398029901F002
:1044E80083FD0D90FFE7099800F026FEFFE7099885
:1044F8000EA900220A700D9A0E9900F06DFEFFE7D2
:10450800099800F034FEFFE7FFE709980FA9002299
:104518000A700F9900F0FAFE0190FFE70198C107B1
:10452800002902D0FFE710B010BDEEE7A474000028
:10453800C074000080B586B0049005910498059970
:104548000390084600F0B2FB02910190FFE7039840
:10455800019A029BFFF79AFFFFE706B080BD80B57E
:1045680084B003A8042101700398FFF776FFFFE7E2
:1045780004B080BD80B582B0009001910098019987
:10458800FFF7D8FFFFE702B080BD10B586B0194627
:10459800144603930292039A002A019006D1FFE77A
:1045A8000298019948600020087008E005A80221D7
:1045B800017005980199487001200870FFE706B05E
:1045C80010BD81B001466A461070107801B070477E
:1045D80081B0009001B0704781B00090009801B0A0
:1045E800704780B584B0014603AA10700398029101
:1045F800FFF7E7FF0190FFE7019804B080BD80B5A1
:1046080082B001900198FFF7E7FF0090FFE700985C
:1046180002B080BD81B000900098006801B070477A
:104628000020704780B584B00190019803900398EA
:1046380001F0AFFD01F0B2FD0090FFE70098029095
:10464800029804B080BD80B582B00190019800F056
:1046580008F8FFE702B080BD82B00190019802B06F
:10466800704780B586B00090FFF7DAFF0290FFE749
:1046780002A803900398FFF7EFFFFFE7009802995D
:1046880004900591049801F084FD059901F091FDCD
:10469800FFE706B080BD80B586B0009001F0C4FC8D
:1046A8000290FFE702A80390039801F044F9FFE79E
:1046B8000098029904900591049801F06AFD059903
:1046C80001F077FDFFE706B080BD80B586B00090A9
:1046D80001F0B5FC0290FFE702A80390039801F0EF
:1046E8001EF9FFE70098029904900591049801F0DB
:1046F80050FD059901F05DFDFFE706B080BD80B56E
:1047080086B0009001F08DF90290FFE702A80390AF
:10471800039801F09FF8FFE700980299049005912B
:10472800049801F036FD059901F043FDFFE706B056
:1047380080BD80B586B00090019101F072F90290B9
:10474800FFE7019802A90391039901F045F9FFE7F2
:104758000098029904900591049801F01AFD0599B2
:1047680001F027FDFFE706B080BD80B586B0009058
:1047780000F09AF80290FFE702A80390039801F06E
:10478800BEF8FFE70098029904900591049801F09B
:1047980000FD059901F00DFDFFE706B080BD80B56D
:1047A80086B00090019101F047F90290FFE7019867
:1047B80002A90391039901F073F8FFE700980299A1
:1047C80004900591049801F0E4FC059901F0F1FCCE
:1047D800FFE706B080BD80B586B00090019101F07A
:1047E80037F90290FFE7019802A90391039901F0B4
:1047F8003DF8FFE70098029904900591049801F0AC
:10480800C8FC059901F0D5FCFFE706B080BD80B56E
:1048180088B00A46029003A80170019200F0C4F81B
:104828000490FFE7039804A90591059901F052F84F
:10483800FFE70298049906900791069801F0A9FCF1
:10484800079901F0B6FCFFE708B080BD002070476B
:1048580082B00190019802B0704781B00090009832
:10486800007801B0704784B001900198006800900A
:10487800FFE70F200099014003A80170039802A9DF
:104888000870029804B070470420704782B0009006
:104898000191019800990860009802B0704782B0B1
:1048A8000190019802B070470020704782B00090D4
:1048B80000980190019802B0704782B0009000986B
:1048C8000078C007002805D0FFE701A8042101707F
:1048D80004E0FEDE01A800210170FFE7019802B0A4
:1048E800704710B583B00A46019002A8017001997B
:1048F8000B680724A3430B60007820400090FFE773
:1049080001980168009A11430160019803B010BD35
:1049180080B584B00290029803A901220A70097830
:1049280000F005F80190FFE7019804B080BD80B55C
:1049380086B00A46049005A8017004990392029172
:10494800FFF7BBFF0190FFE702980199FFF7C9FF46
:104958000090FFE7009806B080BD83B001900291F7
:1049680001980021016002980090FFE70198016812
:10497800009A11430160019803B0704780B586B072
:104988000A46049005A8017004990392029100F068
:1049980015F80190FFE702980199FFF7DEFF0090F4
:1049A800FFE7009806B080BD0020704782B00090F5
:1049B80000980190019802B07047D4D483B0019058
:1049C8000198007800900098784400794000874466
:1049D8000C1014171A1E2124272A2D3033373A07B2
:1049E80001200007029031E0FEDE4F200003029014
:1049F8002CE09D200003029028E02048029025E04A
:104A08001D48029022E03B20000402901EE0194855
:104A180002901BE01648029018E01448029015E036
:104A28001148029012E00F4802900FE00C480290E3
:104A38000CE00A48029009E001208006029005E097
:104A48000548029002E003480290FFE7029803B08D
:104A58007047C04600D0BE0E00705F0700B0AF03BD
:104A680000E0D70100903A0100F0EB0000509D00F3
:104A780000F0750000A04E000050270000B01300A1
:104A880010B583B00A46019002A8017001990B681D
:104A980001242404A3430B60007800040090FFE77E
:104AA80001980168009A11430160019803B010BD94
:104AB80080B582B00190019800F005F80090FFE7FA
:104AC800009802B080BD80B586B00490049805A90E
:104AD8000390084600F0D6F80290FFE701200299FB
:104AE80001400398FFF7CCFF0190FFE7019806B05B
:104AF80080BD10B583B00A46019002A801700199E3
:104B08000B6801246404A3430B6000784004009000
:104B1800FFE701980168009A11430160019803B00A
:104B280010BD80B582B00190019800F005F80090A2
:104B3800FFE7009802B080BD80B586B00490049865
:104B480005A90390084600F0A2F80290FFE70120AB
:104B5800029901400398FFF7CCFF0190FFE7019805
:104B680006B080BD10B583B00A46019002A8017056
:104B780001990B680124A404A3430B600078800406
:104B88000090FFE701980168009A114301600198BD
:104B980003B010BD80B582B00190019800F005F80F
:104BA8000090FFE7009802B080BD80B586B0049001
:104BB800049805A90390084600F06EF80290FFE7F4
:104BC8000120029901400398FFF7CCFF0190FFE70D
:104BD800019806B080BD10B583B00A46019002A8BE
:104BE800017001990B680124E404A3430B60007869
:104BF800C0040090FFE701980168009A1143016022
:104C0800019803B010BD80B582B00190019800F002
:104C180005F80090FFE7009802B080BD80B586B027
:104C28000490049805A90390084600F03AF8029009
:104C3800FFE70120029901400398FFF7CCFF01909C
:104C4800FFE7019806B080BD0020704782B0009051
:104C580000980190019802B0704782B000900098C7
:104C68000190019802B0704782B0009000980190BE
:104C7800019802B0704782B00090009801900198A6
:104C880002B0704781B00090012001B0704781B038
:104C98000090012001B0704781B00090012001B060
:104CA800704781B00090012001B07047B0B592B054
:104CB8000F900F9800210E9008460D910E9A0D9BAB
:104CC80002F089F84A1E914110220E9B0C9018465A
:104CD8000D9C0B912146234602F07DF80C9A891809
:104CE8000D9B5B410B9C1C43002C0A91099039D108
:104CF800FFE77D20C00000210A9A0890104607911E
:104D0800089A079B02F067F84A1E9141079A069095
:104D1800104605911146099A079B02F05CF84A1E55
:104D28009141059A0A430999049008460799089BF6
:104D380003921A46079B02F04EF8069A049BD41871
:104D48000919079C6441039D2543002D0291019098
:104D58000ED1FFE7019810900299119110981199BE
:104D680012B0B0BD0548064A212101F037FBFEDE2E
:104D78000248034A212101F031FBFEDE5075000094
:104D88003475000080B582B00190019801F08AF96D
:104D98000090FFE7A120C0000099081800F0F7FF75
:104DA800FFE702B080BD80B584B00390039800F09F
:104DB80068FE0190FFE7019800F0A1FE0090FFE770
:104DC800009804B080BD83B0009000980290002045
:104DD80001900198029903B0704781B001466A4674
:104DE8001070107801B0704786B0014603AA1070A1
:104DF8001078092802900AD80298C04678440079A9
:104E080040008744090D1115191D2125292D1B481E
:104E18000590059A019227E004A80021017029E075
:104E280004A80121017025E004A80221017021E0F5
:104E380004A8032101701DE004A80421017019E0F1
:104E480004A80521017015E004A80621017011E0ED
:104E580004A8072101700DE004A80821017009E0E9
:104E680004A80921017005E005481621019A01F0FE
:104E7800B5FAFEDE049806B07047C046E875000033
:104E88007175000070B58CB019461446054607AE1A
:104E98003070099308920898099A33780691114658
:104EA8001A460594049501F0B0FF0022002A0391E8
:104EB800029010D1FFE70AA8029A039B00F0EBFFCB
:104EC800FFE70AA801F05FF801900091FFE7019859
:104ED80000990CB070BD0348034A242101F07EFA02
:104EE800FEDEC04610760000F875000080B58EB072
:104EF8000DA800F056F9FFE70DA800F01DF9FFE72F
:104F08000DA801F0CFF80B90FFE747480B99081858
:104F180000F0DBFEFFE70DA8FFF734FFFFE70DA861
:104F280001F0C0F80A90FFE7512000010A9908181B
:104F380000F072FFFFE70DA801F0B4F80990FFE751
:104F4800012040020999081800F0E2FEFFE70DA8C9
:104F580001F0A8F80890FFE71520800108990818C3
:104F680000F074FEFFE70DA801F09CF80790FFE73A
:104F78002E480799081800F069FEFFE70DA801F010
:104F880091F80690FFE7A920C0000699081800F0DC
:104F98005DFEFFE70DA801F085F80590FFE72448BE
:104FA8000599081800F052FEFFE70DA801F07AF8FD
:104FB8000490FFE7052080010499081800F023FEFB
:104FC800FFE70DA801F06EF80390FFE7512080007D
:104FD8000399081800F017FEFFE70DA801F062F822
:104FE8000290FFE72920C0000299081800F00BFE84
:104FF800FFE70DA801F056F80190FFE75320800065
:105008000199081800F0FFFDFFE70DA801F04AF824
:105018000090FFE76120C0000099081800F0D1FE59
:10502800FFE70EB080BDC04604050000440500003F
:105038004C05000080B58AB009900998FFF706FE74
:105048000790FFE70798FFF733FD0690FFE70698FC
:10505800FFF703FE0590FFE70598FFF762FD049050
:10506800FFE70498FFF700FE0390FFE70398FFF7B8
:1050780091FD0290FFE70298FFF7FDFD0190FFE721
:105088000198FFF7C0FD0090FFE700980AB080BDC7
:1050980080B586B00290029801F004F80190FFE70D
:1050A800512000010199081800F0A5FE0590FFE7BE
:1050B80005A8FFF7D8FB04A90870FFE704A8FFF7C5
:1050C800CCFB03A90870FFE70398FFF78DFEC0B279
:1050D8000090FFE7009806B080BD80B586B00A460C
:1050E800029003A8017003980192FFF776FE0490DE
:1050F800FFE7029800F055F8FFE7029800F0D2FFAA
:105108000090FFE7512000010099081804AA0592B1
:10511800059900F0A4FEFFE706B080BD80B584B015
:1051280002900391039802990968FFF7AFFB019079
:10513800FFE7019804B080BD80B582B00190019866
:1051480000F0B0FF0090FFE700980C3000F016FD6B
:10515800FFE702B080BD80B584B0039003980121B9
:1051680000F085FF0190FFE7019804B080BD80B58D
:1051780082B00190019800F095FF0090FFE7009839
:1051880000F016FDFFE702B080BD80B584B0039043
:105198000398012100F06AFC0190FFE7019804B030
:1051A80080BD80B582B00190019800F07BFF00902F
:1051B800FFE70098001D00F0C7FCFFE702B080BDC4
:1051C80080B584B003900398012100F045FF019059
:1051D800FFE7019804B080BD80B588B00B46049005
:1051E80005A8017006920498039300F05BFF0290F3
:1051F800FFE705A80078032801900FD8FFE701987A
:105208008100029A511815239B01C8180699079125
:10521800079900F024FDFFE708B080BD024804228A
:10522800019901F0EDF8FEDE3476000080B586B015
:10523800049005910598049903900846FFF7DFF953
:105248000290FFE70398029900F073FA0190FFE7D4
:10525800019806B080BDD4D480B588B00A460490C1
:1052680005A801700498039200F01CFF0290FFE764
:1052780005A800780328019017D8FFE70198810056
:10528800029A511805239B01C9180691069800F047
:10529800A9FC0790FFE707A800F03CFA0090FFE799
:1052A8000098411E884108B080BD03480422019936
:1052B80001F0A6F8FEDEC0464476000080B586B050
:1052C8000A46039004A801700398029200F0EAFECF
:1052D8000190FFE704A80078032800900ED8FFE7A4
:1052E80000988100019A511805239B01C91805915E
:1052F800059800F088FCFFE706B080BD024804224C
:10530800009901F07DF8FEDE5476000080B584B087
:105318000A46019002A80170019802990092FFF7CD
:105328009BFF03A90870FFE703A80078C0070028BF
:1053380006D0FFE701980299FFF7C0FFFFE7FFE7F4
:1053480003A8007804B080BD80B586B00A460390F3
:1053580004A801700398029200F0A4FE0190FFE7F0
:10536800012040020199081804AA0592059900F045
:10537800F2FCFFE706B080BD80B58CB009900A91B9
:105388000998007808900898784400794000874484
:10539800071421010A9800F09CF9079027E0FEDE27
:1053A8000A9800F081F90690FFE7069800F096F851
:1053B8000590FFE705980B9021E00A9800F07BF92B
:1053C8000490FFE7049800F0C8F80390FFE70398FB
:1053D8000B9014E00A9800F075F90290FFE7029824
:1053E80000F0FAF80190FFE701980B9007E00798A2
:1053F80000F031F90090FFE700980B90FFE70B9859
:105408000CB080BD82B0009000980078C0070028DA
:1054180005D0FFE701A80121017004E0FEDE01A824
:1054280000210170FFE701A8007802B0704782B040
:10543800009000980078C007002805D0FFE701A871
:105448000121017004E0FEDE01A800210170FFE7E0
:1054580001A8007802B0704782B0009000980078E8
:10546800C007002805D0FFE701A80121017004E06A
:10547800FEDE01A800210170FFE701A8007802B054
:10548800704782B0009000980078C007002805D0C7
:10549800FFE701A80121017004E0FEDE01A8002158
:1054A8000170FFE701A8007802B0704710B583B01B
:1054B8000A46019002A8017001990B680124240290
:1054C800A3430B60007800020090FFE70198016891
:1054D800009A11430160019803B010BD80B584B0F3
:1054E8000290029803A901220A70097800F005F8D1
:1054F8000190FFE7019804B080BD80B586B00A46E8
:10550800049005A80170049903920291FFF77AFFAD
:105518000190FFE70120019901400298FFF7C6FFBB
:105528000090FFE7009806B080BD10B583B00A462A
:10553800019002A8017001990B6801246402A34339
:105548000B60007840020090FFE701980168009A1C
:1055580011430160019803B010BD80B584B002907A
:10556800029803A901220A70097800F005F8019051
:10557800FFE7019804B080BD80B586B00A46049064
:1055880005A80170049903920291FFF750FF01905A
:10559800FFE70120019901400298FFF7C6FF00903C
:1055A800FFE7009806B080BD10B583B00A460190A9
:1055B80002A8017001990B680124A402A3430B609F
:1055C800007880020090FFE701980168009A114373
:1055D8000160019803B010BD80B584B002900298B4
:1055E80003A901220A70097800F005F80190FFE785
:1055F800019804B080BD80B586B00A46049005A81D
:105608000170049903920291FFF726FF0190FFE7CA
:105618000120019901400298FFF7C6FF0090FFE7BB
:10562800009806B080BD10B583B00A46019002A864
:10563800017001990B680124E402A3430B60007810
:10564800C0020090FFE701980168009A11430160C9
:10565800019803B010BD80B584B00290029803A9E8
:1056680001220A70097800F005F80190FFE7019817
:1056780004B080BD80B586B00A46049005A80170C4
:10568800049903920291FFF7FCFE0190FFE70120C5
:10569800019901400298FFF7C6FF0090FFE70098C4
:1056A80006B080BD0020704782B00090009801903D
:1056B800019802B0704782B000900098019001985C
:1056C80002B0704782B0009000980190019802B033
:1056D800704782B0009000980190019802B070471E
:1056E80082B00190019802B07047D4D480B584B0DC
:1056F8000290039103980649022201F04BF90190A8
:10570800FFE7012001990140084604B080BDC0466A
:105718006476000081B000900098006801B070477E
:105728000020704782B00190019802B070470020B5
:10573800704782B000900191019800990860009824
:1057480002B0704782B00190019802B0704780B5EE
:1057580082B0FFF7CBFBFFE702B080BD80B582B017
:10576800FFF7F5FFFFE702B080BDD4D470B592B063
:1057780013460C4605460BAE30700CA801700DA8F8
:1057880002700AA809930894079500F07DFC06901A
:10579800FFE72C4806990818FEF7B1FFFFE70AA8AB
:1057A80000F072FC0590FFE72748059908180BAA36
:1057B8000F920F99FFF70FF8FFE70AA800F064FCB3
:1057C8000490FFE72148049908180CAA1092109930
:1057D800FEF7E5FFFFE70AA800F056FC0390FFE795
:1057E8001B48039908180D9A11AB1A701199FFF705
:1057F8000EF8FFE70AA800F047FC0290FFE7052033
:10580800000202990818FEF7B0FFFFE70AA800F0A7
:105818003BFC0190FFE701980830FEF756FFFFE7D1
:105828000AA800F031FC0090FFE70098FEF733FF6C
:10583800FFE70B980C990EAA1070517051780E98CA
:1058480012B070BD1C0500000C0500001405000016
:105858002405000080B584B003900398002100F06F
:10586800E2F80190FFE7019804B080BD80B586B0EA
:1058780004900591059804990390084600F0C5F82E
:105888000290FFE70298FEF7ACFE0190FFE703984D
:10589800019900F0E0F80090FFE7009806B080BD9D
:1058A80080B586B004900591059804990390084640
:1058B80000F0B1F80290FFE70298FEF792FE01901F
:1058C800FFE70398019900F0BAF80090FFE7009805
:1058D80006B080BD80B586B0024604AB187005914D
:1058E80005980392FFF762F80290FFE7049902987F
:1058F800FFF744F80190FFE7019806B080BD80B536
:1059080084B003900398FEF7D1FF0190FFE7019858
:10591800FEF7FEFF0090FFE7009804B080BD80B559
:1059280084B003900398012100F08BFB0190FFE7FE
:10593800019804B080BD80B584B00390039801211C
:1059480000F074FB0190FFE7019804B080BD10B52A
:1059580082B00A4603466C462070617002B010BDE2
:1059680080B58AB00A46049005A80170039200F039
:1059780087FB0290FFE70298079007994722920059
:105988008818FEF74FFE0890FFE708A8FEF742FECA
:105998000190FFE70198012804D0FFE706A801213C
:1059A800017013E00798472189004018FEF74BFE65
:1059B800FFE707980749401805A909910999FEF7D3
:1059C800B8FEFFE706A800210170FFE706A80078E7
:1059D8000AB080BD1C05000080B586B00490059112
:1059E80005980499097803900846FEF7EAFD0290A5
:1059F800FFE70398029900F016F80190FFE7019875
:105A080006B080BD82B002B0704781B000900098A7
:105A1800007801B0704781B000900098007801B01C
:105A280070470020704782B000900191019800995A
:105A38000860009802B070470020C043704782B0E9
:105A480000900191019800990860009802B0704791
:105A58000020C043704782B00090019101980099DE
:105A68000860009802B070470020704782B000902C
:105A78000191019800990860009802B070470020D1
:105A8800704782B0009000980190019802B070476A
:105A980083B00190019800780090009878440079CC
:105AA80040008744060A0E0102A8032101700CE099
:105AB800FEDE02A80021017007E002A801210170A2
:105AC80003E002A802210170FFE7029803B07047C3
